:020000040002F8
:10600000A04E0020C1630200C9630200CB630200FE
:10601000CD630200CF630200D163020000000000E4
:10602000000000000000000000000000D363020038
:10603000D563020000000000D7630200D9630200AC
:1060400041670200DB630200E16A0200DB630200D9
:10605000DB630200DB63020079650200DB630200A0
:10606000DB630200DB630200DB630200DB63020030
:10607000DB630200DB630200DB630200DB63020020
:10608000DB63020099670200DB630200DB6302004E
:10609000BD670200DB630200C1670200DB63020030
:1060A000DB630200DB630200DB630200DB630200F0
:1060B000DB630200DB630200000000000000000060
:1060C000DB630200DB630200DB630200DB630200D0
:1060D000DB630200DB630200DB6302000000000000
:1060E00000000000000000000000000000000000B0
:1060F00000000000000000000000000000000000A0
:10610000000000000000000000000000000000008F
:10611000000000000000000000000000000000007F
:10612000000000000000000000000000000000006F
:10613000000000000000000000000000000000005F
:10614000000000000000000000000000000000004F
:10615000000000000000000000000000000000003F
:10616000000000000000000000000000000000002F
:10617000000000000000000000000000000000001F
:10618000000000000000000000000000000000000F
:1061900000000000000000000000000000000000FF
:1061A00000000000000000000000000000000000EF
:1061B00000000000000000000000000000000000DF
:1061C00000000000000000000000000000000000CF
:1061D00000000000000000000000000000000000BF
:1061E00000000000000000000000000000000000AF
:1061F000000000000000000000000000000000009F
:10620000DFF80CD000F07AF9004800479D830200C7
:10621000A04E002030B450E8012F93B2C48923442B
:106220008489A34228BF1B1B0489A34202BFBFF37A
:106230002F8F002007E0C3EA020340E80134002C5E
:10624000E9D14FF001000A6030BC704750E8012FDF
:10625000C2EA024240E801210029F7D1704730B478
:1062600050E8022F1FFAA2F3C488A34202BFBFF373
:106270002F8F00200DE0C48923448489A34228BFC6
:106280001B1BC2EA034340E80234002CE8D14FF064
:1062900001000A6030BC704750E8022FC2EA224277
:1062A00040E802210029F7D17047034653E8022F46
:1062B000D988B2EB324F4FF0000017BF92B241EADB
:1062C000014142EA014104E05A68B2EB324F08BF93
:1062D000012043E80212002AE8D1704730B4044696
:1062E00054E8000F0D4644E80053002BF8D1156028
:1062F00030BC704730B4044654E8000F40EA010552
:1063000044E80053002BF7D1156030BC704730B41F
:10631000044654E8000F00EA010544E80053002B4E
:10632000F7D1156030BC704730B4044654E8000F14
:1063300080EA010544E80053002BF7D1156030BC1A
:10634000704730B4044654E8000F00EB010544E800
:106350000053002BF7D1156030BC704730B40446B1
:1063600054E8000FA0EB010544E80053002BF7D1DF
:10637000156030BC704770B404464FF0000054E81C
:10638000006F0D68AE4207BF44E80023012044E8D7
:1063900000630E60002B1CBF0020F0E770BC70474C
:1063A00030B4044654E8000F88422CBF451A054615
:1063B00044E80053002BF5D1156030BC7047000055
:1063C0000648804706480047FEE7FEE7FEE7FEE78F
:1063D000FEE7FEE7FEE7FEE7FEE7FEE7C567020031
:1063E000016202002DE9F05F0546002092469B46BF
:1063F00088460646814640241BE0284641464746DB
:10640000224600F06BF853465A46C01A914110D309
:1064100011461846224600F016F82D1A67EB0108BF
:106420004F4622460120002100F00DF817EB00092D
:106430004E41201EA4F10104DFDC484631462A46C5
:106440004346BDE8F09F202A04DB203A00FA02F11F
:10645000002070479140C2F1200320FA03F3194352
:1064600090407047004870476CB5020040EA010355
:106470009B0703D009E008C9121F08C0042AFAD2FA
:1064800003E011F8013B00F8013B521EF9D27047BE
:10649000D2B201E000F8012B491EFBD27047002266
:1064A000F6E710B513460A4604461946FFF7F0FF13
:1064B000204610BD421C10F8011B0029FBD1801A98
:1064C000704730B504460020034600E05B1C934251
:1064D00003D2E05CCD5C401BF8D030BD202A04DB49
:1064E000203A21FA02F00021704721FA02F3D0404D
:1064F000C2F120029140084319467047064C074DEF
:1065000006E0E06840F0010394E807009847103483
:10651000AC42F6D3FFF778FEA8BC0200C8BC02006C
:1065200070B58C1810F8015B15F0070301D110F855
:10653000013B2A1106D110F8012B03E010F8016B82
:1065400001F8016B5B1EF9D12B0705D40023521E05
:106550000DD401F8013BFAE710F8013BCB1A921C6D
:1065600003E013F8015B01F8015B521EF9D5A1426B
:10657000D8D3002070BD00002DE9F04700268AB076
:10658000DFF85091B0464FF48075012437460696E7
:10659000284602F003FC38B1D9F80403204203D0A6
:1065A000284602F0F1FB26432D1D64007F1CADB28E
:1065B000082FEDD34FF4BE74204602F0EFFB48B134
:1065C000204602F0E1FB46F0004606AA0121002029
:1065D00002F0C6FB404D16F0FF0F15D00127002436
:1065E00037420DD009EB8401D1F81005D1F8101510
:1065F000C0F3042055F82420C1F3014102B19047B3
:106600007F00641C082CEBD3002E5FDA4FF0FF30C4
:10661000CDF8108054E0281910F8507F90F9000050
:1066200027F0C008401C3BD007A9404602F048F8BC
:1066300010B34FEA9719404601F018FA55F8207048
:106640001FB1B9F1030F03D006E0B9F1030F27D151
:1066500004A9404602F03CF84FF0A04101EB88004D
:10666000D0F8000706A9C0F3014A404602F028F816
:1066700018B1BAF1020F03D012E0BAF1030F0FD133
:10668000B9F1030F08D1BAF1020F1DD00221404623
:1066900002F04AFB761CF6B217B149464046B847AD
:1066A000641C042CB7D3002E10D06A4601210020B0
:1066B00002F056FB06990098884207D0069004988D
:1066C000002634460790A6E70321E0E70AB0BDE8BC
:1066D000F087000000600040E826002000F01F0264
:1066E000012191404009800000F1E020C0F88012B3
:1066F000704700F01F02012191404009800000F125
:10670000E020C0F80011704700F01F020121914005
:106710004009800000F1E020C0F8001270474907EE
:10672000090E002806DA00F00F0000F1E02080F8E2
:10673000141D704700F1E02080F80014704700003D
:1067400070B54FF48076304602F082F8114CB505F2
:1067500060B1304602F083F80120C5F80803607983
:1067600020B9012060712168002088474FF48276AB
:10677000304602F06DF800280AD0304602F06FF87B
:106780000220C5F808032168BDE8704001200847D1
:1067900070BD00009C20002007480021C0F8401177
:1067A000C0F84411C0F84811C0F84C11C0F80011ED
:1067B000C0F8041104F070BA0010014004F0BAB936
:1067C00003F05CB8F0B5B5480023021D0178101D38
:1067D00001254FF0805406290BD11678360708D1D1
:1067E0000678C6F30316032E06D0042E04D0052E19
:1067F00002D0062907D00EE0B4F82463A84FC6F3F0
:1068000004263E6002E01678360704D10678C6F307
:106810000316032E02D0062904D00FE0A24FA14E8A
:106820007E670EE01678360708D10678C6F30316A1
:10683000032E06D0042E04D0052E02D0062907D040
:106840000EE0D4F84462994FC6F342363E6002E04F
:106850001678360704D10678C6F30316032E02D045
:10686000062906D011E0924E376827F0807737600E
:106870000EE01678360708D10678C6F30316032E05
:1068800006D0042E04D0052E02D006290AD011E02D
:106890004FF08046C6F80C31C6F81031834E361FD3
:1068A000336002E01678360704D10678C6F3031683
:1068B000032E02D0062905D00CE07C4F0326643756
:1068C0003E600AE01678360704D10678C6F3031650
:1068D000032E02D006290DD014E0764F05263E6027
:1068E000744E78363560734E083633603F263F1D50
:1068F0003E6002E01678360704D10678C6F3031628
:10690000052E02D0062957D062E06B4E36686B4FD9
:106910003E60694E361D36683F1D3E60664E083645
:1069200036683F1D3E60644E0C3636683F1D3E6043
:10693000614E103636683F1D3E605F4E1436366835
:106940003F1D3E605C4E183636685C4F20373E6017
:10695000594E1C3636683F1D3E60574E203636680D
:106960003F1D3E60544E243636683F1D3E60524EF9
:10697000283636683F1D3E604F4E2C3636683F1D28
:106980003E604D4E303636684C4F40373E604A4E82
:10699000343636683F1D3E60474E383636683F1DF8
:1069A0003E60454E3C3636683F1D3E60424E4036A6
:1069B00036683F1D3E6002E01678360708D106783B
:1069C000C6F30316032E06D0042E04D0052E02D0E3
:1069D000062907D019E0D4F85812394A01F04F01BE
:1069E000116002E0117809070FD10078C0F303109D
:1069F000032803D0042801D0052806D131480168B6
:106A0000C90702D06FF001010160D4F830010628F7
:106A100008D1D4F83401062804D12B48016841F488
:106A20008061016022487438016841F4700101609E
:106A3000BFF34F8FBFF36F8F4FF01021D1F80002DB
:106A4000002803DBD1F80402002822DA1F4A15606F
:106A50001F480468002CFCD01524C1F800420568CA
:106A6000002DFCD0C1F8044201680029FCD013605D
:106A700001680029FCD0BFF34F8F0D48F038016842
:106A8000144A01F4E06111430160BFF34F8F00BF6E
:106A9000FDE7124910480860F0BD0000E00F00F06B
:106AA000403501400DF0ADBA00C007403C05004044
:106AB000FCED00E0105600400404001020C500402A
:106AC000E40E0040000400403C17004004E5014093
:106AD00000E401400400FA050090D003802100206A
:106AE0000148006800470000A42000200FB4084BB4
:106AF00010B504A902AA039800F03AF8044602A9C6
:106B0000002000F066FA204610BC5DF814FB00007F
:106B1000D36F020002E008C8121F08C1002AFAD190
:106B200070477047002001E001C1121F002AFBD10D
:106B3000704700000121202803DA81400548014008
:106B400003E0402802DA2038814009B10120704773
:106B500000207047FC06FFBD082806D228B1012896
:106B600003D0042801D001207047002070470000A6
:106B70002DE9FF4F8DB00F460546002606E025287B
:106B80000BD0DDE90F1290476D1C761C2878002889
:106B9000F5D111B03046BDE8F08F0024A246A146E1
:106BA0000122EC4900E0044315F8013F203B02FAC2
:106BB00003F00842F7D128782A2810D06FF02F026E
:106BC0002878A0F13001092914D80AEB8A0102EBD8
:106BD000410144F0020400EB010A6D1CF0E701CF13
:106BE0005FEA000A03D544F40054CAF1000A44F0F5
:106BF00002046D1C28782E2817D115F8010F44F0D7
:106C000004042A280ED06FF02F022878A0F130015A
:106C100009290AD809EB890102EB410100EB0109BE
:106C20006D1CF2E757F8049B6D1C28786C280FD078
:106C300006DC4C2817D068280DD06A2814D104E04F
:106C4000742810D07A280FD10DE044F400140AE023
:106C500044F4801401E044F440146978814202D184
:106C600004F580146D1C6D1C2A786E2A1FD00CDC74
:106C7000632A31D004DC002A8BD0582A11D1A3E03A
:106C8000642A68D0692A0CD165E0732A2ED004DC0E
:106C90006F2A73D0702A04D19BE0752A6FD0782AAE
:106CA0006ED01046DDE90F129047761C50E1C4F318
:106CB0000250022806D0032809D0042801CF09D0A9
:106CC000066045E101CFF117C0E9006140E101CF65
:106CD00006803DE106703BE117F8040B8DF80000DB
:106CE00000208DF80100EB46012003E057F804BBBB
:106CF0004FF0FF3061074FF0000102D40DE008F1C2
:106D00000101884649450FDA8045F8DB1BF8081079
:106D10000029F4D108E008F1010188468142FADB3C
:106D20001BF808100029F6D1DDE90F23AAEB0800B3
:106D30008146214600F036F9304400EB080604E0B5
:106D4000DDE90F121BF8010B9047B8F10108F7D2EB
:106D500021464846F7E00A21C4F302534FF0000BE6
:106D60000891022B04D001CFC117032B09D00AE0F0
:106D7000FF1D27F00707F7E8020108E032E01FE0F7
:106D800020E000B2C117042B01D140B2C117031E8D
:106D900071F1000307DA4FF0000CD0EB0C006CEB44
:106DA00001012D2302E0230504D52B238DF8243087
:106DB000012303E0E30701D02023F7E7984658E0DA
:106DC0000A2110E010210EE010204FF0000B089077
:106DD0000CE010214FF0000B44F004044FF00809C0
:106DE000089103E008214FF0000B0891C4F302530F
:106DF000022B04D001CF0021032B06D006E0FF1D9B
:106E000027F00707F7E8020103E080B2042B00D166
:106E1000C0B24FF0000823072BD5702A07D0DDF849
:106E200020C08CF0100C5CEA0B0C05D00EE0402367
:106E30008DF82430012308E050EA010306D0302306
:106E40008DF824308DF8252002239846DDF820C0E7
:106E50008CF0080C5CEA0B0C0BD150EA010301D159
:106E6000630706D530238DF824304FF00108A9F1CF
:106E70000109582A04D038A20B9208AA0A920BE002
:106E80003AA2F9E75B46089AFFF7ACFA0B9B9B5CCA
:106E90000A9A521E0A92137050EA0102F2D10A981D
:106EA000ADEB000000F1200B600702D524F4803424
:106EB00001E04FF00109D94502DDA9EB0B0000E02C
:106EC000002000EB0B0141440890AAEB010AE0030B
:106ED00006D4DDE90F232146504600F063F806444E
:106EE0004FF0000908E009A911F80900DDE90F12C7
:106EF000904709F10109761CC145F4DBE0030CD58C
:106F0000DDE90F232146504600F04CF8064404E02A
:106F1000DDE90F1230209047761C0899481E089032
:106F20000029F5DC08E00A980A990078491C0A91C2
:106F3000DDE90F129047761CBBF10001ABF1010BAC
:106F4000F1DC21465046DDE90F2300F019F8064434
:106F50006D1C1BE6092801003031323334353637D9
:106F60003839616263646566000000003031323395
:106F70003435363738394142434445460000000035
:106F80002DE9F041044600251E461746880404D426
:106F900005E039462020B0476D1C641EF9D528460F
:106FA000BDE8F0812DE9F041044600251E469046DB
:106FB000C80301D5302700E02027880404D505E068
:106FC00041463846B0476D1C641EF9D52846BDE8D9
:106FD000F0810A68531C0B601070704710B50122D5
:106FE0000221002000F076FC08B1072810D107220A
:106FF0000221012000F06EFC08B1072808D1002111
:107000000A22084600F066FC08B1072800D10020DB
:1070100010BD000004480121007873DF002801D072
:1070200000F07EB8704700003C200020F8B51546FF
:107030000C460646052A01D20720F8BD02F0B2FD33
:1070400018B902F077FD0028F7D1124900224E60EE
:107050000C708D60C1E90422C1E906220E4D0DE0DD
:1070600006EBC4002968009181788DF80110007842
:107070000A4A694602F0ECFC0028DED1641EE4B244
:10708000EED2BDE8F84004480021054A001D00F09A
:1070900053B80000B020002084B20200AD7F02008F
:1070A000457D020072B602F017F900BF01F056FFED
:1070B0000028FBD1104C0121208801EB00400FA1DA
:1070C00002F05CF810480068C00700D000BE2088BD
:1070D000022101EB00400DA102F050F8BFF34F8FE9
:1070E0000948E43801680D4A01F4E0611143016088
:1070F000BFF34F8F00BFFDE7B821002046617461E8
:107100006C206572726F7200F0ED00E05379737459
:10711000656D207265736574000000000400FA0557
:107120000EB500210091CDE901106A4644F201003C
:10713000FFF7B8FF0EBD0000084B9B7823B12AB1C2
:1071400020B10068037C1BB10820704707207047FE
:10715000002303744174426118467047B42700202D
:1071600070B503F06BFB104800240B2104704470D1
:107170000E4D817014206C602C706C70FFF7AEFAAD
:1071800007211420FFF7CBFA1420FFF7B2FA0848C2
:10719000046007211120FFF7C2FA0548001F0068AC
:1071A000A860002070BD0000B4270020D02000207F
:1071B000081501402DE9FC47DFF8789099F8023076
:1071C00073B368B3052902D20720BDE8FC87436981
:1071D00033B3437C012B25D0002704460025884685
:1071E00016468DF80050684600F038F801A803F004
:1071F000CDFFC8B1012101700F4944600968C0E9A1
:107200000218C0E904769DF8040089F801009DF891
:10721000000000F047F81420FFF776FA2846D4E77C
:107220000820D2E70F46D8E704259DF8000000F0BB
:1072300039F8F3E7B427002004150140064989789E
:1072400039B130B1416921B100210174022103F04B
:10725000FFBC082070470000B427002030B5EFF3D2
:10726000108172B60D4A9468012324B1037000297D
:1072700000D162B630BD93604FF0E023D3F8805167
:10728000074C25401560C3F88041D3F88441546011
:107290005A17C3F8842100220270E8E7C0280020B2
:1072A000FC06FFBD0B498A68002A11D000280FD1C7
:1072B000EFF3108072B60B684FF0E022C2F8003195
:1072C0004B68C2F8043100228A60002800D162B6FF
:1072D00070470000C02800202DE9F04106460868EC
:1072E0000C46411C4FF0A0474FF0010506D005FAAF
:1072F00000F1C7F80815206801F002FD6068411C24
:1073000002D0002101F0EAFC3168A069C1F824052F
:10731000607D227D31681043C1F86C05D4E900120C
:107320003068C0F81425C0F80C15207D012815D14F
:10733000A068411C02D0002101F0D0FCE068411C93
:1073400005D08540C7F80855E06801F0D9FCD4E9BC
:1073500002123068C0F80825C0F81015BDE8F081A9
:107360002DE9F041064608680C46411C4FF0A04745
:107370004FF0010506D005FA00F1C7F8081520689E
:1073800001F0C8FC6068411C02D0002101F0AFFC94
:107390003168A069C1F82405607D217D3268084309
:1073A000C2F86C05D4E900123068C0F80C15C0F8BA
:1073B0001425207D012815D1A068411C02D0002190
:1073C00001F095FCE068411C05D08540C7F80855E0
:1073D000E06801F09FFCD4E902123068C0F808258B
:1073E000C0F81015BDE8F08170B540B10C4D29789A
:1073F00039B1044603F094F928B1002070BD0E2085
:1074000070BD082070BDE868062807D205492268CB
:1074100001EB8001401C0A60E860EEE7042070BDCB
:10742000782000201C23002040B1054900220123C0
:10743000CA600B70C1E90102104670470E20704708
:107440007820002070B504002DD000292BD02048D2
:107450000078002827D020880D46112815D0302824
:1074600004D0322807D033281ED109E0211D284638
:1074700002F0D8FF18E0211D284602F02FFE13E08D
:10748000211D284602F004FF0EE0A088B5F8CA12BC
:10749000884209D1002085F8C70285F8C8024FF656
:1074A000FF70A5F8CA0270BD95F8C8020028FAD08E
:1074B00020883028F7D34F28F5D8A088B5F8CA120D
:1074C0008842F0D12846BDE8704000F0EDBC0000D5
:1074D0007820002010B50146001D09881B2912D014
:1074E0001D290BD0262924D18BDF124912488ADFAF
:1074F00000281ED0BDE81040FFF712BEBDE81040C6
:10750000001D02F0A1BD0079012812D1094C241FF1
:107510006078052805D303F01FF9FFF77BFD0020F5
:1075200006E008B902F0F2FFFFF774FD6078401C36
:10753000607010BD40200020BCB1020010B51A4C94
:107540000188606810290ED011292BD1401E60607F
:1075500028D1FFF743FD002824D02168002921D03D
:10756000BDE810400847D0B900210122084600F0CC
:10757000B1F908B107280FD107220221012000F03C
:10758000A9F908B1072807D104220221002000F040
:10759000A1F920B1072802D0216801B188476068AD
:1075A000401C606010BD0000702000202DE9F04FED
:1075B0000746858802883D48012197B08346102AF6
:1075C00009D0112A49D01A2A6CD1387AB1EB101F90
:1075D00045D2012244E0354C083CA068C0430B90E2
:1075E00061680BA800F0FEFF0B990CA800F0E0FA10
:1075F0002C220CA96846FEF739FF0026E946A04672
:1076000010E000BF09EB46005FF00004B0F804A0F2
:1076100008EB84005146001D00F0B8FF641C1D2CCF
:10762000F6D3761C0098B042ECD8142D05D317B0D1
:107630000420BDE8F04FFFF773BD2946584600F01F
:10764000BBFF294608F1040000F0B6FFF87B0128D3
:1076500028D016482946001D15E029461AE00022C8
:107660000221B1EB101F01D2012600E000260F49D4
:10767000083901F11000041D294682B100F09CFF79
:1076800036B12946204617B0BDE8F04F00F094BF50
:107690002946204617B0BDE8F04F00F077BF00F054
:1076A00075FFF5E717B0BDE8F08F0000AC220020B1
:1076B00030B5134D040085B02DCD8DE82D001DD0C3
:1076C000E1B10868D0B100206080A080E0804FF672
:1076D000FF7020800868A06004F10C01684662DF3A
:1076E000002809D1207B8DF8120041F22350ADF81B
:1076F000100004A8FFF778FE05B030BD0E20FBE7B0
:1077000068B202000EB5002921D000281FD00288DF
:10771000112A25D0382A1BD0392A18D10A460988BF
:107720008388994213D14189938899420FD1C189A5
:1077300001290CD102218DF800101188ADF802103A
:10774000007C8DF8040093686946104698470EBD8A
:10775000098880888142FAD1BDE80E4003F0D6BA8C
:107760000A8880888242F2D14FF6FF70088000209C
:1077700048808880C8800EBD70B518B30288A2F515
:107780007F43FF3B1CD0104C104D236803EB83025A
:107790005B1C03F00703236005EB8202C38853815F
:1077A0000123D381141D14610024948102241472D6
:1077B000117100881080937003F0A8FA002070BD4A
:1077C000082070BD0E2070BD8820002034260020C7
:1077D0003EB50A78002A40D18A88A2F5A853233BF7
:1077E0003BD18A79037B9A4237D101228DF8002060
:1077F0004A88ADF80220002218E000BF02EBC20365
:1078000001EB430333F80E4F04F6DC24B4F50054C7
:1078100005D0012C09D11B89ADF8083005E01C8981
:10782000ADF806405B89ADF80430521C0B7A9342E8
:10783000E4D80188A1F57F42FF3A0BD0C18849B94D
:10784000818839B9418829B90199C0F80210BDF879
:107850000810C1808268694690473EBD2DE9FC4111
:107860000646C0074FF000050ED0104F002401223D
:10787000385D009500231146019501F0D5F9641C8F
:10788000042CF4D300F01CF8B0070DD5074E0024EB
:10789000361D0022305D032300951146019501F04D
:1078A000C3F9641C042CF4D3BDE8FC81CAB1020006
:1078B0000249085C012101F048BA0000CAB1020087
:1078C00010B500242046FFF7F3FF641C042CF9D305
:1078D00010BD000070B50023042810D20D4D00EB40
:1078E0004004012A02D101290CD00022094E00EBEC
:1078F0004000304461B1012906D0022906D0072397
:10790000184670BD0E30C2B22A55F9E74270F7E74B
:107910008270F5E7962200202DE9F8430546861C83
:1079200000208DF8000090460F464FF00109684690
:10793000FFF794FC1B4C20683860D4E90001401A22
:10794000A16804F21C47081A0EE00121384600F035
:1079500043FE00F0D5FC0146384600F03DFED4E978
:107960000001401AA168081A401C8642EDD8B8F1FF
:10797000000F03D0052065F3891002E0062065F3AF
:107980009F50A2682168114004EB8101C860206803
:10799000304420609DF80000FFF784FC4846BDE8B5
:1079A000F8830000782A002030B482680468531CF1
:1079B0008360A154D0E901128A4202D330BC00F0A6
:1079C000CCBF30BC70470000034803C8814201D1DE
:1079D0000120704700207047782A002010B50D283C
:1079E0000AD10848FFF7C8FE002809D0A0F5405189
:1079F000023905D0082803D0BDE81040FFF790BB3E
:107A000010BD0000C821002005494FF0FF320828B2
:107A100041F8202002D3084480F848207047000035
:107A2000E8260020F0B54FF0FF3512B100230826FC
:107A300001E008230C260C4C05E000BF54F823702D
:107A40007F1C04D05B1CB342F8D32846F0BD261837
:107A50005DB286F8305044F82310002AF5D1E118C1
:107A600081F84800F1E70000E826002002490844B8
:107A700090F9300070470000E826002008B5024663
:107A800090F8C6020B4600EB8001C1EB801002EBC0
:107A9000400092F8C52242B1521ED2B202EBC2019E
:107AA00000EB4102518A491C00E0C188ADF800108A
:107AB0000089ADF80200694618469DDF08BD000048
:107AC00070B5084C050009D010342168002907D092
:107AD00008682060496828468847F6E70834F4E7D4
:107AE00070BD0000D4260020054A012120B10128E4
:107AF00005D19170FFF7E4BF51700020FAE770479D
:107B0000D42600202DE9F05F26484168F1B3DFF864
:107B100098B00E688146DBF8004087688078E11BEA
:107B200021F07F45ED1CB0B9DFF880804FF4803044
:107B3000C8F84403C8F804031120FEF7CFFD112054
:107B4000FEF7D7FD4FF0010AC8F800A02F2001F082
:107B500077FF89F802A0B54200D23546124BE819EA
:107B60003C3320F07F401860DBF800105A46091BB8
:107B700021F07F41001B20F07F40C91C81420FD9BA
:107B8000106818602F2001F05BFF00E004E0BDE802
:107B9000F05F1120FEF7B8BDBDE8F05F02F04EBE09
:107BA000BDE8F09FD02000200415014000100140E6
:107BB00073B58CB00646002000900D9880B100246B
:107BC0006D4621460DA800F0ECFC30B1009805EBA5
:107BD000400084800098401C0090641C142CF0D35A
:107BE0002C2269463046FEF741FC0EB070BD000005
:107BF000F0B587B0074600200490ADF8101005904E
:107C0000ADF812100190029001AA04A9384690DF45
:107C1000060022D001F0BAFE114C0346012520884F
:107C20003A4605EB00400F4901F0B3FABDF80420D5
:107C300012B9BDF8060038B12088BDF8063005EB52
:107C4000004009A101F0A5FABDF808202AB120885A
:107C5000154905EB004001F095FA07B03046F0BD3C
:107C60008821002070B50200546865207265717526
:107C700065737465642054582F5258207061636B8B
:107C80006574206C656E67746820697320746F6F0B
:107C9000206C6F6E672062792025752F2575206F07
:107CA00063746574732E0000BCB502000146014880
:107CB000FFF78EBDC82100202DE9F843054690F856
:107CC000C6020F4600EB8001C1EB801005EB4006B9
:107CD00095F8C542914604EBC40006EB40013279A9
:107CE000601C0A31904226D16B460022284600F0E3
:107CF00059FA18B310E0401EA04201D1002004E060
:107D000004EBC40006EB40001C30804602466B4684
:107D1000284600F047FA30B10020387069464846DE
:107D20009EDFBDE8F88395F8C5024146401C641CFF
:107D300085F8C502E4B23079A042DCD80120387061
:107D40000020EEE72DE9F0470025DFF88C803CE0CD
:107D50006068002100EBC506012032789146FEF7ED
:107D600072FBD4E9062300EA020701EA030C57EA92
:107D70000C0728D082438B434846C4E9062301F010
:107D8000CFFE32788246914601200021FEF75BFB50
:107D9000D4E9042300EA020401EA03074A465046F4
:107DA0000021FEF750FB44404F403C430BD170781C
:107DB000012801D0012100E00021726881EA0A0156
:107DC0000AB1484690476D1CEDB298F80000444651
:107DD0008542BDD3BDE8F087B02000202DE9F047F3
:107DE000894690F8C612904601EB8102C2EB8111E0
:107DF00000EB4107384602F093FC06002FD0194CE7
:107E0000A06806282BD2184D762205EBC010394603
:107E1000A0F80280001DFEF729FB0027B9F1000F32
:107E200004D0A06805EBC010077004E0A168022030
:107E300005EBC1110870A06805EBC011401CCE67AE
:107E4000A060E16888420AD1002604E005EBC61074
:107E5000C16F8847761CE0688642F7D3A760BDE80B
:107E6000F0870000782000203423002070B50E46F3
:107E700090F8C612154601EB8102C2EB8111A0B049
:107E800000EB410002F04CFC040009D07C220549C3
:107E90006846FEF7EBFAADF8025068460196A04737
:107EA00020B070BDD4B1020070B50E4604464FF448
:107EB0003371FEF7F4FA11480025A4F8CA62856010
:107EC00084F8C9520E4884F8C65284F8C552006836
:107ED00020602246012130469BDF0121112806D077
:107EE000002809D184F8C71284F8C85203E084F846
:107EF000C71284F8C812002070BD0000782000204E
:107F00001C23002010B50021024800F076FB80F30E
:107F1000100010BD942E00200E4910B50A784C7840
:107F20000023A24212D0521CD2B20A70022A00D1FF
:107F30000B70084A0B780C3252F8232002608868D4
:107F4000104420F07F408860012010BD03600020B5
:107F500010BD0000D020002030B50446006887B076
:107F60000D46806800281FD018216846FEF797FA52
:107F70000195A0680590207910B1012810D107E083
:107F800001208DF8000020690290E068039005E070
:107F900002208DF80000E068000302906069049000
:107FA000206881686846884707B030BD2DE9F041F8
:107FB0008046024601200021FEF745FA1A4F054689
:107FC0000E467868FFF73AF900280CD1174CD4E92F
:107FD000062110462A4001EA06031A4305D0A843A9
:107FE000B143C4E90601BDE8F081404601F098FDC7
:107FF00030B1D4E9040128433143C4E9040105E068
:10800000D4E90410A943B043C4E90410D4E906013B
:1080100028433143C4E90601A1687868BDE8F0410E
:108020000022FFF7C7B8000084B20200B020002091
:108030002DE9FC5F0E008346DDE90C47C6F1000028
:1080400098469246814600D40846012503E000BFC9
:1080500090FBFAF06D1C5045FADAA84500D9454668
:1080600024B1002E01DB780700D5641EB80702D5C5
:10807000B8F1000F0AD0F80708D13CB1A54205D2EB
:1080800020215846641EFFF78FFCF6E7002E02DA27
:108090004E462D2102E0780703D52B215846FFF7E5
:1080A00083FC07F0030002280BD1B8F1000F08D1C0
:1080B0003CB1A54205D230215846641EFFF774FC3E
:1080C000F6E7CDE90047434652463146584602F0AE
:1080D000CBFFBDE8FC9F000070B50D46044600686C
:1080E0004FF4887101F072FC4FF49071206801F038
:1080F0006DFC4FF49271206801F068FC4FF4A2719E
:10810000206801F063FC20681249C0F8041320685D
:108110006907000B40B2090E002806DA00F00F00D4
:1081200000F1E02080F8141D03E000F1E02080F869
:10813000001420680121000B40B200F01F029140A2
:108140004009800000F1E020C0F88012C0F8001162
:1081500070BD000010030200024600201268930761
:1081600002D0530702D47047500714D502F0030021
:10817000012802D002280CD105E0C2F383100B685D
:10818000801C184404E00223086803EB9252104458
:10819000086001207047086800EB9253C2F3891011
:1081A000401CEEE710B509892AB1D088491C8142EC
:1081B00018D1002010BD90F8C62202EB8204C4EB57
:1081C000821200EB420212899142F2D0491C1980BE
:1081D00090F8C61201EB8102C2EB811100EB410065
:1081E000008902E01980D088401E5880012010BD0F
:1081F00070471721018041800021017141711B21CD
:108200008171C171704700002DE9F047394E002798
:1082100080463D46DFF8E090D6F804A057E003D052
:108220000446D0F81C8035E099F8002002EB4201AA
:10823000521CD2B289F8002009EBC10199F8023032
:10824000091D9A4201D189F8005048680A7804460D
:10825000012A12D0022A02D0032A3BD108E002F000
:10826000C7FC00B10127257434E00574C06900E043
:1082700070680028F9D170602CE0207C50BB8868C1
:108280006060C868A0600869E0604869A061F07833
:1082900000B165606268B168184B501A20F07F40E9
:1082A000984202D2A168084406E0881AA16820F02A
:1082B0007F40814202D9081A206000E02560656095
:1082C0000120A56020742046E56102F073FCB8F13E
:1082D0000000A4D199F8001099F801008142A3D1BF
:1082E00017B97168514502D00120BDE8F087002020
:1082F000FBE70000D0200020B4270020FFFF7F0014
:108300002DE9FF410026234800F063F92148001FB2
:10831000074600F05EF9204C60680090A56800E018
:1083200000986946284004EB80000C30FFF714FFEA
:108330000028F5D101AA009901EA050304EB8303A3
:10834000491CDB6842F82030401C00910228F2D31F
:10835000019800F0030001280BD0022810D10198E9
:10836000032101EB90500099BDF80A6001EB9000E9
:1083700005E00198BDF80A60C0F38310084400903E
:10838000384600F023F908B10098606004B0304628
:10839000BDE8F081902E0020782A002008B54FF427
:1083A0000041002000F054FF08B1FEF7B9FE00F0D4
:1083B000C7FDFEF7D5FE08B1FEF7B2FE0120FFF7BC
:1083C0004DFA40F2666201212F48FEF72FFE08B1F8
:1083D000FEF7A6FE01F05AF808B1FEF7A1FE01F083
:1083E00005FA08B1FEF79CFE0024694601200094BE
:1083F00001F08CF808B1FEF793FE684601F008F929
:1084000008B1FEF78DFE204D04220C3D0120297895
:1084100077DF04222978012077DF00211B4800F054
:1084200061F908B1FEF77CFE1948FEF7FDFF08B1BF
:10843000FEF776FE17480090144869461038FFF79B
:1084400037F908B1FEF76CFE104A002014326FF0C5
:108450007F0300BFC0EBC0011144401C0C608C8046
:108460008B710428F6DB02F051F80B4803210088D9
:1084700001EB004009A100F081FEFEF7CBFD00BF3B
:1084800001F018F8FCE7000048200020D821002067
:10849000AD7C0200F1810200B8210020446F6767C3
:1084A00079205472617820426561636F6E20537445
:1084B00061727465642E00002DE9F047C788044698
:1084C000181D16468946B0FBF7F1B0FBF7F207FB23
:1084D00012009A193A44D21CB2FBF7F2DDF820A040
:1084E00001E02468491E0029FBD13D1A8846B542A7
:1084F00016D818E0BAF1000F05D0211809EB0800D2
:108500002A46091D04E0204409EB08012A46001D03
:10851000FDF7ACFF00202468761BA844B74201D9C0
:10852000354600E03D46002EE4D1BDE8F08700006E
:1085300030B5024659B100F0B7FE0021074C09E002
:1085400004EB810315685B88AB4202D11160002007
:1085500030BD491C8142F3D3052030BD8421002069
:1085600010B50A8849888A4203D1FDF795FE01209B
:1085700010BD002010BD70B50C460546FDF76FFE1E
:10858000002802D061882868084470BD01F01F03EC
:1085900001229A40D243490900EB8100114600F0C4
:1085A00021B84A0950F8220001F01F020121914030
:1085B000084000D00120704701F01F0301229A40BB
:1085C000490900EB8100114600F01CB8002100F0C1
:1085D0000FB8012100F016B808B56A46FDF7B1FEE4
:1085E000009808BD08B56A46FDF791FE009808BDE1
:1085F00008B56A46FDF78BFE08BD08B56A46FDF76B
:108600006DFE08BD08B56A46FDF774FE009808BD0A
:1086100008B56A46FDF7A2FE009808BD38B50446C5
:1086200000258DF800506846FEF718FE2168626844
:10863000086890420ED9401E08600178A38AE2685B
:1086400001FB0325227A2168101AC0B20A798242FE
:1086500000D208719DF80000FEF724FE284638BDC0
:1086600038B5054600208DF800000C466846FEF738
:10867000F5FDE868A98A201AB0FBF1F12A681068B4
:10868000431C136001709DF80000FEF70BFE38BD1F
:1086900010B530B1017A42680368891AC9B21A600C
:1086A00006E00E2010BD03681A68541C1C6011708F
:1086B000491EC9B2F7D2006800210171084610BDF9
:1086C000C20800F007030120895C98400840704709
:1086D00010B5C20800F00703885C01249C402043C9
:1086E000885410BD10B560B10161172120F8021B3C
:1086F00020F8021B1B2100F8021BFFF77AFD002067
:1087000010BD0E2010BD0000F0B5858893B00C465A
:10871000002D39D1018800263E4F24293BD006DCAC
:10872000102909D011290CD0232958D14FE03A291A
:108730000BD0552953D129E00146204601F058FDC0
:108740004DE0A01DFFF755FD49E02246408934F871
:10875000061F814200D808466080172800D21720E3
:108760006080106970B1607960B1D7E90001CDE92E
:108770000301ADF80E506088ADF81000136903A92D
:10878000104698476671267113B0F0BD0146204629
:1087900001F0F6FD23E0011D2C2206A8FDF766FE80
:1087A000BDF81800BDF81C2004EBC0014A73226913
:1087B000AAB1D7E90423CDE90423ADF81200487B20
:1087C0008DF814002269204604A9904707E0017A39
:1087D000207B884200D201462846FFF709FAA07A9A
:1087E0000028D1D0E1882846A5DF012570B11128E5
:1087F000CAD001F0CBF80246074808A1008813B0A0
:1088000005EB0040BDE8F04000F0BCBCA672E5728C
:10881000BAE7000050B202008821002073645F6252
:108820006C655F67617474635F65786368616E67C8
:10883000655F6D74755F7265717565737428292045
:1088400072657475726E65642025732E00000000D9
:1088500000F180400068002800D00120704708B572
:1088600000F18040002101600068009008BD000018
:1088700070B50B4C207808B185250FE00020A06072
:1088800060602061E060074801F0BCF8054601F037
:1088900007F808B901F0A0F801202070284670BD43
:1088A000D4260020E97A020038B500258DF8005062
:1088B0006846FEF7D3FC074CE068401EE060E068C5
:1088C00010B901F0AFF8A5709DF80000FEF7EAFCC2
:1088D00038BD0000D4260020F0B5054604781548C0
:1088E00089B0164640F82420124A0869121DA2F1E8
:1088F000080742F82400487F385520226846FDF7D3
:10890000B5FD04942878385C48B10EB10A4A00E0FD
:1089100000226946281D01F0B3FA09B0F0BD0EB17E
:10892000064A00E00022694605F10C0001F07AF9E0
:10893000F3E700009420002045AF020091AD020053
:108940000FB408B50399002904D004AA00926A461E
:1089500000F00FF801B05DF814FB10B58268044612
:10896000002A05D0D4E90403216898470020A060BC
:1089700010BD2DE9FC4791460C00804676D014F8D6
:10898000011B39B125290ED04046FFF70DF820789C
:108990000028F4D198F80C00002867D04046BDE8C4
:1089A000FC47FFF7DABF0020012221782B291BD0DA
:1089B0002D2902D0302908D102E040F0010001E069
:1089C00040F00200641C002AEFD100252A290ED0B5
:1089D0002178A1F130020A2A11D205EB850201EBC0
:1089E0004205641C303DF1E740F00400EAE7D9F8A5
:1089F00000100B1DC9F800300968641C0D44217873
:108A000000232E290BD114F8011FA1F130020A2AEC
:108A100005D203EB830201EB4203303BF3E76C2901
:108A20000DD068290BD0692921D00BDC252918D05D
:108A3000582931D063290ED0642915D117E014F8D4
:108A4000011FECE7702969D0732932D075291BD03A
:108A5000782909D120E0D9F80000011DC9F80010DB
:108A600001784046FEF7A0FF641C90E76CE0D9F85F
:108A700000100A1DC9F800200968CDE900500A223B
:108A80004046FFF7D5FAEFE7D9F800100A1DC9F8FC
:108A9000002009680A2206E0D9F800100A1DC9F86A
:108AA000002009681022CDE90050404602F0DCFAAF
:108AB000DAE7D9F8001000270A1DC9F800200E686F
:108AC000C00705D112E04046761C7F1CFEF76CFF04
:108AD00031780029F7D104E0202140466D1EFEF7D1
:108AE00063FFBD42C0D9002DF6D1BDE74EB130467F
:108AF000FDF7E0FC074604E0202140466D1EFEF72E
:108B000053FFBD4206D9002DF6D103E04046761C46
:108B1000FEF74AFF31780029F8D1A5E7D9F800001F
:108B2000011DC9F80010056830214046FEF73CFFE2
:108B300078214046FEF738FF08200021CDE90001EA
:108B4000034610222946B0E7BDE8FC87044801210E
:108B50004174007A08B1002070470120704700007E
:108B600058290020012801D0032808D104490022F7
:108B700001284A7400D00020087401F081BD7047BC
:108B80005829002070B50246022801D0032A45D199
:108B9000234C207A002841D0012833D0022831D13B
:108BA00020480023022A006802D0032A2AD11BE0B1
:108BB000E360017911B1012924D10DE0D0E9056507
:108BC000711B4FF48056B14200D331462944816174
:108BD0004569A9420ED015E00169491C016142694D
:108BE00091420FD1237213E0E168491CE16008292A
:108BF00008D9E3602372022A0AD00D21FFF7ACF9ED
:108C000001F034FD607C28B1BDE8704000F04EBE3C
:108C10000021F3E7BDE8704001F032BD70BD0000F7
:108C200058290020F820002070B541EA4201DDE912
:108C300004564FF0A04441EA830141EA052104EBC8
:108C4000800041EA0641C0F8001770BD70B541EAE6
:108C50004201DDE904564FF0A04441EA830141EAB4
:108C6000052104EB800041EA0641C0F8001770BD01
:108C700070B541EA4201DDE904564FF0A04441EAF3
:108C8000830141EA052104EB800041EA0641C0F876
:108C9000001770BD70B541EA4201DDE904564FF09E
:108CA000A04441EA830141EA052104EB800041EA46
:108CB0000641C0F8001770BD1CB5002100910B469D
:108CC00001220191FFF7D4FF1CBD1CB500210091CA
:108CD0000B4601220191FFF7DDFF1CBD1CB50022F0
:108CE0000B46009211460192FFF7C2FF1CBD1CB556
:108CF00000220B46009211460192FFF7CBFF1CBDEC
:108D00001CB5002100910B46012201911146FFF78D
:108D1000AFFF1CBD1CB5002100910B460122019143
:108D20001146FFF7B7FF1CBD4FF0A04202EB8000D9
:108D3000D0F8002722F44032C0F80027D0F80027EE
:108D400042EA0141C0F80017704701224FF0A043EA
:108D5000824011B1C3F808257047C3F80C2570474D
:108D600018B5084B6C4601441B68009306E000BF31
:108D700054F82030D3F81035401C08C28142F7D88F
:108D800018BD000078B20200034908B5084400216C
:108D900001600068009008BD006000400249405832
:108DA000012800D0002070470060004030B5124B11
:108DB00001460020D3F81044224609E0157A854286
:108DC00005D1401C0A28F7DB4FF0FF3030BD526858
:108DD000002AF3D1421CF9D00872D3F810242AB12A
:108DE00052684A60D3F81024516030BD0022C3F8A5
:108DF00010144A6030BD0000782A0020F0B595B00C
:108E00001C4615460F4608461A9E00F01DFB182109
:108E100009A8FDF744FB0E96CDE90954002308226A
:108E200003A9384600F025FB05980690BDF8100010
:108E3000ADF81C00BDF81200ADF81E0000208DF842
:108E400021000398082600F00300012802D0022820
:108E500018D032E003983346850AC0F3C2008DF87B
:108E6000200003980FA9C0F38314A200384600F035
:108E700000FB09A8009006AB22460FA9284600F087
:108E80003FFA1AE00398840DC0F3C2008DF8200069
:108E9000082C01D2254600E0082533462A460FA9B2
:108EA000384600F0E6FA2E44641B09AB06AA2946B0
:108EB0000FA800F077F9002CEAD1384600F0CAFA82
:108EC00015B0F0BD7047012001F080BF084810B513
:108ED0000178084A515C19B1001D01F05DF802E00B
:108EE0000C3000F06BFFBDE81040002001F06EBFB9
:108EF0000C2100209020002008B5034A0092402356
:108F0000024AFFF77BFF08BDC9A9020078290020AB
:108F10000A4A012902EBC00007D0022907D0032921
:108F200007D0042907D00020704702207047042092
:108F3000704700797047407970470000C8BC020054
:108F400010B5FFF7C0FF04210348FFF72FFF0249C8
:108F50000120487210BD0000202100202DE9F04FB3
:108F60008DB0FEF731FD18B100200DB0BDE8F08FD7
:108F70007A4C4FF0000BC4F818B4BFF34F8F606801
:108F80000290A568D846284004EB800008E02168DC
:108F90000298814201D86160E6E7284004EB800036
:108FA0000C3002A9FFF7D8F80028F0D105AA0299E1
:108FB00001EA050304EB8303491CDB6842F8203017
:108FC000401C02910228F2D3059800F00300022809
:108FD00002D001284ED0A9E005985022810D894683
:108FE000B2EB905F00D850210E4666F39F5005907B
:108FF00008315B4800F0DFF9070079D000F024FA6F
:109000004346082205A9384600F039FA029908F1CA
:10901000080A2940681A8000001D864223D94F4D56
:109020000C3530B1C2B204EB8101301A90460C31DC
:1090300004E02946F2B2002590462846C6B25346BF
:10904000384600F01CFA0AEB08032DB132462946D7
:109050004FEA070000F013FA029909F1030001EB4F
:10906000900002903BE004EB8101534632463846C3
:109070000C31EFE70598C0F38310062800D30620D3
:10908000059960F38911C1F38310801C059181005B
:10909000334800F090F9070048D000F0D5F9434676
:1090A000082205A9384600F0EAF908F10808002668
:1090B0000FE00298434600EA0501401C04EB8101E1
:1090C0000290042238460C3100F0D9F908F1040866
:1090D000761C0598C0F38310B042EAD847B1D4F8A3
:1090E0001054D4F8180468B1384600F0B3F92FE0F2
:1090F0001CE0687A012804D12A682846394612689B
:1091000090476D68002DF4D1384600F0A3F98DF832
:1091100000B06846FEF7A2F8D4F8180408B902981F
:1091200060609DF80000FEF7BDF811E0D4F810442F
:1091300004E021682046896888476468002CF8D1DB
:1091400008480221008801EB004007A100F016F852
:10915000FEF73AFC80F0010007E70000782A0020C3
:1091600050BD0200B82100204261636B656E6473DC
:1091700020666C75736865640000000000231A4661
:1091800001F092BC08B5012300926A4601F08CFC04
:1091900008BD1CB5CDE9002302236A4601F084FC1A
:1091A0001CBD00002DE9F0470E4680461C46924645
:1091B00008293ED894F80C900020207319461046D8
:1091C00001F0FCF90025B54206D218F805201AA1D5
:1091D0002046FFF7B5FB03E019A12046FFF7B0FBDF
:1091E0006D1C082DEFD317A12046FFF7A9FB002522
:1091F000B54210D218F80570FDF734F90068C05D6B
:1092000010F03E0F01D03A4600E02E220EA120467B
:10921000FFF796FB03E00DA12046FFF791FB6D1CC5
:10922000082DE5D301222146504601F0A9F984F822
:109230000C90BDE8F0870000202530327800000057
:10924000202020007C00000025630000200000009A
:10925000104810B5FF218160002101604160C0F815
:109260001814C0F8141480F820140B4800F0F0F81B
:1092700000280DD109480A490A4B401AC1080020AC
:1092800003E000BF23F82000401C8842FAD30020EE
:1092900010BD0000782A002050BD020050BD020021
:1092A000C8BC02008421002002480349401AC008BB
:1092B0007047000050BD0200C8BC020013B56846EC
:1092C000FFF736F908B100201CBD0248009950F89C
:1092D00031001CBDC8BC020070B508480125D0F89B
:1092E000104480F8205405E06572216820464968E2
:1092F00088476468002CF7D170BD0000782A0020F0
:109300002DE9FF4781460C9D00200C462F7B2873DA
:10931000984616462946184601F050F9072E42D2C3
:10932000DFE806F004090F161F2A360049462846D2
:10933000FFF706FB37E0494628462268FFF700FBA7
:1093400031E0D4E9002349462846FFF7F9FA2AE03C
:10935000A0680090D4E9002349462846FFF7F0FAB8
:1093600021E0D4E90201CDE90001D4E90023494616
:109370002846FFF7E5FA16E004F1080007C88DE873
:109380000700D4E9002349462846FFF7D9FA0AE046
:1093900004F108000FC88DE80F00D4E90023494606
:1093A0002846FFF7CDFA00222946404601F0E8F8AA
:1093B0002F73BDE8FF872DE9F041858A80462D1F78
:1093C0004819C01CB0FBF5F0C6B24046FFF726F9BD
:1093D000041E19D00020207101206071E580002753
:1093E0002546761EC4F800800BE04046FFF716F9CC
:1093F00060B16179491C6171286005467F1CC0F825
:109400000080B742F1D32046BDE8F081204600F04D
:1094100002F80020F8E72DE9F041457901466B1E7E
:10942000002201E00968521C9A42FBD30F680146F2
:10943000002605E038460C68FFF712F92146761C35
:10944000AE42F7D3BDE8F0810121001DFFF7C4B89B
:10945000FFF71EB910B504460121001DFFF7D8F82B
:1094600010F0FF0F04D12046BDE81040FFF7D3BF36
:1094700010BD38B501240094FFF71EF838BD38B58B
:1094800000240094FFF718F838BD0000064910B515
:1094900000204870091D0860BFF35F8F034904482E
:1094A00000F030FA002010BD00210020D0B20200F0
:1094B0006C29002008B500208DF800006846FDF7F3
:1094C000CDFEF1EE100A20F09F00E1EE100ABFF38E
:1094D0005F8F08494020C1F880029DF80000FDF729
:1094E000E1FE00F0DDF908B141DF08BD20BF40BF5B
:1094F00020BF08BD04E000E020B103490968016015
:10950000002070470E207047BCB40200FEB5024632
:109510000E460846FFF7F0FF00286CD100240094A7
:109520000194012506208DF80020ADF80400029476
:109530008DF8025069462020326869DF2E4F48B10D
:1095400000F024FA3988024605EB01432B491846FE
:10955000FFF718FE00948DF801408DF80250019439
:1095600002948DF8035069464020326869DF40B1AB
:1095700000F00CFA02463888214905EB0040FFF75D
:1095800001FE00940A208DF80000019402946946BF
:109590000120326869DF40B100F0F8F902463888EE
:1095A000184905EB0040FFF7EDFDF820009001940D
:1095B00002946946A120326869DF40B100F0E6F903
:1095C00002463888104905EB0040FFF7DBFD0094A8
:1095D000019402948DF800406946A020326869DF4A
:1095E00040B100F0D3F902463888084905EB004045
:1095F000FFF7C8FD0020FEBDC02100205CBB0200BB
:10960000A4BB0200BCBA020008BB020068BA020098
:109610002DE9F0410446D0F8008060DF2168194D43
:10962000074641451CD92888022606EB004016A1B2
:10963000FFF7A4FD2888424606EB00401EA12368E0
:10964000FFF7A7FDF006D0F80C012168800200F1B9
:109650000050421A288825A106EB0040FFF792FD32
:10966000012467B1384600F091F9024628882AA102
:1096700004EB0040FFF786FD3846BDE8F0812E4838
:109680000470F9E7C0210020496E7375666669634E
:1096900069656E742052414D20616C6C6F6361741A
:1096A000656420666F722074686520536F66744429
:1096B00065766963652E00004368616E6765207496
:1096C00068652052414D207374617274206C6F6321
:1096D0006174696F6E2066726F6D20307825782016
:1096E000746F20307825782E000000004D61786975
:1096F0006D756D2052414D2073697A6520666F72D9
:10970000206170706C69636174696F6E2069732089
:10971000307825782E00000073645F626C655F65A9
:109720006E61626C6528292072657475726E65645D
:109730002025732E000000007F21002030B5144842
:1097400091B00078002820D05FF03405ADF840508B
:1097500010A903A861DF30B1052816D011B0BDE80B
:109760003040FDF7DDBC03AC0A49684600F0CAF89A
:1097700007E000BFD0E9002120469047684600F08E
:10978000D8F802980028E1D0F4E711B030BD00000D
:109790007F210020C0B40200F8B5134C2078C0B17E
:1097A0000120A07001F0E2F8112814D0022001F08D
:1097B000F5F800258DF800506846FDF74FFD11DFE4
:1097C000064625709DF80000FDF76CFD2EB1304671
:1097D000F8BD0820F8BD0020F8BDA57001F020F903
:1097E000032001F0DBF8F6E77C2100207CB5204C5B
:1097F000207808B108207CBD0120A070002001F075
:10980000B5F8112819D0002001F0C8F81948002631
:10981000006801908DF800606846FDF71FFD16494D
:1098200001A810DF05000AD0002020709DF800007C
:10983000FDF738FD2DB128467CBD00207CBD012000
:10984000F3E7A67066700721162001F045F808B10D
:10985000FDF766FC0721152001F03EF808B1FDF781
:109860005FFC01F0F9F8012001F098F8E5E700004D
:109870007C21002054B40200A57002000EB50749F7
:10988000684600F03FF805E0D0E9001088476846D8
:1098900000F04FF802980028F6D10EBD70B4020017
:1098A00001480078704700007C210020054881783D
:1098B00019B1007818B1FFF76FBF08207047FFF7A4
:1098C00095BF00007C2100201FB568464BDF30B1FA
:1098D000052814D004B0BDE81040FDF721BC0849AC
:1098E00001A800F00FF806E0D0E9002100989047A9
:1098F00001A800F01EF803980028E6D0F4E71FBD89
:10990000DCB40200016009684160AFF3008010B56B
:10991000D0E900215368994201D1002104E0D1E946
:109920000034A34202D01946816010BD0831416065
:10993000F0E7816800290BD0026892680A448260CF
:1099400041684B689A4203D108314160FFF7DFBF9D
:10995000704700000C4A10B502F594730EE0991A96
:10996000C91001EBD171491002EBC1010C688442AE
:1099700001D90B4602E005D201F108029A42EED36A
:10998000002010BD486810BDF0B2020000B5FFF71E
:10999000E1FF002800D1014800BD0000DCB2020058
:1099A0004058002800D00120704708B500224250DE
:1099B0004058009008BDD0F80403084000D00120B2
:1099C00070474058002800D00120704708B5002299
:1099D00042504058009008BD08480068012110F02E
:1099E000010F08D14FF0E020E02280F80024C0F8F9
:1099F0008012C0F8001102480160704700E100E0E9
:109A0000180500400649024600200B790BB185205D
:109A100070470A6001220A7100224A7170470000F3
:109A20009C20002004490120086004480168C1F31B
:109A300000410029FAD170470C0000401804004092
:109A4000002802D0014980010847704791B2020006
:109A50002DE9FC41DFF8BC80044608EB0400002738
:109A600090F930001346C0170E46401C01D008275D
:109A70004CE0B0781946C0F340022046FDF7D2FF13
:109A80000546401C41D0B078410719D4C0070AD020
:109A90004FF0A04000EB8401D1F8000720F0020055
:109AA000C1F8000707E000217378204600910A46BC
:109AB0000191FFF7CBF8174920465431FEF708FE15
:109AC000B078800718D51448317800EB8500D0F8BD
:109AD0001025124B1A40C0F810254FF4F8524FF4DD
:109AE000403302EA042203EA01410A43D0F8101588
:109AF0000A43C0F8102509E008EB0500327810F899
:109B0000481F41EA8211017000E004273846BDE891
:109B1000FC810000E826002000600040FFE0FCFF20
:109B20004FF0A041D1F81015C14011F0010000D054
:109B30000120704770B5184D95F8580008B10820FD
:109B400070BD0020411E2A18401CC0B282F830109F
:109B50002028F8D300242046FDF756FF641CE4B209
:109B60000C2CF8D300240D49E0206C6581F800042A
:109B700001264020891FC1F88002C1F800014FF47E
:109B8000BE70FFF701F90649F007C1F8040385F834
:109B90005860204670BD0000E826002006E000E086
:109BA00000600040034890F85800002800D00120D1
:109BB00070470000E82600200121B1EB507F01D161
:109BC000012070470020704738B50D4600F042FD77
:109BD000040014D000208DF800006846FDF73EFB1D
:109BE000207928B19DF80000FDF75CFB112038BDFD
:109BF0000120256020719DF80000FDF753FB002037
:109C000038BD10B500F026FD002802D0002101600B
:109C1000017110BD0149024801F000B9442700203C
:109C2000002000402DE9F0410546007916460F4618
:109C300000EB40012D4A01EBC00102EB810494F8D6
:109C40002A1011B10820BDE8F081294951F82010EF
:109C50002868FFF7B9FF08B11120F4E73946284614
:109C6000FDF73AFB66603869206030004FF001066E
:109C70002FD03F7F4FF48E712868FFF796FE4FF488
:109C8000A2712868FFF791FE28681A49C0F80413EA
:109C900028684FEA4711000B40B2002806DA00F0AE
:109CA0000F0000F1E02080F8141D03E000F1E02037
:109CB00080F800142868000B40B200F01F0206FA7A
:109CC00002F14009800000F1E020C0F88012C0F8E5
:109CD000001128680421C0F800150020A061E0618F
:109CE00084F8290044F8140FA675ACE74427002037
:109CF0007CB20200800002002DE9F04705460079A1
:109D00000B4600EB400101EBC000234901EB80044E
:109D1000284600F043F810B11120BDE8F0874FF05D
:109D20000008C4F82080A360626184F828804FF4A2
:109D30008E76474631462868FFF737FE28684FF091
:109D40000109C0F808902146286801F003F860680E
:109D500000BBD5F800A00EE094F8280008B10F274A
:109D600016E031465046FFF71BFE0028F4D021468E
:109D7000504600F0EFFF216A60698142F1D331461D
:109D80002868FFF70DFE0028F9D02868C0F80C906D
:109D9000C4F814803846C0E744270020007900EB5F
:109DA000400101EBC000044901EB8000406900283C
:109DB00000D0012070470000442700202DE9F04723
:109DC000044600794FF0000900EB400101EBC000B0
:109DD000254901EB80072068C0F80095786880B1BC
:109DE00020682249C0F8081320680121000B40B206
:109DF00000F01F0291404009800000F1E020C0F80F
:109E000080112068D0F80C25D0F81485D0F80865AA
:109E1000D0F810554FF0FF31C0F81415C0F80C15EC
:109E20002068C0F80815C0F81015501C02D0104664
:109E3000FEF742FFB8F1FF3F02D04046FEF73CFF7D
:109E4000681C02D02846FEF737FF701C02D030464F
:109E5000FEF732FF2068FFF7D4FE87F82A90C7F894
:109E60000490BDE8F087000044270020840202002F
:109E70000149024801F07EB8702700200020004010
:109E80002DE9F0410546164600790F46154A00EBCC
:109E9000C00102EB810494F8201011B10820BDE844
:109EA000F081114951F820102868FFF78DFE08B1A4
:109EB0001120F4E739462846FDF752FA6660386902
:109EC00020601EB1397F2846FEF706F92868082170
:109ED000C0F800150020A061E0610121606184F8F4
:109EE0002010DCE77027002080B202002DE9F04747
:109EF00004460E460079204900EBC00001EB8005C6
:109F000017463046FFF758FE30B1204600F036F8CD
:109F100020B11120BDE8F0871020FBE76F61AE6033
:109F20004FF49076002731462068FFF74FFD4FF43D
:109F3000AC7841462068FFF749FD2068AA68696946
:109F4000C0F84425C0F84815206801218160686880
:109F500078B9B14649462068FFF733FD06464146C9
:109F60002068FFF72EFD0643F4D000B10F27002034
:109F700068613846CEE70000702700200079054967
:109F800000EBC00001EB80004069002800D00120F8
:109F900070470000702700202DE9F0470446007943
:109FA000274900EBC00001EB800720684FF0000953
:109FB000C0F80095786880B120682249C0F808137D
:109FC00020680121000B40B200F01F0291404009BF
:109FD000800000F1E020C0F880112068D0F80C2546
:109FE000D0F81485D0F80865D0F810554FF0FF313F
:109FF000C0F80C15C0F814152068C0F80815C0F892
:10A000001015501C02D01046FEF75FFEB8F1FF3F5E
:10A0100002D04046FEF759FE681C02D02846FEF7E3
:10A0200054FE701C02D03046FEF74FFE2068FFF74A
:10A03000E8FD87F82090C7F80490BDE8F08700009D
:10A04000702700201003020030B50446D0F802103B
:10A05000A269D0F8060089B09278522A01D0542A19
:10A0600004D1A28B062A05D01F2A03D01249002052
:10A070008ADF1BE0C1F30722C1F30743C5B2039295
:10A08000090E0095CDE90113C0F30723C0F3074281
:10A090000AA104A8FCF72AFD94F9132054F8020F32
:10A0A000616801F03BF8044900208ADF002801D0F4
:10A0B000FDF736F809B030BD402000202530325879
:10A0C0003A253032583A253032583A253032583A0B
:10A0D000253032583A253032580000002DE9F84F2B
:10A0E00005460C460888B5F8CA12884259D195F839
:10A0F000C602DFF8F8A000EB8001C1EB801005EB91
:10A10000400160884FF003094FF00008F0BBE6887B
:10A110000879A21DF3B250FA86F6062E01D8034440
:10A1200000E006230B7100261CE000BF00EBC0031B
:10A1300006EB860702EB470701EB4303D7F802C0A3
:10A14000C3F80AC0D7F806C0C3F80EC07F895F8283
:10A15000A3F81480A3F81680A3F81880401CA3F875
:10A160001A80761C0B798342E0D895F8C62200EB62
:10A17000C00002EB8203C3EB821205EB420231F80E
:10A180001000128990420ED2087900E00BE00628F8
:10A1900009D085F8C50221882846FDF76FFC01002B
:10A1A0000AD1BDE8F88F85F8C5822288694628461D
:10A1B000FDF782FD01000BD085F8C7822288284672
:10A1C000FDF754FE8AF800902188AAF80210E8E70B
:10A1D0009DF800000028E4D0228801212846FDF7E0
:10A1E000FDFD2188284600F053F9DAE734230020EA
:10A1F00070B58D88027900EBC5042273C97BA41D5C
:10A20000012902D0022904D101E0008800E0408841
:10A2100020802188608881420FD92846A5DF012649
:10A22000A0B1112814D0FFF7B1FB02460A480BA1D8
:10A23000008806EB0040FEF7A5FFA179E079814296
:10A2400008D92846BDE87040FDF7D2BC6671F4E736
:10A250002671F2E770BD00008821002073645F6200
:10A260006C655F67617474635F65786368616E676E
:10A27000655F6D74755F72657175657374282920EB
:10A2800072657475726E65642025732E000000007F
:10A29000F8B505460C460888B5F8CA1288425DD163
:10A2A00095F8C602A61D00EB8001C1EB801005EBFE
:10A2B000400395F8C502618800EBC00003EB400045
:10A2C0000A3039B329E000BF01EB410206EB42023C
:10A2D0009788B7F5245F0CD06FF4245C17EB0C075C
:10A2E0000AD0012F02D0072F0BD108E052884281FB
:10A2F00007E05288828104E05288C28101E05288DE
:10A30000028242892AB182891AB1C2890AB1028ABB
:10A310001AB9491C32888A42D6D800268DF80060C6
:10A3200095F8C5021979401C884203D101208DF8A7
:10A33000000018E085F8C502228869462846FDF726
:10A34000BBFC01000BD085F8C76222882846FDF7C8
:10A350008DFD0A480321017021884180F8BD9DF8D8
:10A3600000000028FAD0228801212846FDF736FD9A
:10A370002188284600F08CF8F8BD00003423002026
:10A380007CB506468D88C88806EBC504A41D172831
:10A3900000D217202188814200D808466080002022
:10A3A000207121882846B5DF50B1FFF7EFFA024649
:10A3B0000E480121008801EB00400DA1FEF7E2FEEE
:10A3C0006079002810D1306900280DD01449D1E9F6
:10A3D0000201CDE90001ADF802506088ADF804003B
:10A3E00032696946304690477CBD000088210020D4
:10A3F00073645F626C655F67617474735F657863D3
:10A4000068616E67655F6D74755F7265706C7928E1
:10A41000292072657475726E65642025732E0000A4
:10A4200050B2020070B505460C4690F8C60222886C
:10A4300000EB8001C1EB801005EB4001B5F8CA02CA
:10A44000824222D1608848B100212846FDF7C6FC2F
:10A4500021882846BDE8704000F01AB8A2680A605A
:10A46000E068C1F8060021882846FDF707FB0100D7
:10A470000BD0002085F8C70222882846FDF7F6FC9D
:10A480000248032101702188418070BD34230020DF
:10A490002DE9F041044690F8C9020E46401C1949C6
:10A4A000C0B284F8C902C9680327174D4FF0000EE7
:10A4B000884224D284F8C5E294F8C602401CC0B297
:10A4C00000EB8001C1EB801104EB410284F8C6026D
:10A4D000A5F1180101EB800001210068106082F8ED
:10A4E00004E030469BDF010007D084F8C7E2324623
:10A4F0002046FDF7BBFC2F706E80BDE8F08184F82C
:10A50000C7E2F8E7782000203423002010B588B097
:10A5100020216846FBF7C3FF05248DF80040092081
:10A520008DF8010054208DF8020052208DF80300B0
:10A5300041208DF8040058208DF805000E480621B2
:10A54000C0F800D0818018210C48FBF7A8FF0B4809
:10A55000012102464175818104700021416001752D
:10A56000202181600449A1F1140072DF002801D08C
:10A57000FCF7D6FD08B010BD5020002008220020B6
:10A5800010B50C46017A052908D0407A38B1084840
:10A5900008A102682046FEF7D3F900E01AB106A12F
:10A5A0002046FEF7CDF92046BDE81040FEF7D5B9AC
:10A5B00058210020257300000D0A000038B5C3881B
:10A5C0000D46044633B114A0009015A216A12846EA
:10A5D000FEF7B6F9217A05291CD0607A48B1A08827
:10A5E000FEF796FC164951F8202016A12846FEF7E2
:10A5F000A7F9A0880021FEF761FE03461049207AE2
:10A60000143951F8202001B02846BDE830400EA191
:10A61000FEF796B938BD00001B5B306D00000000EE
:10A620001B5B313B33316D0025734C6F67732064C6
:10A63000726F70706564202825642925730D0A00E7
:10A6400058210020257300003C25733E2025733AD5
:10A65000200000000349884201D1034870470020D0
:10A660007047000000200040A42000200348024959
:10A670000068FDF775BF0000FC200020A8B20200B2
:10A680002DE9F041234C0025234E207A012730B9D3
:10A690002248311D0068FDF76EFF306038B102209E
:10A6A00020723168087928B101281ED116E0656052
:10A6B000BDE8F081D1E90503C01A4FF48052904201
:10A6C00000D31046B7EB900F01D2820800E00122C0
:10A6D0000869C9681844194429DF03E0D1E9030176
:10A6E000084428DF58B1112812D003213068FDF743
:10A6F00033FC25726560BDE8F041FFF7B7BF207CF1
:10A700000028D5D1BDE8F04100210220FEF73ABA79
:10A710002772CDE758290020F8200020A8B20200B7
:10A7200070B50C4B00210A4ADC680DE002EB810594
:10A730008678AD78B54206D132F821500688B54208
:10A7400001D1586870BD491CA142EFD3002070BDF3
:10A750001C2300207820002000B589B02021684605
:10A76000FBF79DFE1E208DF8000023208DF80100D0
:10A7700052208DF802002F481F2250F8241FCDF8D8
:10A7800003108188ADF8071081798DF80910D0F891
:10A790000710CDF80A10B0F80B10ADF80E10417B81
:10A7A0008DF81010D0F80E10CDF81110418AADF8C8
:10A7B0001510017D8DF81710D0F815100691B0F81E
:10A7C0001910ADF81C10C07E8DF81E00194869469E
:10A7D0005830FBF74BFE17491748583101601F21CD
:10A7E0008180144818217830FBF759FE1148012167
:10A7F0007830024641756421818105210170002174
:10A8000041600175202181600B49A1F1240072DFB4
:10A8100008B1FCF785FC074900206FF07F02243166
:10A82000C0EBC0030B44401C9A710428F8DB09B04C
:10A8300000BD0000C82100206020002070B5012666
:10A8400070044FF0E0210025C1F88001084C401051
:10A85000C4F84803C4F8080366602F20FFF7F0F837
:10A86000A660044C2F20A560FFF7EAF8A57070BD24
:10A8700000100140D020002070B5054688690C46C4
:10A8800000284FF4847128460AD0FFF78EF8D5F8D7
:10A890001805626AE1688854606A401C606270BD95
:10A8A000FFF783F8D5F8180570BD1FB501238DF8A3
:10A8B0000030CDE90121D0E90012684690471FBD64
:10A8C0001FB501238DF800308DF808100192D0E9F2
:10A8D0000012684690471FBD70B50D460446FCF750
:10A8E00029F970B12846FCF737F968B16807000EFE
:10A8F000002C0CDA04F00F0101F1E02181F8140DB5
:10A9000009E042F2010070BD42F2020070BD04F1A4
:10A91000E02484F80004002070BD000038B5002158
:10A92000012548B101280CD0032809D1FFF754F8BC
:10A93000BDE83840FDF7B8BF4FF0E020C0F88051C7
:10A9400038BD8DF800106846FCF788FC064C20786E
:10A9500008B9FDF78DFFE068401CE060A5709DF828
:10A960000000FCF79FFC38BDD42600203EB504460D
:10A9700009496846FEF7C6FF08E000BFD0E900219C
:10A980002046904730B16846FEF7D3FF0298002872
:10A99000F4D13EBD11203EBD58B402003EB5044680
:10A9A00008496846FEF7AEFF07E000BFD0E9002186
:10A9B000204690476846FEF7BCFF02980028F5D174
:10A9C0003EBD000064B4020070B50D4C0020D2B250
:10A9D0002070201D0B4D0378EB5C1BB1001DFFF7B1
:10A9E00085FA02E00C30FFF787F908B1FCF798FB15
:10A9F0006078002802D021780029FAD070BD0000CC
:10AA00000821002090200020002805D103490120C2
:10AA100048700020FDF754B870470000D42600208D
:10AA200010B51620FCF786F848B10A4882684FF442
:10AA3000800152B1016821F48001016010BDBDE8C0
:10AA4000104042F20100FCF76BBB4FF0E020C0F871
:10AA5000801110BDC028002010B51620FCF76AF840
:10AA600080B10F4890F800044009FCF775F860B118
:10AA70000C4882684FF480016AB1016841F480019A
:10AA8000016010BD42F2010001E042F20200BDE8A7
:10AA90001040FCF745BB4FF0E020C0F8001110BD9E
:10AAA00016E000E0C02800202DE9F84F204D924626
:10AAB000894606469846012269461846AF68FCF763
:10AAC0002BFF58B3009800210446801C09E000BF0A
:10AAD00000EA07035AF8212005EB8303401C491CB8
:10AAE000DA604145F4D34FEA164AFDF70BFA4AEA19
:10AAF0000041601C384005EB80003C4005EB8402BF
:10AB0000C160D06866F3C50068F3891069F39F20BF
:10AB100020F00300401C20F00400D06095F82004D1
:10AB200002E000BFFEF71AFA0028FBD1BDE8F88F5B
:10AB3000782A00202DE9F84F1D4C00256846D4E9FD
:10AB400001A6FDF7E9F9002738B30023009A6168F0
:10AB50001CE0D1F800C00846944503D9ACEB0202D2
:10AB60000A6015E0A2EB0C0263440760D0F80CC049
:10AB7000C1698146BCF1000F08D006EB030828F03C
:10AB80007F48C0E9018CC9F81C5005460029E0D176
:10AB900028466160FDF738FB03E02846FDF734FBEB
:10ABA00010B15046FCF7AEFFE770BDE8F88F00002B
:10ABB000D02000200D4B10B5596831B102680C68E7
:10ABC000A24204D8A21A0A60C161586010BD0B46A7
:10ABD00003E00B46C969121B21B10C689442F8D3FB
:10ABE000A41A0C600260C161D86110BDD0200020A1
:10ABF0002DE9F041144E77683D462C4603E084422F
:10AC000004D02546E469002CF9D11BE0D4B1A5425B
:10AC10000BD1F869706040B90C49012088600021AF
:10AC2000B160F0702F20FEF70BFF2168E069E8614A
:10AC300010B10268114401607068874202D001209F
:10AC4000BDE8F0810020FBE7D0200020001001408B
:10AC50007CB5064600240D468DF800406846FCF79A
:10AC6000FDFA01A800F092FA70B10570094946603A
:10AC70009DF8040048709DF80000FCF713FB1420B9
:10AC8000FBF742FD20467CBD04249DF80000FCF744
:10AC900009FBF7E7B42700202DE9F041194D6C6856
:10ACA000002C2CD0184800270068A968B846401A24
:10ACB00020F07F462068B0420CD82146361A07445F
:10ACC000E469087C20B181F8108088694969884767
:10ACD000002CEFD129786878814206D1401CC0B29F
:10ACE0006870022801D185F80180064869780C3027
:10ACF00040F82170BDE8F0411420FBF705BDBDE828
:10AD0000F0810000D02000200415014010B50F4C48
:10AD1000D4E90010884211D000EB80020C4800EB0F
:10AD200082018B785BB130F822000831A3DF002864
:10AD300004D12079401C00F00700606010BD30F89D
:10AD4000220089880022A1DFF1E70000882000208E
:10AD50003426002070B50C4605464FF48E71FEF780
:10AD600024FE216AA068415C206A401C2062C5F86C
:10AD70001C1570BD1FB500228DF80020029181685E
:10AD800001914261D0E90012684690471FBD000062
:10AD90001FB50A4601788DF8001041680191017ACB
:10ADA0008DF80810C0680390044850F82210001F66
:10ADB00050F82220684690471FBD000098200020D0
:10ADC00001490120087070470821002010B588B0A3
:10ADD000044620220E496846FBF748FB06200090F7
:10ADE000C01F0190029003904FF0EB7006900CB1E1
:10ADF000084A00E0002269460748FDF76DFD08B1EA
:10AE0000FCF78EF90448001F447008B010BD000024
:10AE100024B40200C1AD02000C2100202DE9FF473F
:10AE20000C4605464FF40071FEF7C5FD01274FF4AF
:10AE30000178002618B34FF4927949462846FEF768
:10AE4000AFFDE0B149462846FEF7AFFDC5F80883DF
:10AE500094F8290000B96F6002208DF80000D5F841
:10AE60008004C5F880040390A0690290E068019016
:10AE7000A661E661D4E900126846904728E0042103
:10AE80002846FEF798FD18B34FF484712846FEF764
:10AE900087FDE8B121462846FFF7EEFC616AA0690C
:10AEA000884215D1E06938B1E268616AA061206921
:10AEB000E6616662E06008E094F8290000B96F601E
:10AEC000C5F80883A661E268616A2046FFF7EDFCD9
:10AED0004FF48E7841462846FEF762FD78B1206A2D
:10AEE0006169884202D294F8280020B3414628467E
:10AEF000FEF75BFD616911B12046FFF73BFF4FF4A0
:10AF0000A27841462846FEF74BFD002818D041465E
:10AF10002846FEF74AFD94F8290000B12F60A06989
:10AF200000280DD0A661E268616A04B02046BDE841
:10AF3000F047FFF7BABC21462846FFF70BFFDEE7D4
:10AF4000BDE8FF871FB50A4601788DF800104168FB
:10AF50000191017A8DF80810C0680390044850F8F8
:10AF60002210001F50F82220684690471FBD0000A5
:10AF7000982000202DE9FF410C464FF492770546BA
:10AF80003946FEF71EFD0026C0B139462846FEF7B9
:10AF90001DFD02208DF80000D5F88004C5F880045E
:10AFA0000390D5F83C058DF80800E0680190A66193
:10AFB000E661D4E900126846904723E04FF48877B1
:10AFC00039462846FEF7FDFCE0B139462846FEF733
:10AFD000FDFCD5F83C15A069884213D1E06960B149
:10AFE000E268D5F8000220F02000C5F80002E06910
:10AFF000A0612069E661E06001E0A661E2682046A8
:10B00000FFF75EFC4FF4A27739462846FEF7D9FCDD
:10B0100060B139462846FEF7D9FCA06930B1A66177
:10B02000D5F83C152046E268FFF74AFC4FF49077CC
:10B0300039462846FEF7C5FC002813D03946284675
:10B04000FEF7C4FC606900280CD0D5F84C058DF8DB
:10B0500000608DF80800A06801906661D4E90012D4
:10B0600068469047BDE8FF812DE9F05F8346DDE942
:10B070000A4A994690460D460846012703E000BF5C
:10B08000B0FBF8F07F1C4045FAD2B94500D94F46D5
:10B090005FEACA7012D18CB15FEA8A7002D5B9F149
:10B0A000000F01D0202607E0302605E03146584643
:10B0B000641EFCF779FC0CB1A742F7D35FF00106E0
:10B0C000B9F1010F02D9A9F1010903E0B5FBF6F0CE
:10B0D000404502D306FB08F6F2E7DFF83C9000BFDC
:10B0E000B5FBF6F000FB165519F800105846FCF7B2
:10B0F0005BFCB6FBF8F6002EF2D15FEACA7009D00D
:10B10000002C07D0A74205D220215846641EFCF728
:10B110004BFCF5E7BDE8F09F96B202002DE9F74140
:10B1200083B00020184E1746009005460DF10C081C
:10B13000CDF80400C5EBC50081190C46062208F1C4
:10B140000100FBF7BEF958B1204606226946FBF71D
:10B15000B8F970B16D1C042DECDB06B0BDE8F081D0
:10B16000C5EBC500304490F90600B842F5DAA77186
:10B17000F3E7C5EBC5003044DDF80D100160BDF804
:10B1800011108180F3E70000EC2100200A494A7881
:10B190008B78521CD2B2934200D100220B7893429A
:10B1A00001D1002070470270487800EB400001EBAD
:10B1B000C000001D70470000B427002004011000EB
:10B1C00050000500000000000000111213140D0EC5
:10B1D0000F1000000100000000000000000000004F
:10B1E000000000000000000000000000000000005F
:10B1F000000000000000000000000000000000004F
:10B20000000000000000000000000000000000003E
:10B21000000000000000000000000000000000002E
:10B22000000000000000000000000000000000001E
:10B23000000000000000000000000000000000000E
:10B2400000000000000000000000000000000000FE
:10B25000770A000000000000770A000000000000EC
:10B260007ADA00000000000023D1BCEA5F782315E1
:10B27000DEEF12120000000000000050159C0200DA
:10B28000719E0200030000009427002000000000CF
:10B290000338FDD8704730313233343536373839DA
:10B2A0004142434445460000E420002000100000D5
:10B2B0000400000001000000000000000000000089
:10B2C000000000000000000000000000000000007E
:10B2D000B8B20200D0B2020004000000556E6B6EDE
:10B2E0006F776E206572726F7220636F6465000005
:10B2F000000000008CB902000100000038B8020014
:10B30000020000002CB6020003000000ACB80200EE
:10B310000400000000B9020005000000E0B70200D0
:10B32000060000007CB7020007000000E8B8020039
:10B3300008000000F4B702000900000058B802003D
:10B340000A00000074B902000B00000014B60200ED
:10B350000C0000000CB802000D000000DCB9020077
:10B360000E000000D8B802000F00000014B902005F
:10B370001000000048B9020011000000F0B90200FE
:10B3800012000000C4B902001300000060B90200FE
:10B390008000000094B7020081000000D0B60200D7
:10B3A0008200000090B602008300000070B6020028
:10B3B00084000000ACB6020085000000B8B70200AF
:10B3C00086000000C0B80200900000005CB70200D8
:10B3D0009100000050B602009200000020B8020068
:10B3E0000082000028B902000182000074B8020047
:10B3F0000282000090B8020000840000ECB6020057
:10B400000184000098B902000284000034B70200F1
:10B410000384000010B70200F98E0200CD8E0200F6
:10B42000C58E0200FFFFFFFFFFFFFFFFFFFFFFFFD3
:10B43000FFFFFFFF00000000000000000000D60139
:10B440000701000098BD0200A0BD0200000000003E
:10B45000000000000100000744B4020054B40200E0
:10B46000080000007CB402008CB402000800000058
:10B470008CB402009CB4020008000000C0BD0200B1
:10B48000D0BD02000000000000000000B0BD0200BE
:10B49000C0BD0200000000000000000068BD020006
:10B4A00070BD020070BD020088BD020088BD0200B0
:10B4B00090BD020090BD020098BD0200701D0020EA
:10B4C0009CB40200BCB4020008000000A0BD020051
:10B4D000B0BD02000000000000000000CCB402007B
:10B4E000DCB4020008000000004040404040404002
:10B4F0004040414141414140404040404040404047
:10B5000040404040404040404005020202020202EA
:10B510000202020202020202022020202020202039
:10B52000202020020202020202029090909090904D
:10B53000101010101010101010101010101010100B
:10B54000101010100202020202028888888888887F
:10B55000080808080808080808080808080808086B
:10B56000080808080202020240000000E9B40200D4
:10B5700073645F626C655F6761705F646174615F73
:10B580006C656E6774685F757064617465282920E6
:10B59000287265717565737429206F6E20636F6EF4
:10B5A0006E656374696F6E203078257820726574DB
:10B5B00075726E65642025732E0000005468652046
:10B5C00072657175657374656420636F6D62696E11
:10B5D0006174696F6E206F6620545820616E64201C
:10B5E0005258207061636B6574206C656E67746877
:10B5F0007320697320746F6F206C6F6E672062799F
:10B60000202575206D6963726F7365636F6E647357
:10B610002E0000004E52465F4552524F525F494E37
:10B6200056414C49445F4441544100004E52465FEC
:10B630004552524F525F534F465444455649434535
:10B640005F4E4F545F454E41424C45440000000060
:10B650004E52465F4552524F525F464541545552F5
:10B66000455F4E4F545F454E41424C4544000000FB
:10B670004E52465F4552524F525F4D555445585FAA
:10B68000554E4C4F434B5F4641494C4544000000EA
:10B690004E52465F4552524F525F4D555445585F8A
:10B6A0004C4F434B5F4641494C4544004E52465F28
:10B6B0004552524F525F4D555445585F434F4E448B
:10B6C0005F494E49545F4641494C454400000000E3
:10B6D0004E52465F4552524F525F4D555445585F4A
:10B6E000494E49545F4641494C4544004E52465FDD
:10B6F0004552524F525F424C455F495053505F5242
:10B70000585F504B545F5452554E4341544544008A
:10B710004E52465F4552524F525F424C455F495030
:10B7200053505F504545525F52454A454354454446
:10B73000000000004E52465F4552524F525F424C4D
:10B74000455F495053505F4C494E4B5F444953430A
:10B750004F4E4E4543544544000000004E52465F54
:10B760004552524F525F4150495F4E4F545F494DD1
:10B77000504C454D454E5445440000004E52465FE6
:10B780004552524F525F4E4F545F535550504F5297
:10B79000544544004E52465F4552524F525F4D4F02
:10B7A00044554C455F4E4F545F494E495449414CB6
:10B7B000495A4544000000004E52465F4552524FE0
:10B7C000525F4D4F44554C455F414C5245414459A1
:10B7D0005F494E495449414C495A454400000000D4
:10B7E0004E52465F4552524F525F4E4F545F464F46
:10B7F000554E44004E52465F4552524F525F494E9D
:10B8000056414C49445F5354415445004E52465FA3
:10B810004552524F525F444154415F53495A45008B
:10B820004E52465F4552524F525F494F5F50454E10
:10B8300044494E47000000004E52465F4552524F69
:10B84000525F5356435F48414E444C45525F4D4909
:10B850005353494E470000004E52465F4552524FE7
:10B86000525F494E56414C49445F4C454E475448FF
:10B87000000000004E52465F4552524F525F445204
:10B88000565F5457495F4552525F414E41434B000A
:10B890004E52465F4552524F525F4452565F545784
:10B8A000495F4552525F444E41434B004E52465F02
:10B8B0004552524F525F494E5445524E414C000042
:10B8C0004E52465F4552524F525F53544F5241477A
:10B8D000455F46554C4C00004E52465F4552524F14
:10B8E000525F4E554C4C00004E52465F4552524FEF
:10B8F000525F494E56414C49445F504152414D00C0
:10B900004E52465F4552524F525F4E4F5F4D454D2E
:10B91000000000004E52465F4552524F525F464F64
:10B920005242494444454E004E52465F4552524FA2
:10B93000525F4452565F5457495F4552525F4F56CB
:10B94000455252554E0000004E52465F4552524FEE
:10B95000525F494E56414C49445F414444520000B5
:10B960004E52465F4552524F525F5245534F5552C9
:10B97000434553004E52465F4552524F525F494E27
:10B9800056414C49445F464C414753004E52465F36
:10B9900053554343455353004E52465F4552524F11
:10B9A000525F424C455F495053505F4348414E4EB1
:10B9B000454C5F414C52454144595F4558495354A9
:10B9C000530000004E52465F4552524F525F434F64
:10B9D0004E4E5F434F554E54000000004E52465F9E
:10B9E0004552524F525F54494D454F555400000047
:10B9F0004E52465F4552524F525F425553590000D6
:10BA00007761726E696E6700646562756700000039
:10BA10001B5B313B33306D001B5B306D0000000061
:10BA20001B5B313B33316D001B5B313B33326D00AF
:10BA30001B5B313B33336D001B5B313B33346D009B
:10BA40001B5B313B33356D001B5B313B33366D0087
:10BA50001B5B313B33376D00696E666F0000000081
:10BA60006572726F7200000073645F626C655F6381
:10BA700066675F73657428292072657475726E65D8
:10BA800064202573207768656E20617474656D701D
:10BA900074696E6720746F2073657420424C455F33
:10BAA00047415454535F4346475F534552564943B9
:10BAB000455F4348414E4745442E000073645F6232
:10BAC0006C655F6366675F736574282920726574AF
:10BAD00075726E6564202573207768656E206174C9
