:020000040002F8
:10600000604E0020C1630200C9630200CB6302003E
:10601000CD630200CF630200D163020000000000E4
:10602000000000000000000000000000D363020038
:10603000D563020000000000D7630200D9630200AC
:1060400029670200DB630200C96A0200DB63020009
:10605000DB630200DB63020061650200DB630200B8
:10606000DB630200DB630200DB630200DB63020030
:10607000DB630200DB630200DB630200DB63020020
:10608000DB63020081670200DB630200DB63020066
:10609000A5670200DB630200A9670200DB63020060
:1060A000DB630200DB630200DB630200DB630200F0
:1060B000DB630200DB630200000000000000000060
:1060C000DB630200DB630200DB630200DB630200D0
:1060D000DB630200DB630200DB6302000000000000
:1060E00000000000000000000000000000000000B0
:1060F00000000000000000000000000000000000A0
:10610000000000000000000000000000000000008F
:10611000000000000000000000000000000000007F
:10612000000000000000000000000000000000006F
:10613000000000000000000000000000000000005F
:10614000000000000000000000000000000000004F
:10615000000000000000000000000000000000003F
:10616000000000000000000000000000000000002F
:10617000000000000000000000000000000000001F
:10618000000000000000000000000000000000000F
:1061900000000000000000000000000000000000FF
:1061A00000000000000000000000000000000000EF
:1061B00000000000000000000000000000000000DF
:1061C00000000000000000000000000000000000CF
:1061D00000000000000000000000000000000000BF
:1061E00000000000000000000000000000000000AF
:1061F000000000000000000000000000000000009F
:10620000DFF80CD000F06EF9004800476986020004
:10621000604E002030B450E8012F93B2C48923446B
:106220008489A34228BF1B1B0489A34202BFBFF37A
:106230002F8F002007E0C3EA020340E80134002C5E
:10624000E9D14FF001000A6030BC704750E8012FDF
:10625000C2EA024240E801210029F7D1704730B478
:1062600050E8022F1FFAA2F3C488A34202BFBFF373
:106270002F8F00200DE0C48923448489A34228BFC6
:106280001B1BC2EA034340E80234002CE8D14FF064
:1062900001000A6030BC704750E8022FC2EA224277
:1062A00040E802210029F7D17047034653E8022F46
:1062B000D988B2EB324F4FF0000017BF92B241EADB
:1062C000014142EA014104E05A68B2EB324F08BF93
:1062D000012043E80212002AE8D1704730B4044696
:1062E00054E8000F0D4644E80053002BF8D1156028
:1062F00030BC704730B4044654E8000F40EA010552
:1063000044E80053002BF7D1156030BC704730B41F
:10631000044654E8000F00EA010544E80053002B4E
:10632000F7D1156030BC704730B4044654E8000F14
:1063300080EA010544E80053002BF7D1156030BC1A
:10634000704730B4044654E8000F00EB010544E800
:106350000053002BF7D1156030BC704730B40446B1
:1063600054E8000FA0EB010544E80053002BF7D1DF
:10637000156030BC704770B404464FF0000054E81C
:10638000006F0D68AE4207BF44E80023012044E8D7
:1063900000630E60002B1CBF0020F0E770BC70474C
:1063A00030B4044654E8000F88422CBF451A054615
:1063B00044E80053002BF5D1156030BC7047000055
:1063C0000648804706480047FEE7FEE7FEE7FEE78F
:1063D000FEE7FEE7FEE7FEE7FEE7FEE7AD67020049
:1063E000016202002DE9F05F0546002092469B46BF
:1063F00088460646814640241BE0284641464746DB
:10640000224600F05EF853465A46C01A914110D316
:1064100011461846224600F016F82D1A67EB0108BF
:106420004F4622460120002100F00DF817EB00092D
:106430004E41201EA4F10104DFDC484631462A46C5
:106440004346BDE8F09F202A04DB203A00FA02F11F
:10645000002070479140C2F1200320FA03F3194352
:106460009040704700487047FCB8020040EA0103C2
:106470009B0703D009E008C9121F08C0042AFAD2FA
:1064800003E011F8013B00F8013B521EF9D27047BE
:10649000D2B201E000F8012B491EFBD27047002266
:1064A000F6E710B513460A4604461946FFF7F0FF13
:1064B000204610BD421C10F8011B0029FBD1801A98
:1064C0007047202A04DB203A21FA02F000217047AD
:1064D00021FA02F3D040C2F120029140084319464C
:1064E00070470000064C074D06E0E06840F00103ED
:1064F00094E8070098471034AC42F6D3FFF784FEC7
:1065000038C0020058C0020070B58C1810F8015B4A
:1065100015F0070301D110F8013B2A1106D110F83C
:10652000012B03E010F8016B01F8016B5B1EF9D140
:106530002B0705D40023521E0DD401F8013BFAE7C6
:1065400010F8013BCB1A921C03E013F8015B01F831
:10655000015B521EF9D5A142D8D3002070BD0000C6
:106560002DE9F04700268AB0DFF85091B0464FF48D
:106570008075012437460696284602F079FD38B129
:10658000D9F80403204203D0284602F067FD2643D1
:106590002D1D64007F1CADB2082FEDD34FF4BE74E7
:1065A000204602F065FD48B1204602F057FD46F056
:1065B000004606AA0121002002F03CFD404D16F0E5
:1065C000FF0F15D00127002437420DD009EB8401BD
:1065D000D1F81005D1F81015C0F3042055F8242087
:1065E000C1F3014102B190477F00641C082CEBD33A
:1065F000002E5FDA4FF0FF30CDF8108054E02819FC
:1066000010F8507F90F9000027F0C008401C3BD0E4
:1066100007A9404602F0BEF910B34FEA9719404669
:1066200001F01EFB55F820701FB1B9F1030F03D024
:1066300006E0B9F1030F27D104A9404602F0B2F9F0
:106640004FF0A04101EB8800D0F8000706A9C0F385
:10665000014A404602F09EF918B1BAF1020F03D088
:1066600012E0BAF1030F0FD1B9F1030F08D1BAF15B
:10667000020F1DD00221404602F0C0FC761CF6B28B
:1066800017B149464046B847641C042CB7D3002EC6
:1066900010D06A460121002002F0CCFC0699009837
:1066A000884207D006900498002634460790A6E753
:1066B0000321E0E70AB0BDE8F08700000060004079
:1066C000AC26002000F01F0201219140400980000B
:1066D00000F1E020C0F88012704700F01F02012195
:1066E00091404009800000F1E020C0F8001170479F
:1066F00000F01F02012191404009800000F1E020DC
:10670000C0F8001270474907090E002806DA00F0A9
:106710000F0000F1E02080F8141D704700F1E02028
:1067200080F800147047000070B54FF48076304652
:1067300002F0F8F9114CB50560B1304602F0F9F9F4
:106740000120C5F80803607920B901206071216833
:10675000002088474FF48276304602F0E3F90028A3
:106760000AD0304602F0E5F90220C5F80803216896
:10677000BDE870400120084770BD00008C2000205B
:1067800007480021C0F84011C0F84411C0F8481172
:10679000C0F84C11C0F80011C0F8041104F07ABC24
:1067A0000010014004F0C4BB03F026BAF0B5B548B0
:1067B0000023021D0178101D01254FF08054062989
:1067C0000BD11678360708D10678C6F30316032EC8
:1067D00006D0042E04D0052E02D0062907D00EE0E4
:1067E000B4F82463A84FC6F304263E6002E016788E
:1067F000360704D10678C6F30316032E02D0062905
:1068000004D00FE0A24FA14E7E670EE01678360747
:1068100008D10678C6F30316032E06D0042E04D042
:10682000052E02D0062907D00EE0D4F84462994F15
:10683000C6F342363E6002E01678360704D1067889
:10684000C6F30316032E02D0062906D011E0924E9D
:10685000376827F0807737600EE01678360708D162
:106860000678C6F30316032E06D0042E04D0052E98
:1068700002D006290AD011E04FF08046C6F80C314C
:10688000C6F81031834E361F336002E016783607A3
:1068900004D10678C6F30316032E02D0062905D0CC
:1068A0000CE07C4F032664373E600AE0167836071A
:1068B00004D10678C6F30316032E02D006290DD0A4
:1068C00014E0764F05263E60744E78363560734E80
:1068D000083633603F263F1D3E6002E016783607DB
:1068E00004D10678C6F30316052E02D0062957D028
:1068F00062E06B4E36686B4F3E60694E361D3668FF
:106900003F1D3E60664E083636683F1D3E60644E51
:106910000C3636683F1D3E60614E103636683F1DAE
:106920003E605F4E143636683F1D3E605C4E183642
:1069300036685C4F20373E60594E1C3636683F1D26
:106940003E60574E203636683F1D3E60544E24361A
:1069500036683F1D3E60524E283636683F1D3E6009
:106960004F4E2C3636683F1D3E604D4E30363668F1
:106970004C4F40373E604A4E343636683F1D3E60CD
:10698000474E383636683F1D3E60454E3C363668C9
:106990003F1D3E60424E403636683F1D3E6002E07D
:1069A0001678360708D10678C6F30316032E06D0EC
:1069B000042E04D0052E02D0062907D019E0D4F801
:1069C0005812394A01F04F01116002E011780907AD
:1069D0000FD10078C0F30310032803D0042801D09E
:1069E000052806D131480168C90702D06FF00101BE
:1069F0000160D4F83001062808D1D4F83401062803
:106A000004D12B48016841F4806101602248743848
:106A1000016841F470010160BFF34F8FBFF36F8FC6
:106A20004FF01021D1F80002002803DBD1F8040256
:106A3000002822DA1F4A15601F480468002CFCD089
:106A40001524C1F800420568002DFCD0C1F80442AD
:106A500001680029FCD0136001680029FCD0BFF355
:106A60004F8F0D48F0380168144A01F4E06111437A
:106A70000160BFF34F8F00BFFDE712491048086067
:106A8000F0BD0000E00F00F0403501400DF0ADBA60
:106A900000C007403C050040FCED00E010560040FF
:106AA0000404001020C50040E40E00400004004033
:106AB0003C17004004E5014000E401400400FA05F1
:106AC0000090D003702100200148006800470000BA
:106AD000942000200FB4084B10B504A902AA039813
:106AE00000F03AF8044602A9002000F066FA2046B9
:106AF00010BC5DF814FB0000BB6F020002E008C888
:106B0000121F08C1002AFAD170477047002001E027
:106B100001C1121F002AFBD170470000012120286B
:106B200003DA81400548014003E0402802DA2038BA
:106B3000814009B10120704700207047FC06FFBD6D
:106B4000082806D228B1012803D0042801D001204A
:106B500070470020704700002DE9FF4F8DB00F46B1
:106B60000546002606E025280BD0DDE90F129047E8
:106B70006D1C761C28780028F5D111B03046BDE890
:106B8000F08F0024A246A1460122EC4900E0044314
:106B900015F8013F203B02FA03F00842F7D12878AC
:106BA0002A2810D06FF02F022878A0F1300109298F
:106BB00014D80AEB8A0102EB410144F0020400EB15
:106BC000010A6D1CF0E701CF5FEA000A03D544F427
:106BD0000054CAF1000A44F002046D1C28782E28E3
:106BE00017D115F8010F44F004042A280ED06FF0D5
:106BF0002F022878A0F1300109290AD809EB890170
:106C000002EB410100EB01096D1CF2E757F8049B10
:106C10006D1C28786C280FD006DC4C2817D068280B
:106C20000DD06A2814D104E0742810D07A280FD12E
:106C30000DE044F400140AE044F4801401E044F44C
:106C400040146978814202D104F580146D1C6D1CDA
:106C50002A786E2A1FD00CDC632A31D004DC002A8B
:106C60008BD0582A11D1A3E0642A68D0692A0CD1AC
:106C700065E0732A2ED004DC6F2A73D0702A04D109
:106C80009BE0752A6FD0782A6ED01046DDE90F128E
:106C90009047761C50E1C4F30250022806D0032826
:106CA00009D0042801CF09D0066045E101CFF117D2
:106CB000C0E9006140E101CF06803DE106703BE1A3
:106CC00017F8040B8DF8000000208DF80100EB464A
:106CD000012003E057F804BB4FF0FF3061074FF08D
:106CE000000102D40DE008F10101884649450FDAA0
:106CF0008045F8DB1BF808100029F4D108E008F102
:106D0000010188468142FADB1BF808100029F6D100
:106D1000DDE90F23AAEB08008146214600F036F991
:106D2000304400EB080604E0DDE90F121BF8010B0C
:106D30009047B8F10108F7D221464846F7E00A210A
:106D4000C4F302534FF0000B0891022B04D001CF83
:106D5000C117032B09D00AE0FF1D27F00707F7E84A
:106D6000020108E032E01FE020E000B2C117042B6E
:106D700001D140B2C117031E71F1000307DA4FF0D1
:106D8000000CD0EB0C006CEB01012D2302E023057D
:106D900004D52B238DF82430012303E0E30701D031
:106DA0002023F7E7984658E00A2110E010210EE072
:106DB00010204FF0000B08900CE010214FF0000B5A
:106DC00044F004044FF00809089103E008214FF053
:106DD000000B0891C4F30253022B04D001CF002111
:106DE000032B06D006E0FF1D27F00707F7E8020196
:106DF00003E080B2042B00D1C0B24FF0000823079B
:106E00002BD5702A07D0DDF820C08CF0100C5CEA7E
:106E10000B0C05D00EE040238DF82430012308E050
:106E200050EA010306D030238DF824308DF8252058
:106E300002239846DDF820C08CF0080C5CEA0B0CAD
:106E40000BD150EA010301D1630706D530238DF839
:106E500024304FF00108A9F10109582A04D038A2C2
:106E60000B9208AA0A920BE03AA2F9E75B46089A4D
:106E7000FFF7B8FA0B9B9B5C0A9A521E0A9213709A
:106E800050EA0102F2D10A98ADEB000000F1200BAC
:106E9000600702D524F4803401E04FF00109D945A0
:106EA00002DDA9EB0B0000E0002000EB0B014144E8
:106EB0000890AAEB010AE00306D4DDE90F2321467E
:106EC000504600F063F806444FF0000908E009A9B5
:106ED00011F80900DDE90F12904709F10109761C4C
:106EE000C145F4DBE0030CD5DDE90F232146504614
:106EF00000F04CF8064404E0DDE90F123020904722
:106F0000761C0899481E08900029F5DC08E00A98CC
:106F10000A990078491C0A91DDE90F129047761C06
:106F2000BBF10001ABF1010BF1DC21465046DDE97C
:106F30000F2300F019F806446D1C1BE60928010018
:106F400030313233343536373839616263646566DF
:106F500000000000303132333435363738394142A1
:106F600043444546000000002DE9F0410446002559
:106F70001E461746880404D405E039462020B04751
:106F80006D1C641EF9D52846BDE8F0812DE9F0415D
:106F9000044600251E469046C80301D5302700E070
:106FA0002027880404D505E041463846B0476D1CCB
:106FB000641EF9D52846BDE8F0810A68531C0B60B1
:106FC0001070704710B50B4C607828B100F032F8A3
:106FD000002243F69A1104E003F0DEFD002240F2A5
:106FE0006661054800F038F9607880F00100607053
:106FF00010BD0000701D0020FC21002010B50122F2
:107000000221002000F048FD08B1072810D1072216
:107010000221012000F040FD08B1072808D100211D
:107020000A22084600F038FD08B1072800D10020E8
:1070300010BD000000B58FB020216846FFF72FFA81
:107040001E208DF80000FF208DF8010054208DF8DF
:10705000020052208DF8030041208DF804005820D2
:107060008DF8050010481F21C0F800D0818018213C
:1070700008A8FFF714FA01208DF83500002005213B
:107080008DF82010ADF82C0009908DF834004020C8
:1070900005490A9008AAA1F5387072DF002801D0CE
:1070A00000F090F80FB000BD5020002070B5002413
:1070B000064D06E06868012110F8340002F086FEF3
:1070C000641C28788442F5D3002070BDA0200020E5
:1070D000F8B515460C460646052A01D20720F8BD2C
:1070E00002F070FF18B902F035FF0028F7D11249FD
:1070F00000224E600C708D60C1E90422C1E90622B5
:107100000E4D0DE006EBC4002968009181788DF8E2
:10711000011000780A4A694602F0AAFE0028DED172
:10712000641EE4B2EED2BDE8F84004480021054AEE
:10713000001D00F053B80000A020002014B602008B
:10714000A1810200397F020072B602F083FA00BF0B
:1071500002F06EF80028FBD1104C0121208801EBD1
:1071600000400FA102F0C8F910480068C00700D025
:1071700000BE2088022101EB00400DA102F0BCF905
:10718000BFF34F8F0948E43801680D4A01F4E0610C
:1071900011430160BFF34F8F00BFFDE7A82100201E
:1071A000466174616C206572726F7200F0ED00E0F0
:1071B00053797374656D2072657365740000000007
:1071C0000400FA050EB500210091CDE901106A46D0
:1071D00044F20100FFF7B8FF0EBD0000084B9B789A
:1071E00023B12AB120B10068037C1BB1082070478D
:1071F00007207047002303744174426118467047AA
:107200007827002070B503F003FD104800240B21FF
:10721000047044700E4D817014206C602C706C7082
:10722000FFF750FA07211420FFF76DFA1420FFF73B
:1072300054FA0848046007211120FFF764FA054852
:10724000001F0068A860002070BD000078270020A3
:10725000C0200020081501402DE9FC47DFF8789098
:1072600099F8023073B368B3052902D20720BDE84C
:10727000FC87436933B3437C012B25D000270446A8
:107280000025884616468DF80050684600F038F80C
:1072900001A804F041F9C8B1012101700F4944600F
:1072A0000968C0E90218C0E904769DF8040089F86D
:1072B00001009DF8000000F047F81420FFF718FACD
:1072C0002846D4E70820D2E70F46D8E704259DF8E2
:1072D000000000F039F8F3E778270020041501409A
:1072E0000649897839B130B1416921B10021017471
:1072F000022103F0ABBE0820704700007827002071
:1073000030B5EFF3108172B60D4A9468012324B1B1
:107310000370002900D162B630BD93604FF0E023C6
:10732000D3F88051074C25401560C3F88041D3F84D
:10733000844154605A17C3F8842100220270E8E7A0
:1073400084280020FC06FFBD0B498A68002A11D062
:1073500000280FD1EFF3108072B60B684FF0E022D7
:10736000C2F800314B68C2F8043100228A6000285C
:1073700000D162B670470000842800202DE9F0415A
:10738000064608680C46411C4FF0A0474FF0010527
:1073900006D005FA00F1C7F80815206801F01AFEBA
:1073A0006068411C02D0002101F002FE3168A06932
:1073B000C1F82405607D227D31681043C1F86C0559
:1073C000D4E900123068C0F81425C0F80C15207DEF
:1073D000012815D1A068411C02D0002101F0E8FD70
:1073E000E068411C05D08540C7F80855E06801F009
:1073F000F1FDD4E902123068C0F80825C0F8101574
:10740000BDE8F0812DE9F041064608680C46411CB4
:107410004FF0A0474FF0010506D005FA00F1C7F87C
:107420000815206801F0E0FD6068411C02D00021D1
:1074300001F0C7FD3168A069C1F82405607D217D98
:1074400032680843C2F86C05D4E900123068C0F80D
:107450000C15C0F81425207D012815D1A068411C09
:1074600002D0002101F0ADFDE068411C05D085404F
:10747000C7F80855E06801F0B7FDD4E9021230689A
:10748000C0F80825C0F81015BDE8F08170B540B10E
:107490000C4D297839B1044603F062FB28B1002075
:1074A00070BD0E2070BD082070BDE868062807D2A8
:1074B0000549226801EB8001401C0A60E860EEE7A4
:1074C000042070BD68200020E022002040B1054962
:1074D00000220123CA600B70C1E901021046704707
:1074E0000E2070476820002070B504002DD00029C0
:1074F0002BD020480078002827D020880D4611285E
:1075000015D0302804D0322807D033281ED109E006
:10751000211D284603F0C8F918E0211D284603F074
:107520001FF813E0211D284603F0F4F80EE0A088B0
:10753000B5F8CA12884209D1002085F8C70285F83B
:10754000C8024FF6FF70A5F8CA0270BD95F8C802D0
:107550000028FAD020883028F7D34F28F5D8A08803
:10756000B5F8CA128842F0D12846BDE8704000F054
:1075700095BD00006820002048B1084A137843B147
:10758000D26832B190F8C7222AB1112070470E207C
:1075900070470820704700F081BD0000682000207F
:1075A00038B50188041D1F293ED012DC2A484FF04F
:1075B00003021029008802EB004014D011292CD0BE
:1075C0001B293ED01D293CD1201DBDE8384002F0CA
:1075D0004BBF21292CD03B2934D0562931D180886A
:1075E000132176DF31E01DA101F086FF2188002202
:1075F0001D4800F02BF908B1FFF7E4FD21881B4876
:10760000FFF7BAFF08B1FFF7DDFD012000F032FA05
:10761000BDE83840002000F025BA15A101F06CFF4C
:10762000BDE8384003F042BB2088211D75DF0CE027
:1076300000210091808869468FDF002801D0FFF784
:10764000C1FD38BD8088132176DF0028F9D0BDE860
:107650003840FFF7B7BD0000A8210020436F6E6ED1
:1076600065637465642E0000D8210020841D00200D
:10767000446973636F6E6E65637465642E00000009
:1076800010B51A4C0188606810290ED011292BD131
:10769000401E606028D1FFF7B1FC002824D021688B
:1076A000002921D0BDE810400847D0B900210122AF
:1076B000084600F0F1F908B107280FD1072202218E
:1076C000012000F0E9F908B1072807D104220221BE
:1076D000002000F0E1F920B1072802D0216801B1B3
:1076E00088476068401C606010BD0000602000207A
:1076F0002DE9F04F0746858802883D48012197B063
:107700008346102A09D0112A49D01A2A6CD1387A16
:10771000B1EB101F45D2012244E0354C083CA06873
:10772000C0430B9061680BA801F0C6F80B990CA838
:1077300000F038FB2C220CA96846FEF797FE0026C5
:10774000E946A04610E000BF09EB46005FF00004E8
:10775000B0F804A008EB84005146001D01F080F849
:10776000641C1D2CF6D3761C0098B042ECD8142D66
:1077700005D317B00420BDE8F04FFFF723BD29461D
:10778000584601F083F8294608F1040001F07EF81C
:10779000F87B012828D016482946001D15E0294607
:1077A0001AE000220221B1EB101F01D2012600E0F5
:1077B00000260F49083901F11000041D294682B145
:1077C00001F064F836B12946204617B0BDE8F04F05
:1077D00001F05CB82946204617B0BDE8F04F01F033
:1077E0003FB801F03DF8F5E717B0BDE8F08F0000B5
:1077F0007022002070B518B30288A2F57F41FF39CE
:107800001CD0104C4388104D206800EB8001401CB8
:1078100000F00700206005EB810102204B81C88148
:10782000081D086100248C810120087208714C71C8
:107830000A80887003F068FC204670BD082070BD87
:107840000E2070BD78200020F825002040B1018076
:1078500022B11168C0F802109188C18000207047E1
:107860000E20704730B5134D040085B02DCD8DE846
:107870002D001DD0E1B10868D0B100206080A0804B
:10788000E0804FF6FF7020800868A06004F10C01D2
:10789000684662DF002809D1207B8DF8120041F292
:1078A0002350ADF8100004A8FFF7F0FD05B030BD7F
:1078B0000E20FBE7F8B502000EB5002921D0002804
:1078C0001FD00288112A25D0382A1BD0392A18D176
:1078D0000A4609888388994213D14189938899423D
:1078E0000FD1C18901290CD102218DF80010118816
:1078F000ADF80210007C8DF80400936869461046CC
:1079000098470EBD098880888142FAD1BDE80E40B3
:1079100003F0FABB0A8880888242F2D14FF6FF70EA
:107920000880002048808880C8800EBD70B518B3DC
:107930000288A2F57F43FF3B1CD0104C104D2368FA
:1079400003EB83025B1C03F00703236005EB820259
:10795000C38853810123D381141D146100249481B1
:1079600002241472117100881080937003F0CCFB14
:10797000002070BD082070BD0E2070BD7820002052
:10798000F82500203EB50A78002A40D18A88A2F561
:10799000A853233B3BD18A79037B9A4237D10122FA
:1079A0008DF800204A88ADF80220002218E000BFC0
:1079B00002EBC20301EB430333F80E4F04F6DC2461
:1079C000B4F5005405D0012C09D11B89ADF808305D
:1079D00005E01C89ADF806405B89ADF80430521C07
:1079E0000B7A9342E4D80188A1F57F42FF3A0BD08D
:1079F000C18849B9818839B9418829B90199C0F844
:107A00000210BDF80810C1808268694690473EBDEB
:107A10002DE9FC410646C0074FF000050ED0104F7F
:107A200000240122385D009500231146019501F0E4
:107A300065FA641C042CF4D300F024F8B0070DD5CB
:107A4000074E0024361D0022305D032300951146A9
:107A5000019501F053FA641C042CF4D3BDE8FC81B9
:107A60005AB502000249085C012101F0D8BA0000B1
:107A70005AB502000249085C002101F0D0BA0000AA
:107A80005AB5020010B500242046FFF7EBFF641C36
:107A9000042CF9D310BD000070B50023042810D2C7
:107AA0000D4D00EB4004012A02D101290CD0002227
:107AB000094E00EB4000304461B1012906D0022993
:107AC00006D00723184670BD0E30C2B22A55F9E71A
:107AD0004270F7E78270F5E75A2200202DE9F8435B
:107AE0000546861C00208DF8000090460F464FF09A
:107AF00001096846FFF704FC1B4C20683860D4E994
:107B00000001401AA16804F21C47081A0EE0012186
:107B1000384600F0CBFE00F059FD0146384600F033
:107B2000C5FED4E90001401AA168081A401C86422B
:107B3000EDD8B8F1000F03D0052065F3891002E0FD
:107B4000062065F39F50A2682168114004EB810173
:107B5000C8602068304420609DF80000FFF7F4FB07
:107B60004846BDE8F88300003C2A002030B4826813
:107B70000468531C8360A154D0E901128A4202D3E5
:107B800030BC01F054B830BC70470000034803C853
:107B9000814201D101207047002070473C2A00201B
:107BA00010B50C460D2809D10C48FFF7BFFE48B1AF
:107BB000A0F54051023910D008280ED0BDE8104081
:107BC000FFF700BB0648032122460088BDE81040AD
:107BD00001EB004003A101F093BC10BDD8210020AF
:107BE000A82100204C4253207772697465204C45CF
:107BF00044207374617465202564000005494FF0CA
:107C0000FF32082841F8202002D3084480F8482099
:107C100070470000AC260020F0B54FF0FF3512B1E0
:107C20000023082601E008230C260C4C05E000BFC9
:107C300054F823707F1C04D05B1CB342F8D3284651
:107C4000F0BD26185DB286F8305044F82310002AA3
:107C5000F5D1E11881F84800F1E70000AC260020DA
:107C60000249084490F9300070470000AC2600201B
:107C700008B5024690F8C6020B4600EB8001C1EB46
:107C8000801002EB400092F8C52242B1521ED2B2DF
:107C900002EBC20100EB4102518A491C00E0C1889D
:107CA000ADF800100089ADF80200694618469DDF66
:107CB00008BD000070B5084C050009D010342168DB
:107CC000002907D008682060496828468847F6E7F9
:107CD0000834F4E770BD000098260020054A012111
:107CE00020B1012805D19170FFF7E4BF5170002049
:107CF000FAE77047982600202DE9F05F2648416892
:107D0000F1B3DFF898B00E688146DBF80040876871
:107D10008078E11B21F07F45ED1CB0B9DFF8808051
:107D20004FF48030C8F84403C8F804031120FEF76C
:107D3000C9FC1120FEF7D1FC4FF0010AC8F800A0E1
:107D40002F2002F03BF889F802A0B54200D2354658
:107D5000124BE8193C3320F07F401860DBF800102C
:107D60005A46091B21F07F41001B20F07F40C91CAF
:107D700081420FD9106818602F2002F01FF800E030
:107D800004E0BDE8F05F1120FEF7B2BCBDE8F05F93
:107D900002F03EBFBDE8F09FC02000200415014066
:107DA0000010014073B58CB00646002000900D987D
:107DB00080B100246D4621460DA800F05CFD30B175
:107DC000009805EB400084800098401C0090641CE3
:107DD000142CF0D32C2269463046FEF747FB0EB038
:107DE00070BD0000F0B587B0074600200490ADF8E4
:107DF00010100590ADF812100190029001AA04A98C
:107E0000384690DF060022D001F07EFF114C034679
:107E1000012520883A4605EB00400F4901F077FB29
:107E2000BDF8042012B9BDF8060038B12088BDF8AD
:107E3000063005EB004009A101F069FBBDF8082000
:107E40002AB12088154905EB004001F059FB07B025
:107E50003046F0BD7821002000B90200546865204A
:107E60007265717565737465642054582F5258207B
:107E70007061636B6574206C656E677468206973EC
:107E800020746F6F206C6F6E672062792025752FCC
:107E90002575206F63746574732E00004CB9020061
:107EA00001460148FFF76EBDD82100202DE9F843B7
:107EB000054690F8C6020F4600EB8001C1EB80102A
:107EC00005EB400695F8C542914604EBC40006EB6D
:107ED00040013279601C0A31904226D16B46002263
:107EE000284600F059FA18B310E0401EA04201D114
:107EF000002004E004EBC40006EB40001C30804688
:107F000002466B46284600F047FA30B10020387030
:107F1000694648469EDFBDE8F88395F8C5024146AC
:107F2000401C641C85F8C502E4B23079A042DCD85C
:107F3000012038700020EEE72DE9F0470025DFF83A
:107F40008C803CE06068002100EBC506012032789F
:107F50009146FEF778FAD4E9062300EA020701EA1F
:107F6000030C57EA0C0728D082438B434846C4E9E8
:107F7000062301F0E5FF3278824691460120002178
:107F8000FEF761FAD4E9042300EA020401EA0307D8
:107F90004A4650460021FEF756FA44404F403C43C3
:107FA0000BD17078012801D0012100E00021726816
:107FB00081EA0A010AB1484690476D1CEDB298F873
:107FC000000044468542BDD3BDE8F087A0200020D4
:107FD0002DE9F047894690F8C612904601EB8102E0
:107FE000C2EB811100EB4107384602F0B9FD0600F3
:107FF0002FD0194CA06806282BD2184D762205EBFD
:10800000C0103946A0F80280001DFEF72FFA0027A5
:10801000B9F1000F04D0A06805EBC010077004E0B0
:10802000A168022005EBC1110870A06805EBC01122
:10803000401CCE67A060E16888420AD1002604E0B7
:1080400005EBC610C16F8847761CE0688642F7D3FF
:10805000A760BDE8F087000068200020F82200201B
:1080600070B50E4690F8C612154601EB8102C2EBC0
:108070008111A0B000EB410002F072FD040009D0B4
:108080007C2205496846FEF7F1F9ADF802506846D2
:108090000196A04720B070BD64B5020070B50E46D1
:1080A00004464FF43371FEF7FAF911480025A4F89D
:1080B000CA62856084F8C9520E4884F8C65284F8B2
:1080C000C552006820602246012130469BDF012115
:1080D000112806D0002809D184F8C71284F8C852A4
:1080E00003E084F8C71284F8C812002070BD0000B5
:1080F00068200020E022002010B50021024800F096
:10810000E6FB80F3100010BD582E00200E4910B57C
:108110000A784C780023A24212D0521CD2B20A70C4
:10812000022A00D10B70084A0B780C3252F8232037
:1081300002608868104420F07F408860012010BDF4
:108140000360002010BD0000C020002030B50446B0
:10815000006887B00D46806800281FD01821684647
:10816000FEF79DF90195A0680590207910B10128CE
:1081700010D107E001208DF8000020690290E0682E
:10818000039005E002208DF80000E06800030290F3
:1081900060690490206881686846884707B030BDF0
:1081A0002DE9F0418046024601200021FEF74BF9FF
:1081B0001A4F05460E467868FFF792F800280CD152
:1081C000174CD4E9062110462A4001EA06031A4357
:1081D00005D0A843B143C4E90601BDE8F08140469B
:1081E00001F0AEFE30B1D4E9040128433143C4E9C3
:1081F000040105E0D4E90410A943B043C4E9041024
:10820000D4E9060128433143C4E90601A16878682E
:10821000BDE8F0410022FFF71FB8000014B60200CD
:10822000A02000202DE9FC5F0E008346DDE90C470D
:10823000C6F1000098469246814600D408460125C2
:1082400003E000BF90FBFAF06D1C5045FADAA84538
:1082500000D9454624B1002E01DB780700D5641E05
:10826000B80702D5B8F1000F0AD0F80708D13CB121
:10827000A54205D220215846641EFFF777FCF6E799
:10828000002E02DA4E462D2102E0780703D52B217D
:108290005846FFF76BFC07F0030002280BD1B8F13A
:1082A000000F08D13CB1A54205D230215846641ECA
:1082B000FFF75CFCF6E7CDE90047434652463146FE
:1082C000584603F0CFF8BDE8FC9F000070B50D469E
:1082D000044600684FF4887101F036FD4FF4907148
:1082E000206801F031FD4FF49271206801F02CFDFF
:1082F0004FF4A271206801F027FD20681249C0F8F0
:10830000041320686907000B40B2090E002806DA42
:1083100000F00F0000F1E02080F8141D03E000F1F0
:10832000E02080F8001420680121000B40B200F02A
:108330001F0291404009800000F1E020C0F8801247
:10834000C0F8001170BD00001003020002460020BA
:108350001268930702D0530702D47047500714D510
:1083600002F00300012802D002280CD105E0C2F37C
:1083700083100B68801C184404E00223086803EB98
:1083800092521044086001207047086800EB925335
:10839000C2F38910401CEEE710B509892AB1D088D4
:1083A000491C814218D1002010BD90F8C62202EB72
:1083B0008204C4EB821200EB420212899142F2D095
:1083C000491C198090F8C61201EB8102C2EB8111A1
:1083D00000EB4100008902E01980D088401E5880DF
:1083E000012010BD2DE9F041054608781B4E0327FA
:1083F0000C46012811D002282DD13088227907EBB4
:10840000004017A101F07CF8207900284FF002000D
:108410001DD0BDE8F041FFF72DBB6188221D1A4831
:10842000FFF714FA3088628807EB004017A101F0CB
:1084300067F8FEF73BFE08B1FEF7C4FE2846FFF7DB
:10844000D9F9002807D0BDE8F041FEF7BBBEBDE872
:10845000F041FFF707BBBDE8F0810000A821002034
:10846000427574746F6E2073746174652063686103
:108470006E676564206F6E207065657220746F2072
:10848000307825782E000000D82100204C4544206B
:10849000427574746F6E20736572766963652064CB
:1084A0006973636F7665726564206F6E20636F6EAB
:1084B0006E5F68616E646C6520307825782E0000F0
:1084C0001721018041800021017141711B218171BF
:1084D000C17170472DE9F047394E002780463D466F
:1084E000DFF8E090D6F804A057E003D00446D0F8B7
:1084F0001C8035E099F8002002EB4201521CD2B2F8
:1085000089F8002009EBC10199F80230091D9A424F
:1085100001D189F8005048680A780446012A12D02F
:10852000022A02D0032A3BD108E002F05FFD00B12D
:108530000127257434E00574C06900E070680028E4
:10854000F9D170602CE0207C50BB88686060C868FE
:10855000A0600869E0604869A061F07800B16560DA
:108560006268B168184B501A20F07F40984202D2DE
:10857000A168084406E0881AA16820F07F40814283
:1085800002D9081A206000E0256065600120A5601E
:1085900020742046E56102F00BFDB8F10000A4D183
:1085A00099F8001099F801008142A3D117B97168B8
:1085B000514502D00120BDE8F0870020FBE7000014
:1085C000C020002078270020FFFF7F002DE9FF4119
:1085D0000026234800F067F92148001F074600F0F5
:1085E00062F9204C60680090A56800E00098694638
:1085F000284004EB80000C30FFF7A8FE0028F5D1DE
:1086000001AA009901EA050304EB8303491CDB6816
:1086100042F82030401C00910228F2D3019800F06B
:10862000030001280BD0022810D10198032101EB8F
:1086300090500099BDF80A6001EB900005E00198A8
:10864000BDF80A60C0F3831008440090384600F07B
:1086500027F908B10098606004B03046BDE8F081A9
:10866000542E00203C2A002008B54FF40041002081
:1086700000F0ACFF08B1FEF7A5FD00F0CBFDFEF762
:10868000C1FD08B1FEF79EFD324A00213248FEF7D7
:10869000A5FD0120FFF7BCF940F2666201212F48D9
:1086A000FEF716FD08B1FEF78DFD01F0ADF808B13B
:1086B000FEF788FD01F058FA08B1FEF783FD0020AF
:1086C00000906946012001F0DFF808B1FEF77AFD5D
:1086D000684601F05BF908B1FEF774FD1F4C0422F7
:1086E0000C3C0120217877DF00211D4800F064F95F
:1086F00008B1FEF767FD1B48FEF7E8FE08B1FEF77C
:1087000061FD19480090164869461038FFF7AAF82D
:1087100008B1FEF757FDFEF78DFC144803210088D1
:1087200001EB004012A100F0E7FE0121207873DF89
:1087300008B1FEF747FD02F0B9FA0020FFF79AF9F9
:1087400000F088FF00F074FD0028FBD101F070F804
:10875000F6E70000C56F020048B502007C1D00204E
:10876000E8210020A17E0200E5830200A82100206C
:10877000446F676779205472617820426561636F46
:108780006E20537461727465642E00002DE9F04709
:10879000C7880446181D16468946B0FBF7F1B0FBA2
:1087A000F7F207FB12009A193A44D21CB2FBF7F217
:1087B000DDF820A001E02468491E0029FBD13D1A04
:1087C0008846B54216D818E0BAF1000F05D0211836
:1087D00009EB08002A46091D04E0204409EB0801C2
:1087E0002A46001DFDF742FE00202468761BA8449F
:1087F000B74201D9354600E03D46002EE4D1BDE840
:10880000F087000030B5024659B100F00BFF00219F
:10881000074C09E004EB810315685B88AB4202D189
:108820001160002030BD491C8142F3D3052030BDCA
:108830007421002010B50A8849888A4203D1FDF7C7
:108840002BFD012010BD002010BD70B50C46054663
:10885000FDF705FD002802D061882868084470BD36
:1088600001F01F0301229A40D243490900EB810025
:10887000114600F021B84A0950F8220001F01F0209
:1088800001219140084000D00120704701F01F03F2
:1088900001229A40490900EB8100114600F01CB802
:1088A000002100F00FB8012100F016B808B56A46A3
:1088B000FDF747FD009808BD08B56A46FDF727FD9E
:1088C000009808BD08B56A46FDF721FD08BD08B54A
:1088D0006A46FDF703FD08BD08B56A46FDF70AFDC7
:1088E000009808BD08B56A46FDF738FD009808BD38
:1088F00038B5044600258DF800506846FEF700FDA7
:1089000021686268086890420ED9401E08600178AC
:10891000A38AE26801FB0325227A2168101AC0B2FB
:108920000A79824200D208719DF80000FEF70CFD22
:10893000284638BD38B5054600208DF800000C46A5
:108940006846FEF7DDFCE868A98A201AB0FBF1F161
:108950002A681068431C136001709DF80000FEF740
:10896000F3FC38BD10B530B1017A42680368891A4A
:10897000C9B21A6006E00E2010BD03681A68541CC4
:108980001C601170491EC9B2F7D200680021017144
:10899000084610BDC20800F007030120895C98401A
:1089A0000840704710B5C20800F00703885C012436
:1089B0009C402043885410BD10B560B1016117215F
:1089C00020F8021B20F8021B1B2100F8021BFFF7F6
:1089D00077FD002010BD0E2010BD0000F0B5858889
:1089E00093B00C46002D39D1018800263E4F242932
:1089F0003BD006DC102909D011290CD0232958D1ED
:108A00004FE03A290BD0552953D129E001462046A1
:108A100001F030FE4DE0A01DFFF752FD49E0224677
:108A2000408934F8061F814200D808466080172824
:108A300000D217206080106970B1607960B1D7E909
:108A40000001CDE90301ADF80E506088ADF81000CB
:108A5000136903A9104698476671267113B0F0BDDB
:108A60000146204601F0CEFE23E0011D2C2206A87F
:108A7000FDF7FCFCBDF81800BDF81C2004EBC0019C
:108A80004A732269AAB1D7E90423CDE90423ADF8DA
:108A90001200487B8DF814002269204604A99047F3
:108AA00007E0017A207B884200D201462846FFF782
:108AB00099F9A07A0028D1D0E1882846A5DF0125C0
:108AC00070B11128CAD001F01FF90246074808A169
:108AD000008813B005EB0040BDE8F04000F010BD89
:108AE000A672E572BAE70000E0B502007821002026
:108AF00073645F626C655F67617474635F657863FC
:108B000068616E67655F6D74755F726571756573B9
:108B10007428292072657475726E65642025732E21
:108B20000000000000F180400068002800D0012013
:108B3000704708B500F18040002101600068009096
:108B400008BD000070B50B4C207808B185250FE0FA
:108B50000020A06060602061E060074801F010F92B
:108B6000054601F05BF808B901F0F4F80120207027
:108B7000284670BD98260020DD7C020038B500250F
:108B80008DF800506846FEF7BBFB074CE068401EBE
:108B9000E060E06810B901F003F9A5709DF80000ED
:108BA000FEF7D2FB38BD000098260020F0B5054640
:108BB0000478154889B0164640F82420124A0869FE
:108BC000121DA2F1080742F82400487F38552022E0
:108BD0006846FDF74BFC04942878385C48B10EB128
:108BE0000A4A00E000226946281D01F059FB09B03D
:108BF000F0BD0EB1064A00E00022694605F10C0006
:108C000001F020FAF3E700008420002041B30200C5
:108C10008DB102000FB408B50399002904D004AA4D
:108C200000926A4600F00FF801B05DF814FB10B531
:108C300082680446002A05D0D4E9040321689847D5
:108C40000020A06010BD2DE9FC4791460C00804635
:108C500076D014F8011B39B125290ED04046FEF715
:108C600085FF20780028F4D198F80C00002867D000
:108C70004046BDE8FC47FFF7DABF0020012221781B
:108C80002B291BD02D2902D0302908D102E040F039
:108C9000010001E040F00200641C002AEFD1002531
:108CA0002A290ED02178A1F130020A2A11D205EB2F
:108CB000850201EB4205641C303DF1E740F0040001
:108CC000EAE7D9F800100B1DC9F800300968641CE8
:108CD0000D44217800232E290BD114F8011FA1F196
:108CE00030020A2A05D203EB830201EB4203303B38
:108CF000F3E76C290DD068290BD0692921D00BDC52
:108D0000252918D0582931D063290ED0642915D1CE
:108D100017E014F8011FECE7702969D0732932D0ED
:108D200075291BD0782909D120E0D9F80000011D50
:108D3000C9F8001001784046FEF718FF641C90E760
:108D40006CE0D9F800100A1DC9F800200968CDE9C7
:108D500000500A224046FFF765FAEFE7D9F8001005
:108D60000A1DC9F8002009680A2206E0D9F8001097
:108D70000A1DC9F8002009681022CDE900504046BC
:108D800002F070FBDAE7D9F8001000270A1DC9F8D5
:108D900000200E68C00705D112E04046761C7F1CFB
:108DA000FEF7E4FE31780029F7D104E020214046A7
:108DB0006D1EFEF7DBFEBD42C0D9002DF6D1BDE72A
:108DC0004EB13046FDF776FB074604E020214046D1
:108DD0006D1EFEF7CBFEBD4206D9002DF6D103E095
:108DE0004046761CFEF7C2FE31780029F8D1A5E78F
:108DF000D9F80000011DC9F800100568302140466F
:108E0000FEF7B4FE78214046FEF7B0FE08200021B0
:108E1000CDE90001034610222946B0E7BDE8FC87F2
:108E2000044801214174007A08B1002070470120F4
:108E3000704700001C290020012801D0032808D118
:108E40000449002201284A7400D00020087401F06F
:108E500037BE70471C29002070B50246022801D099
:108E6000032A45D1234C207A002841D0012833D051
:108E7000022831D120480023022A006802D0032AA8
:108E80002AD11BE0E360017911B1012924D10DE061
:108E9000D0E90565711B4FF48056B14200D33146CD
:108EA000294481614569A9420ED015E00169491C38
:108EB0000161426991420FD1237213E0E168491CBC
:108EC000E160082908D9E3602372022A0AD00D2143
:108ED000FFF73CF901F0EAFD607C28B1BDE8704085
:108EE00000F0A2BE0021F3E7BDE8704001F0E8BD4C
:108EF00070BD00001C290020E820002070B541EA68
:108F00004201DDE904564FF0A04441EA830141EA01
:108F1000052104EB800041EA0641C0F8001770BD4E
:108F200070B541EA4201DDE904564FF0A04441EA40
:108F3000830141EA052104EB800041EA0641C0F8C3
:108F4000001770BD70B541EA4201DDE904564FF0EB
:108F5000A04441EA830141EA052104EB800041EA93
:108F60000641C0F8001770BD70B541EA4201DDE965
:108F700004564FF0A04441EA830141EA052104EB85
:108F8000800041EA0641C0F8001770BD1CB5002101
:108F900000910B4601220191FFF7D4FF1CBD1CB5C7
:108FA000002100910B4601220191FFF7DDFF1CBD5E
:108FB0001CB500220B46009211460192FFF7C2FF3A
:108FC0001CBD1CB500220B46009211460192FFF712
:108FD000CBFF1CBD1CB5002100910B460122019165
:108FE0001146FFF7AFFF1CBD1CB5002100910B46D9
:108FF000012201911146FFF7B7FF1CBD4FF0A042BF
:1090000002EB8000D0F8002722F44032C0F800279D
:10901000D0F8002742EA0141C0F80017704701224A
:109020004FF0A043824011B1C3F808257047C3F840
:109030000C25704718B5084B6C4601441B6800931B
:1090400006E000BF54F82030D3F81035401C08C2A9
:109050008142F7D818BD000008B60200034908B5E0
:109060000844002101600068009008BD00600040D5
:1090700002494058012800D000207047006000409D
:1090800030B5124B01460020D3F81044224609E0C7
:10909000157A854205D1401C0A28F7DB4FF0FF30D6
:1090A00030BD5268002AF3D1421CF9D00872D3F8BF
:1090B00010242AB152684A60D3F81024516030BDA0
:1090C0000022C3F810144A6030BD00003C2A002082
:1090D000F0B595B01C4615460F4608461A9E00F09E
:1090E00071FB182109A8FDF7DAF90E96CDE90954AC
:1090F0000023082203A9384600F079FB0598069062
:10910000BDF81000ADF81C00BDF81200ADF81E004F
:1091100000208DF821000398082600F003000128A4
:1091200002D0022818D032E003983346850AC0F3F3
:10913000C2008DF8200003980FA9C0F38314A20089
:10914000384600F054FB09A8009006AB22460FA950
:10915000284600F093FA1AE00398840DC0F3C20089
:109160008DF82000082C01D2254600E00825334662
:109170002A460FA9384600F03AFB2E44641B09AB7F
:1091800006AA29460FA800F0CBF9002CEAD13846F0
:1091900000F01EFB15B0F0BD7047012002F014B8BE
:1091A000084810B50178084A515C19B1001D01F05A
:1091B00003F902E00C3001F011F8BDE81040002086
:1091C00002F002B8FC2000208020002008B5034AED
:1091D00000924023024AFFF77BFF08BDC5AD0200A5
:1091E0003C2900200A4A012902EBC00007D00229CD
:1091F00007D0032907D0042907D000207047022098
:10920000704704207047007970474079704700002C
:1092100058C0020010B5FFF7C0FF04210348FFF754
:109220002FFF02490120487210BD000010210020CC
:109230002DE9F04F8DB0FEF7A9FC18B100200DB05C
:10924000BDE8F08F7A4C4FF0000BC4F818B4BFF3B0
:109250004F8F60680290A568D846284004EB8000D4
:1092600008E021680298814201D86160E6E7284061
:1092700004EB80000C3002A9FFF768F80028F0D159
:1092800005AA029901EA050304EB8303491CDB6884
:1092900042F82030401C02910228F2D3059800F0D9
:1092A0000300022802D001284ED0A9E005985022E0
:1092B000810D8946B2EB905F00D850210E4666F3CF
:1092C0009F50059008315B4800F033FA070079D0D1
:1092D00000F078FA4346082205A9384600F08DFAD6
:1092E000029908F1080A2940681A8000001D864288
:1092F00023D94F4D0C3530B1C2B204EB8101301A85
:1093000090460C3104E02946F2B2002590462846EA
:10931000C6B25346384600F070FA0AEB08032DB186
:10932000324629464FEA070000F067FA029909F130
:10933000030001EB900002903BE004EB81015346F7
:10934000324638460C31EFE70598C0F38310062803
:1093500000D30620059960F38911C1F38310801CA6
:1093600005918100334800F0E4F9070048D000F08F
:1093700029FA4346082205A9384600F03EFA08F1CA
:10938000080800260FE00298434600EA0501401C49
:1093900004EB81010290042238460C3100F02DFAD2
:1093A00008F10408761C0598C0F38310B042EAD88F
:1093B00047B1D4F81054D4F8180468B1384600F016
:1093C00007FA2FE01CE0687A012804D12A682846B1
:1093D0003946126890476D68002DF4D1384600F088
:1093E000F7F98DF800B06846FDF78AFFD4F8180445
:1093F00008B9029860609DF80000FDF7A5FF11E034
:10940000D4F8104404E021682046896888476468DD
:10941000002CF8D108480221008801EB004007A188
:1094200000F06AF8FEF7B2FB80F0010007E70000E9
:109430003C2A0020E0C00200A82100204261636BAA
:10944000656E647320666C75736865640000000067
:109450002DE9F84F8146DFF89C80D01C15468A46DE
:10946000800800226946D8F80860FEF737FBB8B3D9
:10947000009CA01C0090D8F808103040091A8F00FA
:109480003F1DBD4208EB800002D82A46514608E045
:109490003A4651460C30FCF7E9FF1648EA1B0AEB46
:1094A00007010C30FCF7E2FF4FEA1947FEF724FEF4
:1094B00047EA0042601C304008EB8000344008EB73
:1094C0008401C260C8684FF6C07269F3C50090435A
:1094D00065F39F5020F00300801C20F00400C8605A
:1094E00098F8200402E000BFFFF7A2FE0028FBD19D
:1094F000BDE8F88F3C2A002000231A4601F0D2BCB8
:1095000008B5012300926A4601F0CCFC08BD1CB5E9
:10951000CDE9002302236A4601F0C4FC1CBD000013
:109520002DE9F0470E4680461C46924608293ED853
:1095300094F80C90002020731946104601F05EFA52
:109540000025B54206D218F805201AA12046FFF7DB
:1095500061FB03E019A12046FFF75CFB6D1C082DA1
:10956000EFD317A12046FFF755FB0025B54210D2D7
:1095700018F80570FCF776FF0068C05D10F03E0F2C
:1095800001D03A4600E02E220EA12046FFF742FB12
:1095900003E00DA12046FFF73DFB6D1C082DE5D330
:1095A00001222146504601F00BFA84F80C90BDE8E8
:1095B000F0870000202530327800000020202000B5
:1095C0007C0000002563000020000000104810B55A
:1095D000FF218160002101604160C0F81814C0F8CB
:1095E000141480F820140B4800F0F0F800280DD176
:1095F00009480A490A4B401AC108002003E000BF8D
:1096000023F82000401C8842FAD3002010BD00003F
:109610003C2A0020E0C00200E0C0020058C0020066
:109620007421002002480349401AC0087047000016
:10963000E0C0020058C0020013B56846FFF7E2F828
:1096400008B100201CBD0248009950F831001CBD33
:1096500058C0020070B508480125D0F8104480F8C1
:10966000205405E06572216820464968884764688F
:10967000002CF7D170BD00003C2A00202DE9FF47E7
:1096800081460C9D00200C462F7B28739846164679
:109690002946184601F0B2F9072E42D2DFE806F05B
:1096A00004090F161F2A360049462846FFF7B2FA6A
:1096B00037E0494628462268FFF7ACFA31E0D4E9A2
:1096C000002349462846FFF7A5FA2AE0A068009043
:1096D000D4E9002349462846FFF79CFA21E0D4E963
:1096E0000201CDE90001D4E9002349462846FFF7ED
:1096F00091FA16E004F1080007C88DE80700D4E9E4
:10970000002349462846FFF785FA0AE004F10800DD
:109710000FC88DE80F00D4E9002349462846FFF71B
:1097200079FA00222946404601F04AF92F73BDE834
:10973000FF872DE9F041858A80462D1F4819C01CFE
:10974000B0FBF5F0C6B24046FFF7D2F8041E19D0C0
:109750000020207101206071E58000272546761EDB
:10976000C4F800800BE04046FFF7C2F860B16179B1
:10977000491C6171286005467F1CC0F80080B74213
:10978000F1D32046BDE8F081204600F002F8002029
:10979000F8E72DE9F041457901466B1E002201E012
:1097A0000968521C9A42FBD30F680146002605E067
:1097B00038460C68FFF7BEF82146761CAE42F7D358
:1097C000BDE8F0810121001DFFF770B8FFF7CAB8AE
:1097D00010B504460121001DFFF784F810F0FF0FBB
:1097E00004D12046BDE81040FFF7D3BF10BD38B507
:1097F00001240094FEF7CAFF38BD38B50024009458
:10980000FEF7C4FF38BD0000064910B500204870BF
:10981000091D0860BFF35F8F0349044800F030FA68
:10982000002010BDF020002060B60200302900208A
:1098300008B500208DF800006846FDF761FDF1EEE7
:10984000100A20F09F00E1EE100ABFF35F8F084975
:109850004020C1F880029DF80000FDF775FD00F082
:10986000DDF908B141DF08BD20BF40BF20BF08BD02
:1098700004E000E020B1034909680160002070475E
:109880000E2070474CB80200FEB502460E46084650
:10989000FFF7F0FF00286CD100240094019401250B
:1098A00006208DF80020ADF8040002948DF80250D7
:1098B00069462020326869DF2E4F48B100F024FA53
:1098C0003988024605EB01432B491846FFF718FE7D
:1098D00000948DF801408DF80250019402948DF8A7
:1098E000035069464020326869DF40B100F00CFA4D
:1098F00002463888214905EB0040FFF701FE00943D
:109900000A208DF800000194029469460120326813
:1099100069DF40B100F0F8F902463888184905EBD4
:109920000040FFF7EDFDF820009001940294694695
:10993000A120326869DF40B100F0E6F902463888BC
:10994000104905EB0040FFF7DBFD00940194029401
:109950008DF800406946A020326869DF40B100F010
:10996000D3F902463888084905EB0040FFF7C8FDE7
:109970000020FEBDB0210020ECBE020034BF02007A
:109980004CBE020098BE0200F8BD02002DE9F04175
:109990000446D0F8008060DF2168194D0746414534
:1099A0001CD92888022606EB004016A1FFF7A4FD6B
:1099B0002888424606EB00401EA12368FFF7A7FD5A
:1099C000F006D0F80C012168800200F10050421A24
:1099D000288825A106EB0040FFF792FD012467B11E
:1099E000384600F091F9024628882AA104EB00408D
:1099F000FFF786FD3846BDE8F0812E480470F9E790
:109A0000B0210020496E73756666696369656E747E
:109A10002052414D20616C6C6F63617465642066F7
:109A20006F722074686520536F667444657669634D
:109A3000652E00004368616E67652074686520527A
:109A4000414D207374617274206C6F636174696F2F
:109A50006E2066726F6D203078257820746F20300C
:109A60007825782E000000004D6178696D756D20B5
:109A700052414D2073697A6520666F722061707063
:109A80006C69636174696F6E206973203078257822
:109A90002E00000073645F626C655F656E61626CCE
:109AA0006528292072657475726E65642025732E91
:109AB000000000006F21002030B5144891B00078FC
:109AC000002820D05FF03405ADF8405010A903A85D
:109AD00061DF30B1052816D011B0BDE83040FDF788
:109AE00071BB03AC0A49684600F0CAF807E000BF42
:109AF000D0E9002120469047684600F0D8F8029847
:109B00000028E1D0F4E711B030BD00006F21002043
:109B100050B80200F8B5134C2078C0B10120A070F5
:109B200001F022F9112814D0022001F035F90025A6
:109B30008DF800506846FDF7E3FB11DF06462570FF
:109B40009DF80000FDF700FC2EB13046F8BD08205E
:109B5000F8BD0020F8BDA57001F060F9032001F008
:109B60001BF9F6E76C2100207CB5204C207808B169
:109B700008207CBD0120A070002001F0F5F811281C
:109B800019D0002001F008F919480026006801905A
:109B90008DF800606846FDF7B3FB164901A810DF99
:109BA00005000AD0002020709DF80000FDF7CCFBD6
:109BB0002DB128467CBD00207CBD0120F3E7A670B6
:109BC00066700721162001F085F808B1FDF7FAFA52
:109BD0000721152001F07EF808B1FDF7F3FA01F036
:109BE00039F9012001F0D8F8E5E700006C210020E8
:109BF000E4B70200497102000EB50749684600F05B
:109C00003FF805E0D0E900108847684600F04FF8BB
:109C100002980028F6D10EBD00B802000148007875
:109C2000704700006C2100200548817819B1007848
:109C300018B1FFF76FBF08207047FFF795BF00000E
:109C40006C2100201FB568464BDF30B1052814D0C9
:109C500004B0BDE81040FDF7B5BA084901A800F00E
:109C60000FF806E0D0E900210098904701A800F025
:109C70001EF803980028E6D0F4E71FBD6CB8020078
:109C8000016009684160AFF3008010B5D0E90021A0
:109C90005368994201D1002104E0D1E90034A34284
:109CA00002D01946816010BD08314160F0E781683B
:109CB00000290BD0026892680A44826041684B68B0
:109CC0009A4203D108314160FFF7DFBF70470000BF
:109CD0000C4A10B502F594730EE0991AC91001EB05
:109CE000D171491002EBC1010C68844201D90B46C5
:109CF00002E005D201F108029A42EED3002010BD25
:109D0000486810BD80B6020000B5FFF7E1FF0028EB
:109D100000D1014800BD00006CB602004058002888
:109D200000D00120704708B50022425040580090F2
:109D300008BDD0F80403084000D001207047405807
:109D4000002800D00120704708B50022425040583A
:109D5000009008BD08480068012110F0010F08D1EB
:109D60004FF0E020E02280F80024C0F88012C0F814
:109D7000001102480160704700E100E01805004052
:109D80000649024600200B790BB1852070470A6016
:109D900001220A7100224A71704700008C200020C5
:109DA00004490120086004480168C1F3004100290A
:109DB000FAD170470C00004018040040002802D07F
:109DC000014980010847704721B602002DE9F041A2
:109DD0008846054600F0DCFD234E002828461AD0B0
:109DE000FDF73EFF304490F848008009032802D078
:109DF00001280ED007E04FF0A040D0F81005E84051
:109E000010F0010F05D003212846BDE8F041FFF70F
:109E1000F5B80221F8E700F0C7FD002822D0284657
:109E2000FDF71EFF04464FF4807000EB84000F4FD7
:109E300081B207EB8400D0F8102542F00102C0F88F
:109E400010250846FFF70AF9B8F1000F0AD0284696
:109E5000FDF706FF56F82000002803D00120A0409F
:109E6000C7F80403BDE8F081AC2600200060004084
:109E70002DE9FC41DFF8BC80044608EB0400002714
:109E800090F930001346C0170E46401C01D0082739
:109E90004CE0B0781946C0F340022046FDF7BCFE06
:109EA0000546401C41D0B078410719D4C0070AD0FC
:109EB0004FF0A04000EB8401D1F8000720F0020031
:109EC000C1F8000707E000217378204600910A4698
:109ED0000191FFF725F8174920465431FEF762FD3E
:109EE000B078800718D51448317800EB8500D0F899
:109EF0001025124B1A40C0F810254FF4F8524FF4B9
:109F0000403302EA042203EA01410A43D0F8101563
:109F10000A43C0F8102509E008EB0500327810F874
:109F2000481F41EA8211017000E004273846BDE86D
:109F3000FC810000AC26002000600040FFE0FCFF38
:109F40004FF0A041D1F81015C14011F0010000D030
:109F50000120704770B5184D95F8580008B10820D9
:109F600070BD0020411E2A18401CC0B282F830107B
:109F70002028F8D300242046FDF740FE641CE4B2FC
:109F80000C2CF8D300240D49E0206C6581F8000406
:109F900001264020891FC1F88002C1F800014FF45A
:109FA000BE70FFF75BF80649F007C1F8040385F8B7
:109FB0005860204670BD0000AC26002006E000E09E
:109FC00000600040034890F85800002800D00120AD
:109FD00070470000AC2600200121B1EB507F01D179
:109FE000012070470020704738B50D4600F052FD43
:109FF000040014D000208DF800006846FDF780F9B9
:10A00000207928B19DF80000FDF79EF9112038BD98
:10A010000120256020719DF80000FDF795F90020D2
:10A0200038BD10B500F036FD002802D000210160D7
:10A03000017110BD0149024801F0EEB80827002067
:10A04000002000402DE9F0410546007916460F46F4
:10A0500000EB40012D4A01EBC00102EB810494F8B2
:10A060002A1011B10820BDE8F081294951F82010CB
:10A070002868FFF7B9FF08B11120F4E739462846F0
:10A08000FDF77CF966603869206030004FF001060A
:10A090002FD03F7F4FF48E712868FFF744FE4FF4B6
:10A0A000A2712868FFF73FFE28681A49C0F8041318
:10A0B00028684FEA4711000B40B2002806DA00F08A
:10A0C0000F0000F1E02080F8141D03E000F1E02013
:10A0D00080F800142868000B40B200F01F0206FA56
:10A0E00002F14009800000F1E020C0F88012C0F8C1
:10A0F000001128680421C0F800150020A061E0616B
:10A1000084F8290044F8140FA675ACE7082700204E
:10A110000CB60200800002002DE9F04705460079E8
:10A120000B4600EB400101EBC000234901EB80042A
:10A13000284600F043F810B11120BDE8F0874FF039
:10A140000008C4F82080A360626184F828804FF47E
:10A150008E76474631462868FFF7E5FD28684FF0C0
:10A160000109C0F808902146286800F0F1FF6068F6
:10A1700000BBD5F800A00EE094F8280008B10F2726
:10A1800016E031465046FFF7C9FD0028F4D02146BD
:10A19000504600F0DDFF216A60698142F1D331460B
:10A1A0002868FFF7BBFD0028F9D02868C0F80C909C
:10A1B000C4F814803846C0E708270020007900EB77
:10A1C000400101EBC000044901EB80004069002818
:10A1D00000D0012070470000082700202DE9F0473B
:10A1E000044600794FF0000900EB400101EBC0008C
:10A1F000254901EB80072068C0F80095786880B198
:10A2000020682249C0F8081320680121000B40B2E1
:10A2100000F01F0291404009800000F1E020C0F8EA
:10A2200080112068D0F80C25D0F81485D0F8086586
:10A23000D0F810554FF0FF31C0F81415C0F80C15C8
:10A240002068C0F80815C0F81015501C02D0104640
:10A25000FEF79CFEB8F1FF3F02D04046FEF796FEA7
:10A26000681C02D02846FEF791FE701C02D03046D2
:10A27000FEF78CFE2068FFF7D4FE87F82A90C7F817
:10A280000490BDE8F0870000082700208402020047
:10A290000149024801F06CB834270020002000403A
:10A2A0002DE9F0410546164600790F46154A00EBA8
:10A2B000C00102EB810494F8201011B10820BDE820
:10A2C000F081114951F820102868FFF78DFE08B180
:10A2D0001120F4E739462846FDF794F8666038699E
:10A2E00020601EB1397F2846FDF7F0FF286808215D
:10A2F000C0F800150020A061E0610121606184F8D0
:10A300002010DCE73427002010B602002DE9F047CA
:10A3100004460E460079204900EBC00001EB8005A1
:10A3200017463046FFF758FE30B1204600F036F8A9
:10A3300020B11120BDE8F0871020FBE76F61AE600F
:10A340004FF49076002731462068FFF7FDFC4FF46C
:10A35000AC7841462068FFF7F7FC2068AA68696975
:10A36000C0F84425C0F8481520680121816068685C
:10A3700078B9B14649462068FFF7E1FC06464146F8
:10A380002068FFF7DCFC0643F4D000B10F27002063
:10A3900068613846CEE7000034270020007905497F
:10A3A00000EBC00001EB80004069002800D00120D4
:10A3B00070470000342700202DE9F047044600795B
:10A3C000274900EBC00001EB800720684FF000092F
:10A3D000C0F80095786880B120682249C0F8081359
:10A3E00020680121000B40B200F01F02914040099B
:10A3F000800000F1E020C0F880112068D0F80C2522
:10A40000D0F81485D0F80865D0F810554FF0FF311A
:10A41000C0F80C15C0F814152068C0F80815C0F86D
:10A420001015501C02D01046FEF7B9FDB8F1FF3FE1
:10A4300002D04046FEF7B3FD681C02D02846FEF766
:10A44000AEFD701C02D03046FEF7A9FD2068FFF774
:10A45000E8FD87F82090C7F80490BDE8F087000079
:10A46000342700201003020070B50446D0F8022003
:10A47000A169D0F806008AB08B78542B08D1CB782C
:10A48000522B05D10B79412B02D14979582903D0A0
:10A49000194900208ADF29E0C2F30721C2F30743EC
:10A4A000120EC5B2CDE90231CDE90052C0F3072347
:10A4B000C0F3074211A104A8FCF70CFB174D0326BB
:10A4C00094F91330288804AA06EB004014A1FFF782
:10A4D0001EF82888A28B06EB0040A169FEF7B8FFA2
:10A4E000FEF7A6FE0028FBD103498ADF002801D031
:10A4F000FCF768FE0AB070BD741D0020253032588C
:10A500003A253032583A253032583A253032583AC6
:10A51000253032583A25303258000000A82100205A
:10A520005061636B65742052656365697665642C60
:10A5300020616464726573733A2025732C207369FB
:10A54000676E616C20737472656E6774683A20255B
:10A5500064205061636B657420446174613A00004B
:10A560002DE9F84F05460C460888B5F8CA1288420E
:10A5700059D195F8C602DFF8F8A000EB8001C1EBD5
:10A58000801005EB400160884FF003094FF0000890
:10A59000F0BBE6880879A21DF3B250FA86F6062EC3
:10A5A00001D8034400E006230B7100261CE000BF25
:10A5B00000EBC00306EB860702EB470701EB430302
:10A5C000D7F802C0C3F80AC0D7F806C0C3F80EC057
:10A5D0007F895F82A3F81480A3F81680A3F81880FF
:10A5E000401CA3F81A80761C0B798342E0D895F8BA
:10A5F000C62200EBC00002EB8203C3EB821205EB24
:10A60000420231F81000128990420ED2087900E01F
:10A610000BE0062809D085F8C50221882846FDF7F9
:10A6200027FB01000AD1BDE8F88F85F8C582228892
:10A6300069462846FDF73AFC01000BD085F8C78231
:10A6400022882846FDF70CFD8AF800902188AAF898
:10A650000210E8E79DF800000028E4D022880121DC
:10A660002846FDF7B5FC2188284600F053F9DAE7C3
:10A67000F822002070B58D88027900EBC5042273A2
:10A68000C97BA41D012902D0022904D101E0008860
:10A6900000E0408820802188608881420FD92846C8
:10A6A000A5DF0126A0B1112814D0FFF72DFB02462B
:10A6B0000A480BA1008806EB0040FEF721FFA179B4
:10A6C000E079814208D92846BDE87040FDF78ABB91
:10A6D0006671F4E72671F2E770BD00007821002072
:10A6E00073645F626C655F67617474635F657863F0
:10A6F00068616E67655F6D74755F726571756573AE
:10A700007428292072657475726E65642025732E15
:10A7100000000000F8B505460C460888B5F8CA12D6
:10A7200088425DD195F8C602A61D00EB8001C1EB01
:10A73000801005EB400395F8C502618800EBC0006E
:10A7400003EB40000A3039B329E000BF01EB4102BE
:10A7500006EB42029788B7F5245F0CD06FF4245CB7
:10A7600017EB0C070AD0012F02D0072F0BD108E0FE
:10A770005288428107E05288828104E05288C28177
:10A7800001E05288028242892AB182891AB1C289C3
:10A790000AB1028A1AB9491C32888A42D6D80026E0
:10A7A0008DF8006095F8C5021979401C884203D1E4
:10A7B00001208DF8000018E085F8C502228869465E
:10A7C0002846FDF773FB01000BD085F8C76222888D
:10A7D0002846FDF745FC0A48032101702188418085
:10A7E000F8BD9DF800000028FAD0228801212846F3
:10A7F000FDF7EEFB2188284600F08CF8F8BD00003C
:10A80000F82200207CB506468D88C88806EBC50472
:10A81000A41D172800D217202188814200D808469D
:10A8200060800020207121882846B5DF50B1FFF7F5
:10A830006BFA02460E480121008801EB00400DA191
:10A84000FEF75EFE6079002810D1306900280DD037
:10A850001449D1E90201CDE90001ADF80250608848
:10A86000ADF8040032696946304690477CBD00006F
:10A870007821002073645F626C655F676174747334
:10A880005F65786368616E67655F6D74755F72653B
:10A89000706C7928292072657475726E6564202544
:10A8A000732E0000E0B5020070B505460C4690F826
:10A8B000C602228800EB8001C1EB801005EB40014D
:10A8C000B5F8CA02824222D1608848B100212846E8
:10A8D000FDF77EFB21882846BDE8704000F01AB8DD
:10A8E000A2680A60E068C1F8060021882846FDF7E2
:10A8F000BFF901000BD0002085F8C7022288284646
:10A90000FDF7AEFB0248032101702188418070BD34
:10A91000F82200202DE9F041044690F8C9020E46C5
:10A92000401C1949C0B284F8C902C9680327174DF1
:10A930004FF0000E884224D284F8C5E294F8C60293
:10A94000401CC0B200EB8001C1EB801104EB41025E
:10A9500084F8C602A5F1180101EB8000012100680E
:10A96000106082F804E030469BDF010007D084F8D5
:10A97000C7E232462046FDF773FB2F706E80BDE8BC
:10A98000F08184F8C7E2F8E768200020F822002070
:10A990000449084490F93000082801DB0120704781
:10A9A00000207047AC2600200449084490F930008C
:10A9B000082801D20120704700207047AC260020F3
:10A9C00010B50C46017A052908D0407A38B10848FC
:10A9D00008A102682046FEF71DF900E01AB106A1A1
:10A9E0002046FEF717F92046BDE81040FEF71FB9D4
:10A9F00048210020257300000D0A000038B5C388E7
:10AA00000D46044633B114A0009015A216A12846A5
:10AA1000FEF700F9217A05291CD0607A48B1A08898
:10AA2000FEF7E0FB164951F8202016A12846FEF754
:10AA3000F1F8A0880021FEF7FFFD03461049207AB7
:10AA4000143951F8202001B02846BDE830400EA14D
:10AA5000FEF7E0B838BD00001B5B306D0000000061
:10AA60001B5B313B33316D0025734C6F6773206482
:10AA7000726F70706564202825642925730D0A00A3
:10AA800048210020257300003C25733E2025733AA1
:10AA9000200000000349884201D10348704700208C
:10AAA0007047000000200040942000200348024925
:10AAB0000068FDF7BFBE0000EC20002038B60200A1
:10AAC0002DE9F041234C0025234E207A012730B98F
:10AAD0002248311D0068FDF7B8FE306038B1022011
:10AAE00020723168087928B101281ED116E065600E
:10AAF000BDE8F081D1E90503C01A4FF480529042BD
:10AB000000D31046B7EB900F01D2820800E001227B
:10AB10000869C9681844194429DF03E0D1E9030131
:10AB2000084428DF58B1112812D003213068FDF7FE
:10AB30000DFB25726560BDE8F041FFF7B7BF207CD3
:10AB40000028D5D1BDE8F04100210220FEF784B9EC
:10AB50002772CDE71C290020E820002038B602002B
:10AB600070B50C4B00210A4ADC680DE002EB810550
:10AB70008678AD78B54206D132F821500688B542C4
:10AB800001D1586870BD491CA142EFD3002070BDAF
:10AB9000E02200206820002000B58FB02021684608
:10ABA000FBF77DFC1E208DF80000FF208DF80100D2
:10ABB00052208DF8020045208DF8030050208DF8BA
:10ABC00004004F208DF8050010481F21C0F800D068
:10ABD0008180182108A8FBF762FC01208DF8350060
:10ABE000002005218DF82010ADF82C0009908DF87B
:10ABF0003400102005490A9008AAA1F5387072DFC8
:10AC0000002801D0FCF7DEFA0FB000BD5020002074
:10AC100070B5012670044FF0E0210025C1F88001D5
:10AC2000084C4010C4F84803C4F8080366602F209D
:10AC3000FFF7C4F8A660044C2F20A560FFF7BEF80C
:10AC4000A57070BD00100140C020002070B5054601
:10AC500088690C4600284FF4847128460AD0FFF713
:10AC600062F8D5F81805626AE1688854606A401C89
:10AC7000606270BDFFF757F8D5F8180570BD1FB5B5
:10AC800001238DF80030CDE90121D0E9001268469A
:10AC900090471FBD1FB501238DF800308DF80810B7
:10ACA0000192D0E90012684690471FBD10B58BDFB6
:10ACB000064907488ADF08B1FCF784FA0120FCF74F
:10ACC000D1FEBDE810400020FCF7D4BE741D00206A
:10ACD0004CB5020070B50D460446FBF71FFF70B17E
:10ACE0002846FBF72DFF68B16807000E002C0CDA30
:10ACF00004F00F0101F1E02181F8140D09E042F2A6
:10AD0000010070BD42F2020070BD04F1E02484F83D
:10AD10000004002070BD000038B50021012548B1B5
:10AD200001280CD0032809D1FFF714F8BDE83840FA
:10AD3000FDF724BF4FF0E020C0F8805138BD8DF8FA
:10AD400000106846FCF7DCFA064C207808B9FDF7DD
:10AD5000F9FEE068401CE060A5709DF80000FCF77B
:10AD6000F3FA38BD982600203EB5044609496846E6
:10AD7000FEF786FF08E000BFD0E90021204690479B
:10AD800030B16846FEF793FF02980028F4D13EBD2B
:10AD900011203EBDE8B702003EB5044608496846AA
:10ADA000FEF76EFF07E000BFD0E900212046904784
:10ADB0006846FEF77CFF02980028F5D13EBD0000F2
:10ADC000F4B7020070B50D4C0020D2B22070201DE7
:10ADD0000B4D0378EB5C1BB1001DFFF797FA02E007
:10ADE0000C30FFF799F908B1FCF7ECF9607800280E
:10ADF00002D021780029FAD070BD0000F820002090
:10AE000080200020002805D103490120487000203F
:10AE1000FCF750BF704700009826002010B51620A0
:10AE2000FBF77CFE48B10A4882684FF4800152B1BA
:10AE3000016821F48001016010BDBDE8104042F2BC
:10AE40000100FCF7BFB94FF0E020C0F8801110BD41
:10AE50008428002010B51620FBF760FE80B10F4853
:10AE600090F800044009FBF76BFE60B10C48826863
:10AE70004FF480016AB1016841F48001016010BDA6
:10AE800042F2010001E042F20200BDE81040FCF78E
:10AE900099B94FF0E020C0F8001110BD16E000E0B5
:10AEA000842800202DE9F84F204D92468946064619
:10AEB0009846012269461846AF68FCF70FFE58B362
:10AEC000009800210446801C09E000BF00EA070347
:10AED0005AF8212005EB8303401C491CDA604145E8
:10AEE000F4D34FEA164AFDF707F94AEA0041601C1D
:10AEF000384005EB80003C4005EB8402C160D0681F
:10AF000066F3C50068F3891069F39F2020F0030001
:10AF1000401C20F00400D06095F8200402E000BF3F
:10AF2000FEF786F90028FBD1BDE8F88F3C2A002007
:10AF30002DE9F84F1D4C00256846D4E901A6FDF720
:10AF4000E5F8002738B30023009A61681CE0D1F8C7
:10AF500000C00846944503D9ACEB02020A6015E034
:10AF6000A2EB0C0263440760D0F80CC0C1698146B3
:10AF7000BCF1000F08D006EB030828F07F48C0E9B9
:10AF8000018CC9F81C5005460029E0D128466160B3
:10AF9000FDF7A0FA03E02846FDF79CFA10B15046F1
:10AFA000FCF7AAFEE770BDE8F88F0000C020002083
:10AFB0000D4B10B5596831B102680C68A24204D833
:10AFC000A21A0A60C161586010BD0B4603E00B462F
:10AFD000C969121B21B10C689442F8D3A41A0C6001
:10AFE0000260C161D86110BDC02000202DE9F04190
:10AFF000144E77683D462C4603E0844204D0254633
:10B00000E469002CF9D11BE0D4B1A5420BD1F86959
:10B01000706040B90C49012088600021B160F07077
:10B020002F20FEF7CBFE2168E069E86110B10268CD
:10B03000114401607068874202D00120BDE8F081B0
:10B040000020FBE7C0200020001001407CB5064630
:10B0500000240D468DF800406846FCF751F901A820
:10B0600000F05AFA70B10570094946609DF8040075
:10B0700048709DF80000FCF767F91420FBF738FBD7
:10B0800020467CBD04249DF80000FCF75DF9F7E73D
:10B09000782700202DE9F041194D6C68002C2CD048
:10B0A000184800270068A968B846401A20F07F4673
:10B0B0002068B0420CD82146361A0744E469087C5F
:10B0C00020B181F81080886949698847002CEFD148
:10B0D00029786878814206D1401CC0B26870022885
:10B0E00001D185F80180064869780C3040F821705C
:10B0F000BDE8F0411420FBF7FBBABDE8F081000089
:10B10000C02000200415014010B50F4CD4E90010F8
:10B11000884211D000EB80020C4800EB82018B7852
:10B120005BB130F822000831A3DF002804D1207978
:10B13000401C00F00700606010BD30F822008988D4
:10B140000022A1DFF1E7000078200020F825002090
:10B1500070B50C4605464FF48E71FEF7E4FD216A8A
:10B16000A068415C206A401C2062C5F81C1570BDB7
:10B170001FB500228DF80020029181680191426183
:10B18000D0E90012684690471FBD00001FB50A466F
:10B1900001788DF8001041680191017A8DF808104E
:10B1A000C0680390044850F82210001F50F8222075
:10B1B000684690471FBD00008820002001490120FB
:10B1C00008707047F820002010B588B0044620228F
:10B1D0000E496846FBF74AF906200090C01F01900F
:10B1E000029003904FF0EB7006900CB1084A00E01B
:10B1F000002269460748FDF7D9FC08B1FBF7E2FFDA
:10B200000448001F447008B010BD0000B4B702002D
:10B21000BDB10200FC2000202DE9FF470C46054689
:10B220004FF40071FEF785FD01274FF401780026E9
:10B2300018B34FF4927949462846FEF76FFDE0B106
:10B2400049462846FEF76FFDC5F8088394F82900A3
:10B2500000B96F6002208DF80000D5F88004C5F8B1
:10B2600080040390A0690290E0680190A661E66105
:10B27000D4E900126846904728E004212846FEF7EA
:10B2800058FD18B34FF484712846FEF747FDE8B126
:10B2900021462846FFF7DAFC616AA069884215D189
:10B2A000E06938B1E268616AA0612069E6616662BE
:10B2B000E06008E094F8290000B96F60C5F80883E1
:10B2C000A661E268616A2046FFF7D9FC4FF48E78E8
:10B2D00041462846FEF722FD78B1206A616988421E
:10B2E00002D294F8280020B341462846FEF71BFD01
:10B2F000616911B12046FFF73BFF4FF4A278414648
:10B300002846FEF70BFD002818D041462846FEF7D8
:10B310000AFD94F8290000B12F60A06900280DD023
:10B32000A661E268616A04B02046BDE8F047FFF715
:10B33000A6BC21462846FFF70BFFDEE7BDE8FF87E6
:10B340001FB50A4601788DF8001041680191017A15
:10B350008DF80810C0680390044850F82210001FB0
:10B3600050F82220684690471FBD0000882000202A
:10B370002DE9FF410C464FF4927705463946FEF71A
:10B38000DEFC0026C0B139462846FEF7DDFC02206F
:10B390008DF80000D5F88004C5F880040390D5F836
:10B3A0003C058DF80800E0680190A661E661D4E9EB
:10B3B00000126846904723E04FF4887739462846C4
:10B3C000FEF7BDFCE0B139462846FEF7BDFCD5F8D6
:10B3D0003C15A069884213D1E06960B1E268D5F8F4
:10B3E000000220F02000C5F80002E069A061206999
:10B3F000E661E06001E0A661E2682046FFF74AFCF2
:10B400004FF4A27739462846FEF799FC60B13946D9
:10B410002846FEF799FCA06930B1A661D5F83C1525
:10B420002046E268FFF736FC4FF49077394628460D
:10B43000FEF785FC002813D039462846FEF784FC29
:10B44000606900280CD0D5F84C058DF800608DF8A7
:10B450000800A06801906661D4E900126846904730
:10B46000BDE8FF812DE9F05F8346DDE90A4A994690
:10B4700090460D460846012703E000BFB0FBF8F0F8
:10B480007F1C4045FAD2B94500D94F465FEACA70E1
:10B4900012D18CB15FEA8A7002D5B9F1000F01D0E8
:10B4A000202607E0302605E031465846641EFCF7AA
:10B4B0005DFB0CB1A742F7D35FF00106B9F1010FB4
:10B4C00002D9A9F1010903E0B5FBF6F0404502D32A
:10B4D00006FB08F6F2E7DFF83C9000BFB5FBF6F09C
:10B4E00000FB165519F800105846FCF73FFBB6FB59
:10B4F000F8F6002EF2D15FEACA7009D0002C07D00E
:10B50000A74205D220215846641EFCF72FFBF5E721
:10B51000BDE8F09F26B602000A494A788B78521C93
:10B52000D2B2934200D100220B78934201D1002085
:10B5300070470270487800EB400001EBC000001D2E
:10B540007047000078270020B82100200401A000E7
:10B5500050000000000000000000111213140D0E36
:10B560000F100000010000000000000000000000BB
:10B5700000000000000000000000000000000000CB
:10B5800000000000000000000000000000000000BB
:10B5900000000000000000000000000000000000AB
:10B5A000000000000000000000000000000000009B
:10B5B000000000000000000000000000000000008B
:10B5C000000000000000000000000000000000007B
:10B5D000000000000000000000000000000000006B
:10B5E000770A000000000000770A00000000000059
:10B5F0007ADA00000000000023D1BCEA5F7823154E
:10B60000DEEF1212000000000000005035A0020022
:10B6100091A2020003000000582700200000000053
:10B620000338FDD870473031323334353637383946
:10B630004142434445460000D42000200010000051
:10B6400004000000010000000000000000000000F5
:10B6500000000000000000000000000000000000EA
:10B6600048B6020060B6020004000000556E6B6E22
:10B670006F776E206572726F7220636F6465000071
:10B68000000000001CBD020001000000C8BB020059
:10B6900002000000BCB90200030000003CBC020034
:10B6A0000400000090BC02000500000070BB020016
:10B6B000060000000CBB02000700000078BC02007E
:10B6C0000800000084BB020009000000E8BB020083
:10B6D0000A00000004BD02000B000000A4B9020033
:10B6E0000C0000009CBB02000D0000006CBD0200BD
:10B6F0000E00000068BC02000F000000A4BC0200A5
:10B7000010000000D8BC02001100000080BD020043
:10B710001200000054BD020013000000F0BC020043
:10B720008000000024BB02008100000060BA02001B
:10B730008200000020BA02008300000000BA02006C
:10B74000840000003CBA02008500000048BB0200F3
:10B750008600000050BC020090000000ECBA02001D
:10B7600091000000E0B9020092000000B0BB0200AE
:10B7700000820000B8BC02000182000004BC02008C
:10B780000282000020BC0200008400007CBA02009B
:10B790000184000028BD020002840000C4BA020037
:10B7A00003840000A0BA0200CD910200A191020022
:10B7B00099910200FFFFFFFFFFFFFFFFFFFFFFFF69
:10B7C000FFFFFFFF00000000000000000000D601A6
:10B7D0000701000028C1020030C102000000000083
:10B7E0000000000001000007D4B70200E4B7020027
:10B7F000080000000CB802001CB80200080000009D
:10B800001CB802002CB802000800000050C1020061
:10B8100060C10200000000000000000040C1020002
:10B8200050C102000000000000000000F8C002004B
:10B8300000C1020000C1020018C1020018C10200CC
:10B8400020C1020020C1020028C10200701D00209A
:10B850002CB802004CB802000800000030C1020001
:10B8600040C1020000000000000000005CB80200BF
:10B870006CB80200080000000040404040404040DA
:10B8800040404141414141404040404040404040B3
:10B890004040404040404040400502020202020257
:10B8A00002020202020202020220202020202020A6
:10B8B00020202002020202020202909090909090BA
:10B8C0001010101010101010101010101010101078
:10B8D00010101010020202020202888888888888EC
:10B8E00008080808080808080808080808080808D8
:10B8F00008080808020202024000000079B80200AD
:10B9000073645F626C655F6761705F646174615FDF
:10B910006C656E6774685F75706461746528292052
:10B92000287265717565737429206F6E20636F6E60
:10B930006E656374696F6E20307825782072657447
:10B9400075726E65642025732E00000054686520B2
:10B9500072657175657374656420636F6D62696E7D
:10B960006174696F6E206F6620545820616E642088
:10B970005258207061636B6574206C656E677468E3
:10B980007320697320746F6F206C6F6E672062790B
:10B99000202575206D6963726F7365636F6E6473C4
:10B9A0002E0000004E52465F4552524F525F494EA4
:10B9B00056414C49445F4441544100004E52465F59
:10B9C0004552524F525F534F4654444556494345A2
:10B9D0005F4E4F545F454E41424C454400000000CD
:10B9E0004E52465F4552524F525F46454154555262
:10B9F000455F4E4F545F454E41424C454400000068
:10BA00004E52465F4552524F525F4D555445585F16
:10BA1000554E4C4F434B5F4641494C454400000056
:10BA20004E52465F4552524F525F4D555445585FF6
:10BA30004C4F434B5F4641494C4544004E52465F94
:10BA40004552524F525F4D555445585F434F4E44F7
:10BA50005F494E49545F4641494C4544000000004F
:10BA60004E52465F4552524F525F4D555445585FB6
:10BA7000494E49545F4641494C4544004E52465F49
:10BA80004552524F525F424C455F495053505F52AE
:10BA9000585F504B545F5452554E434154454400F7
:10BAA0004E52465F4552524F525F424C455F49509D
:10BAB00053505F504545525F52454A4543544544B3
:10BAC000000000004E52465F4552524F525F424CBA
:10BAD000455F495053505F4C494E4B5F4449534377
