:020000040002F8
:1060000048510020C1630200C9630200CB63020053
:10601000CD630200CF630200D163020000000000E4
:10602000000000000000000000000000D363020038
:10603000D563020000000000D7630200D9630200AC
:1060400009670200DB630200C9690200DB6302002A
:10605000DB630200DB630200F1640200DB63020029
:10606000DB630200DB630200DB630200DB63020030
:10607000DB630200DB630200DB630200DB63020020
:10608000DB63020061670200DB630200DB63020086
:10609000E5670200DB630200E9670200DB630200E0
:1060A000DB630200DB630200DB630200DB630200F0
:1060B000DB630200DB630200000000000000000060
:1060C000DB630200DB630200DB630200DB630200D0
:1060D000DB630200DB630200DB630200DB630200C0
:1060E000DB630200DB630200DB63020000000000F0
:1060F00000000000DB63020000000000DB63020020
:10610000000000000000000000000000000000008F
:10611000000000000000000000000000000000007F
:10612000000000000000000000000000000000006F
:10613000000000000000000000000000000000005F
:10614000000000000000000000000000000000004F
:10615000000000000000000000000000000000003F
:10616000000000000000000000000000000000002F
:10617000000000000000000000000000000000001F
:10618000000000000000000000000000000000000F
:1061900000000000000000000000000000000000FF
:1061A00000000000000000000000000000000000EF
:1061B00000000000000000000000000000000000DF
:1061C00000000000000000000000000000000000CF
:1061D00000000000000000000000000000000000BF
:1061E00000000000000000000000000000000000AF
:1061F000000000000000000000000000000000009F
:10620000DFF80CD000F036F9004800474580020066
:106210004851002030B450E8012F93B2C489234480
:106220008489A34228BF1B1B0489A34202BFBFF37A
:106230002F8F002007E0C3EA020340E80134002C5E
:10624000E9D14FF001000A6030BC704750E8012FDF
:10625000C2EA024240E801210029F7D1704730B478
:1062600050E8022F1FFAA2F3C488A34202BFBFF373
:106270002F8F00200DE0C48923448489A34228BFC6
:106280001B1BC2EA034340E80234002CE8D14FF064
:1062900001000A6030BC704750E8022FC2EA224277
:1062A00040E802210029F7D17047034653E8022F46
:1062B000D988B2EB324F4FF0000017BF92B241EADB
:1062C000014142EA014104E05A68B2EB324F08BF93
:1062D000012043E80212002AE8D1704730B4044696
:1062E00054E8000F0D4644E80053002BF8D1156028
:1062F00030BC704730B4044654E8000F40EA010552
:1063000044E80053002BF7D1156030BC704730B41F
:10631000044654E8000F00EA010544E80053002B4E
:10632000F7D1156030BC704730B4044654E8000F14
:1063300080EA010544E80053002BF7D1156030BC1A
:10634000704730B4044654E8000F00EB010544E800
:106350000053002BF7D1156030BC704730B40446B1
:1063600054E8000FA0EB010544E80053002BF7D1DF
:10637000156030BC704770B404464FF0000054E81C
:10638000006F0D68AE4207BF44E80023012044E8D7
:1063900000630E60002B1CBF0020F0E770BC70474C
:1063A00030B4044654E8000F88422CBF451A054615
:1063B00044E80053002BF5D1156030BC7047000055
:1063C0000648804706480047FEE7FEE7FEE7FEE78F
:1063D000FEE7FEE7FEE7FEE7FEE7FEE7ED67020009
:1063E00001620200202A04DB203A00FA02F10020B8
:1063F00070479140C2F1200320FA03F31943904003
:106400007047000000487047E0A7020040EA01031F
:106410009B0703D009E008C9121F08C0042AFAD25A
:1064200003E011F8013B00F8013B521EF9D270471E
:10643000D2B201E000F8012B491EFBD270470022C6
:10644000F6E710B513460A4604461946FFF7F0FF73
:10645000204610BD421C10F8011B0029FBD1801AF8
:106460007047034611F8012B00F8012B002AF9D1DF
:1064700018467047064C074D06E0E06840F00103FF
:1064800094E8070098471034AC42F6D3FFF7BCFEFF
:106490001CAF02003CAF020070B58C1810F8015B15
:1064A00015F0070301D110F8013B2A1106D110F8AD
:1064B000012B03E010F8016B01F8016B5B1EF9D1B1
:1064C0002B0705D40023521E0DD401F8013BFAE737
:1064D00010F8013BCB1A921C03E013F8015B01F8A2
:1064E000015B521EF9D5A142D8D3002070BD000037
:1064F0002DE9F04F00268DB0DFF8A081B14604965B
:106500004FF48075012437460596284602F05CFA60
:1065100038B1D8F80403204203D0284602F04AFAE2
:1065200026432D1D64007F1CADB2082FEDD34FF420
:10653000BE74204602F048FA48B1204602F03AFA0A
:1065400046F0004604AA0221002002F01DFA544C35
:1065500016F0FF0F15D00127002537420DD008EBAC
:106560008501D1F81005D1F81015C0F3052054F8B5
:106570002520C1F3014102B190477F006D1C082D19
:10658000EBD3002E7EDA0020CDF82890411E0DF1CD
:10659000100B07AACDF82C9042F82010401C914611
:1065A0000228F9D300252E46A11911F8607F91F930
:1065B000000027F0C008401C40D007A9404601F069
:1065C000DFFE40B34FEA971A404601F077F854F8DF
:1065D00020701FB1BAF1030F03D006E0BAF1030F28
:1065E0002CD10AA9404601F0D3FE02A8CDF80880BC
:1065F00002F09EF9029900EB8100D0F8000704A98F
:10660000C0F301400290404601F0BAFE0028029813
:1066100002D0022802D011E003280FD1BAF1030FF3
:1066200008D10298022833D00221404602F05AF9DC
:106630006D1CEDB217B151464046B847761C042E8A
:10664000B2D3002D21D001AA0221002002F09CF932
:1066500000205A460DF1040152F8206051F8203014
:10666000B34217D000200AAE4FEA090351F8207058
:1066700042F8207056F8207043F82070401C022821
:10668000F4D300E001E0002D8CD10DB0BDE8F08F17
:106690000321CAE7401C0228DED3F6E70060004071
:1066A0008826002000F01F0201219140400980004F
:1066B00000F1E020C0F88012704700F01F020121B5
:1066C00091404009800000F1E020C0F800117047BF
:1066D00000F01F02012191404009800000F1E020FC
:1066E000C0F8001270474907090E002806DA00F0CA
:1066F0000F0000F1E02080F8141D704700F1E02049
:1067000080F800147047000070B54FF48076304672
:1067100001F0FEFE114CB50560B1304601F0FFFE00
:106720000120C5F80803607920B901206071216853
:10673000002088474FF48276304601F0E9FE0028B9
:106740000AD0304601F0EBFE0220C5F808032168AC
:10675000BDE870400120084770BD00008020002087
:1067600007480021C0F84011C0F84411C0F8481192
:10677000C0F84C11C0F80011C0F8041103F08ABD34
:106780000010014000F026B970B50E46144900EB28
:10679000400001EBC0051446E86A183520B1012815
:1067A0000FD0022805D113E0284600F047F9A04297
:1067B00001D2002411E022463146284600F076F945
:1067C0000BE0284600F03AF9A042F4D20446F2E782
:1067D0003146284600F03DF90446204670BD0000D1
:1067E000BC2E002003F0A4BC02F03CBE30B54FF03C
:1067F000805000228300D0F83011C3F80C21C3F878
:106800001021624B1A60624B1B68624C2360604B24
:106810001B1D1B68241D23605D4B08331B68241D52
:1068200023605B4B0C331B68241D2360584B1033D3
:106830001B68241D2360564B14331B68241D2360E2
:10684000534B18331B68534C20342360504B1C337C
:106850001B68241D23604E4B20331B68241D2360BE
:106860004B4B24331B68241D2360494B28331B6882
:10687000241D2360464B2C331B68241D2360444B8E
:1068800030331B68434C40342360414B34331B6826
:10689000241D23603E4B38331B68241D23603C4B72
:1068A0003C331B68241D2360394B40331B68241D77
:1068B00023600124082902D1D0F8343113B108290A
:1068C00004D006E0354B3449196005E0D0F8343186
:1068D00013B1082904D006E0314BFB21196005E013
:1068E000D0F8343113B1082908D00EE090F85832AE
:1068F0002C48016863F30301016002E0D0F83431F1
:106900001BB929494FF40070086028480168C9077D
:1069100002D06FF0010101602548016841F4700167
:106920000160BFF34F8FBFF36F8F4FF01021D1F88D
:106930000002002803DBD1F80402002822DA1D4BF4
:106940001C601D480468002CFCD01224C1F80042D1
:106950000568002DFCD0C1F8044201680029FCD074
:106960001A6001680029FCD0BFF34F8F10487C38B3
:106970000168124A01F4E06111430160BFF34F8FD7
:1069800000BFFDE70F490E48086030BD38050040E4
:106990000404001020C50040488103008C560040CC
:1069A00018F50040E40E004040960240000400400C
:1069B00088ED00E004E5014000E401400400FA0530
:1069C0000090D0034C2100200148006800470000DF
:1069D0008820002010B5124C02202061606111A0B7
:1069E000A06104F17800E0614FF4007020620020A3
:1069F000A06260620BA1A164E06204F51E71E16413
:106A00001021A065C4E91410E06509A1E01DFFF79D
:106A100028FD08A12046FFF724FD2020A07110BD0D
:106A2000BC2E00205465726D696E616C0000000020
:106A30005254540053454747455200000269C1680B
:106A40008A4203D88068401A104400E0501A401E61
:106A500070472DE9F047C4681746894606464FF04F
:106A600000083069A04201D9051B02E0B168201A74
:106A70000D1AB0686D1E001BA84200D80546BD4225
:106A800000D33D4670682A4620444946FFF7BEFCC5
:106A9000B0687F1B2C44A844A944A04200D1002424
:106AA000F460002FDDD14046BDE8F0872DE9F041CC
:106AB00004468846D4E90207C51BE16860681646AB
:106AC0000844B54206D94146FFF7A0FCB819E0607A
:106AD000BDE8F0812A464146FFF798FC761B08EB9B
:106AE000050132466068FFF791FCE660F0E702E0DE
:106AF00008C8121F08C1002AFAD170477047002049
:106B000001E001C1121F002AFBD17047012120289A
:106B100003DA81400548014003E0402802DA2038CA
:106B2000814009B10120704700207047FC06FFBD7D
:106B300010B50B4C607828B100F032F8002243F613
:106B40009A1104E003F06EF9002240F266610548F4
:106B500000F038F9607880F00100607010BD00002E
:106B6000701D0020D821002010B501220221002034
:106B700000F0C0FC08B1072810D107220221012033
:106B800000F0B8FC08B1072808D100210A22084605
:106B900000F0B0FC08B1072800D1002010BD0000B3
:106BA00000B58FB020216846FFF749FC1E208DF804
:106BB0000000FF208DF8010054208DF802005220C3
:106BC0008DF8030041208DF8040058208DF8050051
:106BD00010481F21C0F800D08180182108A8FFF7B5
:106BE0002EFC01208DF83500002005218DF82010A5
:106BF000ADF82C0009908DF83400402005490A902A
:106C000008AAA1F5387072DF002801D000F090F8D2
:106C10000FB000BD5020002070B50024064D06E0E6
:106C20006868012110F8340002F0EAFC641C28783E
:106C30008442F5D3002070BD90200020F8B51546A1
:106C40000C460646052A01D20720F8BD02F0D0FD09
:106C500018B902F093FD0028F7D1124900224E60C6
:106C60000C708D60C1E90422C1E906220E4D0DE0D1
:106C700006EBC4002968009181788DF80110007836
:106C80000A4A694602F008FD0028DED1641EE4B21B
:106C9000EED2BDE8F84004480021054A001D00F08E
:106CA00053B8000090200020FCA40200FD7B0200ED
:106CB0009579020072B602F011F900BF01F050FFA1
:106CC0000028FBD1104C0121208801EB00400FA1CE
:106CD00002F056F810480068C00700D000BE2088B7
:106CE000022101EB00400DA102F04AF8BFF34F8FE3
:106CF0000948E43801680D4A01F4E061114301607C
:106D0000BFF34F8F00BFFDE784210020466174610F
:106D10006C206572726F7200F0ED00E0537973744D
:106D2000656D207265736574000000000400FA054B
:106D30000EB500210091CDE901106A4644F2010030
:106D4000FFF7B8FF0EBD0000084B9B7823B12AB1B6
:106D500020B10068037C1BB10820704707207047F2
:106D600000230374417442611846704714270020C1
:106D700070B503F093F8104800240B2104704470A0
:106D80000E4D817014206C602C706C70FFF78AFCC3
:106D900007211420FFF7A7FC1420FFF78EFC0848FA
:106DA000046007211120FFF79EFC0548001F0068C2
:106DB000A860002070BD000014270020B020002033
:106DC000081501402DE9FC47DFF8789099F802306A
:106DD00073B368B3052902D20720BDE8FC87436975
:106DE00033B3437C012B25D0002704460025884679
:106DF00016468DF80050684600F038F801A803F0F8
:106E000001FBC8B1012101700F4944600968C0E964
:106E10000218C0E904769DF8040089F801009DF885
:106E2000000000F047F81420FFF752FC2846D4E792
:106E30000820D2E70F46D8E704259DF8000000F0AF
:106E400039F8F3E714270020041501400649897832
:106E500039B130B1416921B100210174022103F03F
:106E6000F5B90820704700001427002030B5EFF373
:106E7000108172B60D4A9468012324B10370002971
:106E800000D162B630BD93604FF0E023D3F880515B
:106E9000074C25401560C3F88041D3F88441546005
:106EA0005A17C3F8842100220270E8E72028002046
:106EB000FC06FFBD0B498A68002A11D000280FD1BB
:106EC000EFF3108072B60B684FF0E022C2F8003189
:106ED0004B68C2F8043100228A60002800D162B6F3
:106EE000704700002028002070B540B10C4D297873
:106EF00039B1044602F07AFF28B1002070BD0E209F
:106F000070BD082070BDE868062807D205492268D0
:106F100001EB8001401C0A60E860EEE7042070BDD0
:106F200068200020BC22002040B105490022012336
:106F3000CA600B70C1E90102104670470E2070470D
:106F40006820002070B504002DD000292BD02048E7
:106F50000078002827D020880D46112815D0302829
:106F600004D0322807D033281ED109E0211D28463D
:106F700002F0ECFD18E0211D284602F043FC13E06E
:106F8000211D284602F018FD0EE0A088B5F8CA12AF
:106F9000884209D1002085F8C70285F8C8024FF65B
:106FA000FF70A5F8CA0270BD95F8C8020028FAD093
:106FB00020883028F7D34F28F5D8A088B5F8CA1212
:106FC0008842F0D12846BDE8704000F095BD000031
:106FD0006820002048B1084A137843B1D26832B122
:106FE00090F8C7222AB1112070470E207047082060
:106FF000704700F081BD00006820002038B501888E
:10700000041D1F293ED011DC2A484FF0030210292D
:10701000008802EB004013D011292CD01B2943D04B
:107020001D2941D1244900208ADF2EE0212932D0B8
:107030003B293AD0562937D18088132176DF24E0C6
:107040001EA101F09DFE218800221F4800F02CF9AE
:1070500008B1FFF76DFE184821881030FFF7BAFF1E
:1070600008B1FFF765FE012000F032FABDE83840B4
:10707000002000F025BA15A101F082FEBDE83840DD
:1070800002F02ABF2088211D75DF00280CD0BDE842
:107090003840FFF74DBE00210091808869468FDFA0
:1070A000002801D0FFF744FE38BD8088132176DF29
:1070B000EBE7000084210020741D0020436F6E6EFA
:1070C00065637465642E0000B42100204469736315
:1070D0006F6E6E65637465642E00000010B51A4C07
:1070E0000188606810290ED011292BD1401E6060E4
:1070F00028D1FFF739FD002824D02168002921D0AC
:10710000BDE810400847D0B900210122084600F030
:10711000F1F908B107280FD107220221012000F060
:10712000E9F908B1072807D104220221002000F064
:10713000E1F920B1072802D0216801B188476068D1
:10714000401C606010BD0000602000202DE9F04F61
:107150000746858802883D48012197B08346102A5A
:1071600009D0112A49D01A2A6CD1387AB1EB101FF4
:1071700045D2012244E0354C083CA068C0430B9046
:1071800061680BA801F08EF80B990CA800F038FB91
:107190002C220CA96846FFF739F90026E946A046DB
:1071A00010E000BF09EB46005FF00004B0F804A057
:1071B00008EB84005146001D01F048F8641C1D2CAA
:1071C000F6D3761C0098B042ECD8142D05D317B036
:1071D0000420BDE8F04FFFF7ABBD2946584601F04B
:1071E0004BF8294608F1040001F046F8F87B012825
:1071F00028D016482946001D15E029461AE000222D
:107200000221B1EB101F01D2012600E000260F4938
:10721000083901F11000041D294682B101F02CF853
:1072200036B12946204617B0BDE8F04F01F024B82A
:107230002946204617B0BDE8F04F01F007B801F02D
:1072400005F8F5E717B0BDE8F08F00004C220020EC
:1072500070B518B30288A2F57F41FF391CD0104CDD
:107260004388104D206800EB8001401C00F00700AF
:10727000206005EB810102204B81C881081D086157
:1072800000248C810120087208714C710A8088707A
:1072900003F03AF8204670BD082070BD0E2070BD86
:1072A00078200020D425002040B1018022B111684F
:1072B000C0F802109188C180002070470E207047EE
:1072C00030B5134D040085B02DCD8DE82D001DD0B7
:1072D000E1B10868D0B100206080A080E0804FF666
:1072E000FF7020800868A06004F10C01684662DF2E
:1072F000002809D1207B8DF8120041F22350ADF80F
:10730000100004A8FFF7F0FD05B030BD0E20FBE72C
:10731000E4A402000EB5002921D000281FD0028865
:10732000112A25D0382A1BD0392A18D10A460988B3
:107330008388994213D14189938899420FD1C18999
:1073400001290CD102218DF800101188ADF802102E
:10735000007C8DF8040093686946104698470EBD7E
:10736000098880888142FAD1BDE80E4002F0CCBF86
:107370000A8880888242F2D14FF6FF700880002090
:1073800048808880C8800EBD70B518B30288A2F509
:107390007F43FF3B1CD0104C104D236803EB83024E
:1073A0005B1C03F00703236005EB8202C388538153
:1073B0000123D381141D14610024948102241472CA
:1073C000117100881080937002F09EFF002070BD44
:1073D000082070BD0E2070BD78200020D42500202C
:1073E0003EB50A78002A40D18A88A2F5A853233BEB
:1073F0003BD18A79037B9A4237D101228DF8002054
:107400004A88ADF80220002218E000BF02EBC20358
:1074100001EB430333F80E4F04F6DC24B4F50054BB
:1074200005D0012C09D11B89ADF8083005E01C8975
:10743000ADF806405B89ADF80430521C0B7A9342DC
:10744000E4D80188A1F57F42FF3A0BD0C18849B941
:10745000818839B9418829B90199C0F80210BDF86D
:107460000810C1808268694690473EBD2DE9FC4105
:107470000646C0074FF000050ED0104F0024012231
:10748000385D009500231146019501F0F9F9641C5F
:10749000042CF4D300F024F8B0070DD5074E0024D7
:1074A000361D0022305D032300951146019501F041
:1074B000E7F9641C042CF4D3BDE8FC8146A4020067
:1074C0000249085C012101F04CBA000046A4020008
:1074D0000249085C002101F044BA000046A4020001
:1074E00010B500242046FFF7EBFF641C042CF9D3F1
:1074F00010BD000070B50023042810D20D4D00EB24
:107500004004012A02D101290CD00022094E00EBCF
:107510004000304461B1012906D0022906D007237A
:10752000184670BD0E30C2B22A55F9E74270F7E72F
:107530008270F5E7362200202DE9F8430546861CC7
:1075400000208DF8000090460F464FF00109684674
:10755000FFF78CFC1B4C20683860D4E90001401A0E
:10756000A16804F21C47081A0EE00121384600F019
:1075700093FE00F019FD0146384600F08DFED4E977
:107580000001401AA168081A401C8642EDD8B8F1E3
:10759000000F03D0052065F3891002E0062065F393
:1075A0009F50A2682168114004EB8101C8602068E7
:1075B000304420609DF80000FFF77CFC4846BDE8A1
:1075C000F8830000982A002030B482680468531CB5
:1075D0008360A154D0E901128A4202D330BC00F08A
:1075E000E8BF30BC70470000034803C8814201D1A6
:1075F0000120704700207047982A002010B50C46E3
:107600000B2809D10C48FFF7BFFE48B1A0F5405147
:10761000023910D008280ED0BDE81040FFF788BB13
:107620000648032122460088BDE8104001EB0040D7
:1076300003A101F0A9BB10BDB421002084210020CA
:107640004C4253207772697465204C454420737412
:10765000617465202564000005494FF0FF32082859
:1076600041F8202002D3084480F8582070470000D9
:1076700088260020F0B54FF0FF3512B10023082610
:1076800001E008230C260C4C05E000BF54F82370E1
:107690007F1C04D05B1CB342F8D32846F0BD2618EB
:1076A0005DB286F8305044F82310002AF5D1E11875
:1076B00081F85800F1E700008826002002490844BC
:1076C00090F93000704700008826002008B5024677
:1076D00090F8C6020B4600EB8001C1EB801002EB74
:1076E000400092F8C52242B1521ED2B202EBC20152
:1076F00000EB4102518A491C00E0C188ADF800103E
:107700000089ADF80200694618469DDF08BD0000FB
:1077100070B5084C050009D010342168002907D045
:1077200008682060496828468847F6E70834F4E787
:1077300070BD000074260020054A012120B10128F7
:1077400005D19170FFF7E4BF51700020FAE7704750
:10775000742600202DE9F05F26484168F1B3DFF878
:1077600098B00E688146DBF8004087688078E11B9E
:1077700021F07F45ED1CB0B9DFF880804FF48030F8
:10778000C8F84403C8F804031120FEF78BFF11204A
:10779000FEF793FF4FF0010AC8F800A02F2001F078
:1077A00027FF89F802A0B54200D23546124BE819EE
:1077B0003C3320F07F401860DBF800105A46091B6C
:1077C00021F07F41001B20F07F40C91C81420FD96E
:1077D000106818602F2001F00BFF00E004E0BDE806
:1077E000F05F1120FEF774BFBDE8F05F02F056BBFA
:1077F000BDE8F09FB02000200415014000100140BA
:1078000073B58CB00646002000900D9880B100241E
:107810006D4621460DA800F024FD30B1009805EB1F
:10782000400084800098401C0090641C142CF0D30D
:107830002C2269463046FEF7E9FD0EB070BD00000F
:10784000F0B587B0074600200490ADF81010059001
:10785000ADF812100190029001AA04A9384690DFF9
:10786000060022D001F086FE114C03460125208837
:107870003A4605EB00400F4901F08DFABDF80420AF
:1078800012B9BDF8060038B12088BDF8063005EB06
:10789000004009A101F07FFABDF808202AB1208834
:1078A000154905EB004001F06FFA07B03046F0BD16
:1078B00054210020E4A702005468652072657175A8
:1078C00065737465642054582F5258207061636B3F
:1078D0006574206C656E67746820697320746F6FBF
:1078E000206C6F6E672062792025752F2575206FBB
:1078F00063746574732E000030A8020001460148CD
:10790000FFF76EBDB42100202DE9F843054690F83D
:10791000C6020F4600EB8001C1EB801005EB40066C
:1079200095F8C542914604EBC40006EB400132795C
:10793000601C0A31904226D16B460022284600F096
:1079400018FA18B310E0401EA04201D1002004E054
:1079500004EBC40006EB40001C30804602466B4638
:10796000284600F006FA30B10020387069464846D3
:107970009EDFBDE8F88395F8C5024146401C641CB3
:1079800085F8C502E4B23079A042DCD80120387015
:107990000020EEE72DE9F0470025DFF88C803CE081
:1079A0006068002100EBC506012032789146FEF7A1
:1079B00019FDD4E9062300EA020701EA030C57EA9D
:1079C0000C0728D082438B434846C4E9062301F0C4
:1079D000CDFE32788246914601200021FEF702FD5D
:1079E000D4E9042300EA020401EA03074A465046A8
:1079F0000021FEF7F7FC44404F403C430BD1707828
:107A0000012801D0012100E00021726881EA0A0109
:107A10000AB1484690476D1CEDB298F80000444604
:107A20008542BDD3BDE8F087902000202DE9F047C6
:107A3000894690F8C612904601EB8102C2EB811193
:107A400000EB4107384602F0D1F906002FD0194C5F
:107A5000A06806282BD2184D762205EBC0103946B7
:107A6000A0F80280001DFEF7D1FC0027B9F1000F3D
:107A700004D0A06805EBC010077004E0A1680220E4
:107A800005EBC1110870A06805EBC011401CCE6762
:107A9000A060E16888420AD1002604E005EBC61028
:107AA000C16F8847761CE0688642F7D3A760BDE8BF
:107AB000F087000068200020D422002070B50E4618
:107AC00090F8C612154601EB8102C2EB8111A0B0FD
:107AD00000EB410002F08AF9040009D07C2205493C
:107AE0006846FEF793FCADF8025068460196A04741
:107AF00020B070BD50A4020070B50E4604464FF48D
:107B00003371FEF79CFC11480025A4F8CA62856019
:107B100084F8C9520E4884F8C65284F8C5520068E9
:107B200020602246012130469BDF0121112806D02A
:107B3000002809D184F8C71284F8C85203E084F8F9
:107B4000C71284F8C812002070BD00006820002011
:107B5000BC22002010B50021024800F0AEFB80F3EB
:107B6000100010BDB42E00200E4910B50A784C78D4
:107B70000023A24212D0521CD2B20A70022A00D1B3
:107B80000B70084A0B780C3252F823200260886888
:107B9000104420F07F408860012010BD0360002069
:107BA00010BD0000B020002030B50446006887B04A
:107BB0000D46806800281FD018216846FEF73FFC5C
:107BC0000195A0680590207910B1012810D107E037
:107BD00001208DF8000020690290E068039005E024
:107BE00002208DF80000E0680003029060690490B4
:107BF000206881686846884707B030BD2DE9F041AC
:107C00008046024601200021FEF7ECFB1A4F054694
:107C10000E467868FFF71AF900280CD1174CD4E902
:107C2000062110462A4001EA06031A4305D0A8435C
:107C3000B143C4E90601BDE8F081404601F096FD7C
:107C400030B1D4E9040128433143C4E9040105E01B
:107C5000D4E90410A943B043C4E90410D4E90601EF
:107C600028433143C4E90601A1687868BDE8F041C2
:107C70000022FFF7A7B80000FCA40200902000201B
:107C80002DE9FC5F0E008346DDE90C47C6F10000DC
:107C900098469246814600D40846012503E000BF7D
:107CA00090FBFAF06D1C5045FADAA84500D945461C
:107CB00024B1002E01DB780700D5641EB80702D579
:107CC000B8F1000F0AD0F80708D13CB1A54205D29F
:107CD00020215846641EFFF777FCF6E7002E02DAF3
:107CE0004E462D2102E0780703D52B215846FFF799
:107CF0006BFC07F0030002280BD1B8F1000F08D18C
:107D00003CB1A54205D230215846641EFFF75CFC09
:107D1000F6E7CDE90047434652463146584602F061
:107D200017FBBDE8FC9F024600201268930702D0B3
:107D3000530702D47047500714D502F003000128FE
:107D400002D002280CD105E0C2F383100B68801C1E
:107D5000184404E00223086803EB925210440860C0
:107D600001207047086800EB9253C2F38910401C51
:107D7000EEE710B509892AB1D088491C814218D193
:107D8000002010BD90F8C62202EB8204C4EB8212E0
:107D900000EB420212899142F2D0491C198090F8FE
:107DA000C61201EB8102C2EB811100EB4100008998
:107DB00002E01980D088401E5880012010BD0000CC
:107DC0002DE9F041054608781B4E03270C46012893
:107DD00011D002282DD13088227907EB004017A15D
:107DE00000F0D2FF207900284FF002001DD0BDE83E
:107DF000F041FFF76DBB6188221D1A48FFF754FA66
:107E00003088628807EB004017A100F0BDFFFEF745
:107E100003FF08B1FEF78CFF2846FFF719FA002888
:107E200007D0BDE8F041FEF783BFBDE8F041FFF7A2
:107E300047BBBDE8F08100008421002042757474C6
:107E40006F6E207374617465206368616E6765642A
:107E5000206F6E207065657220746F2030782578F1
:107E60002E000000B42100204C454420427574745B
:107E70006F6E207365727669636520646973636FE2
:107E80007665726564206F6E20636F6E6E5F6861E9
:107E90006E646C6520307825782E000017210180F3
:107EA00041800021017141711B218171C1717047B5
:107EB0002DE9F047394E002780463D46DFF8E09037
:107EC000D6F804A057E003D00446D0F81C8035E073
:107ED00099F8002002EB4201521CD2B289F800202E
:107EE00009EBC10199F80230091D9A4201D189F8C4
:107EF000005048680A780446012A12D0022A02D0AB
:107F0000032A3BD108E002F071F900B10127257482
:107F100034E00574C06900E070680028F9D1706031
:107F20002CE0207C50BB88686060C868A06008694D
:107F3000E0604869A061F07800B165606268B1688E
:107F4000184B501A20F07F40984202D2A168084492
:107F500006E0881AA16820F07F40814202D9081A01
:107F6000206000E0256065600120A5602074204647
:107F7000E56102F01DF9B8F10000A4D199F80010F4
:107F800099F801008142A3D117B97168514502D017
:107F90000120BDE8F0870020FBE70000B0200020B2
:107FA00014270020FFFF7F002DE9FF410026234812
:107FB00000F06FF92148001F074600F06AF9204CD5
:107FC00060680090A56800E000986946284004EBCE
:107FD00080000C30FFF7A7FE0028F5D101AA009918
:107FE00001EA050304EB8303491CDB6842F82030F7
:107FF000401C00910228F2D3019800F003000128F0
:108000000BD0022810D10198032101EB9050009968
:10801000BDF80A6001EB900005E00198BDF80A6028
:10802000C0F3831008440090384600F02FF908B1DF
:108030000098606004B03046BDE8F081B02E0020AA
:10804000982A002008B54FF40041002000F002FFFC
:1080500008B1FEF76DFE00F075FDFEF789FE08B170
:10806000FEF766FE364A00213648FEF76DFE012017
:10807000FFF7FCF940F2666201213348FEF7DEFDAE
:1080800008B1FEF755FE01F003F808B1FEF750FE07
:1080900001F0AEF908B1FEF74BFE002000906946F2
:1080A000012001F035F808B1FEF742FE684601F004
:1080B000B1F808B1FEF73CFE234C04220C3C012031
:1080C000217877DF0021214800F06CF908B1FEF734
:1080D0002FFE1F48FEF728FF08B1FEF729FE1D48B6
:1080E00000901A4869461038FFF7EAF808B1FEF721
:1080F0001FFEFEF755FD18480321008801EB0040E4
:1081000016A100F03DFE0121207873DF08B1FEF7D3
:108110000FFE0E48002243F69A111430FEF752FE6D
:1081200001F0DAFE0020FFF7D3F900BF00F0D6FE21
:1081300000F016FD0028FBD100F0BEFFF6E70000BE
:10814000316B020034A402007C1D0020C4210020F9
:10815000FD780200C17D020084210020446F676722
:1081600079205472617820426561636F6E20537488
:1081700061727465642E00002DE9F047C7880446DB
:10818000181D16468946B0FBF7F1B0FBF7F207FB66
:1081900012009A193A44D21CB2FBF7F2DDF820A083
:1081A00001E02468491E0029FBD13D1A8846B542EA
:1081B00016D818E0BAF1000F05D0211809EB080015
:1081C0002A46091D04E0204409EB08012A46001D47
:1081D000FEF71CF900202468761BA844B74201D999
:1081E000354600E03D46002EE4D1BDE8F0870000B2
:1081F00030B5024659B100F059FE0021074C09E0A4
:1082000004EB810315685B88AB4202D1116000204A
:1082100030BD491C8142F3D3052030BD50210020E0
:1082200010B50A8849888A4203D1FEF735F8012043
:1082300010BD002010BD70B50C460546FEF70FF8C6
:10824000002802D061882868084470BD01F01F032F
:1082500001229A40D243490900EB8100114600F007
:1082600021B84A0950F8220001F01F020121914073
:10827000084000D00120704701F01F0301229A40FE
:10828000490900EB8100114600F01CB8002100F004
:108290000FB8012100F016B808B56A46FEF751F88C
:1082A000009808BD08B56A46FEF731F8009808BD89
:1082B00008B56A46FEF72BF808BD08B56A46FEF712
:1082C0000DF808BD08B56A46FEF714F8009808BD19
:1082D00008B56A46FEF742F8009808BD38B504466E
:1082E00000258DF800506846FEF7C0FD21686268E1
:1082F000086890420ED9401E08600178A38AE2689F
:1083000001FB0325227A2168101AC0B20A79824241
:1083100000D208719DF80000FEF7CCFD284638BD5C
:1083200038B5054600208DF800000C466846FEF77B
:108330009DFDE868A98A201AB0FBF1F12A6810684F
:10834000431C136001709DF80000FEF7B3FD38BDBB
:1083500010B530B1017A42680368891AC9B21A604F
:1083600006E00E2010BD03681A68541C1C601170D2
:10837000491EC9B2F7D2006800210171084610BD3C
:10838000C20800F007030120895C9840084070474C
:1083900010B5C20800F00703885C01249C4020430C
:1083A000885410BD10B560B10161172120F8021B7F
:1083B00020F8021B1B2100F8021BFFF76FFD0020B5
:1083C00010BD0E2010BD0000F0B5858893B00C469E
:1083D000002D39D1018800263E4F24293BD006DCF0
:1083E000102909D011290CD0232958D14FE03A295E
:1083F0000BD0552953D129E00146204601F08CFAD3
:108400004DE0A01DFFF74AFD49E02246408934F8BF
:10841000061F814200D808466080172800D2172026
:108420006080106970B1607960B1D7E90001CDE971
:108430000301ADF80E506088ADF81000136903A970
:10844000104698476671267113B0F0BD014620466C
:1084500001F02AFB23E0011D2C2206A8FDF7D6FF20
:10846000BDF81800BDF81C2004EBC0014A73226956
:10847000AAB1D7E90423CDE90423ADF81200487B63
:108480008DF814002269204604A9904707E0017A7C
:10849000207B884200D201462846FFF7D1F9A07A16
:1084A0000028D1D0E1882846A5DF012570B1112828
:1084B000CAD001F05FF80246074808A1008813B04F
:1084C00005EB0040BDE8F04000F05EBCA672E5722E
:1084D000BAE70000CCA402005421002073645F625C
:1084E0006C655F67617474635F65786368616E670C
:1084F000655F6D74755F7265717565737428292089
:1085000072657475726E65642025732E000000001C
:1085100000F180400068002800D00120704708B5B5
:1085200000F18040002101600068009008BD00005B
:1085300070B50B4C207808B185250FE00020A060B5
:1085400060602061E060074801F034F8054600F003
:108550009BFF08B901F018F801202070284670BD73
:10856000742600203977020038B500258DF80050B8
:108570006846FEF77BFC074CE068401EE060E06860
:1085800010B901F027F8A5709DF80000FEF792FCE5
:1085900038BD0000742600200FB408B503990029E7
:1085A00004D004AA00926A4600F00FF801B05DF80A
:1085B00014FB10B582680446002A05D0D4E90403F0
:1085C000216898470020A06010BD2DE9FC47914626
:1085D0000C00804676D014F8011B39B125290ED045
:1085E0004046FEF7F1FF20780028F4D198F80C00FF
:1085F000002867D04046BDE8FC47FFF7DABF0020FF
:10860000012221782B291BD02D2902D0302908D115
:1086100002E040F0010001E040F00200641C002A8A
:10862000EFD100252A290ED02178A1F130020A2AA3
:1086300011D205EB850201EB4205641C303DF1E7E8
:1086400040F00400EAE7D9F800100B1DC9F800302B
:108650000968641C0D44217800232E290BD114F8DD
:10866000011FA1F130020A2A05D203EB830201EBBC
:108670004203303BF3E76C290DD068290BD0692900
:1086800021D00BDC252918D0582931D063290ED0F0
:10869000642915D117E014F8011FECE7702969D09F
:1086A000732932D075291BD0782909D120E0D9F857
:1086B0000000011DC9F8001001784046FEF784FF54
:1086C000641C90E76CE0D9F800100A1DC9F800207E
:1086D0000968CDE900500A224046FFF7D1FAEFE7DA
:1086E000D9F800100A1DC9F8002009680A2206E01E
:1086F000D9F800100A1DC9F8002009681022CDE938
:108700000050404601F024FEDAE7D9F800100027B7
:108710000A1DC9F800200E68C00705D112E04046C6
:10872000761C7F1CFEF750FF31780029F7D104E05A
:10873000202140466D1EFEF747FFBD42C0D9002DE7
:10874000F6D1BDE74EB13046FDF784FE074604E0A2
:10875000202140466D1EFEF737FFBD4206D9002D91
:10876000F6D103E04046761CFEF72EFF3178002953
:10877000F8D1A5E7D9F80000011DC9F80010056877
:1087800030214046FEF720FF78214046FEF71CFFCF
:1087900008200021CDE90001034610222946B0E758
:1087A000BDE8FC87044801214174007A08B100202B
:1087B0007047012070470000B8280020012801D030
:1087C000032808D10449002201284A7400D000205F
:1087D000087401F0BBBA7047B828002070B5024693
:1087E000022801D0032A45D1234C207A002841D009
:1087F000012833D0022831D120480023022A006802
:1088000002D0032A2AD11BE0E360017911B10129CA
:1088100024D10DE0D0E90565711B4FF48056B142BB
:1088200000D33146294481614569A9420ED015E043
:108830000169491C0161426991420FD1237213E021
:10884000E168491CE160082908D9E3602372022A23
:108850000AD00D21FFF7A8F901F06EFA607C28B16B
:10886000BDE8704000F016BE0021F3E7BDE870409F
:1088700001F06CBA70BD0000B8280020D82000209C
:108880002DE9FF411C46DDE90A7815460E4668468B
:1088900000F040F846EA450141EA840141EA072236
:1088A00042EA0841009A00EB8200C0F80017BDE8D8
:1088B000FF812DE9FF411C46DDE90A7815460E4689
:1088C000684600F035F846EA450141EA840141EA8C
:1088D000072242EA0841009A00EB8200C0F8001724
:1088E000BDE8FF8113B50C46684600F021F80099F9
:1088F00000EB8101D1F8002722F44032C1F80027B3
:10890000009900EB8100D0F8001741EA0441C0F85B
:1089100000171CBD0168202902D24FF0A04070470B
:1089200001F01F0101600148704700000003005082
:108930000168202902D24FF0A040704701F01F01CA
:1089400001600148704700000003005001B568460F
:10895000FFF7EEFFD0F810050099C84000F00100C5
:1089600008BD38B501240090684631B1FFF7D2FF49
:1089700000998C40C0F8084538BDFFF7CBFF00993F
:108980008C40C0F80C4538BD1CB5094C0144D4E9F5
:108990000034CDE900346C4606E000BF54F82030C6
:1089A000D3F81035401C08C28142F7D81CBD000026
:1089B000F4A40200034908B50844002101600068DE
:1089C000009008BD0060004002494058012800D0D6
:1089D000002070470060004030B5124B0146002077
:1089E000D3F81044224609E0157A854205D1401C8F
:1089F0000A28F7DB4FF0FF3030BD5268002AF3D170
:108A0000421CF9D00872D3F810242AB152684A6087
:108A1000D3F81024516030BD0022C3F810144A600E
:108A200030BD0000982A00207047FDF7ABBE7047AC
:108A300008B5044A00924FF48073034A00F006F828
:108A400008BD0000AD9F0200D8280020F0B595B009
:108A50001C4615460F4608461A9E00F0F7FA1821E4
:108A600009A8FDF7ECFC0E96CDE909540023082275
:108A700003A9384600F0FFFA05980690BDF81000EB
:108A8000ADF81C00BDF81200ADF81E0000208DF8F6
:108A900021000398082600F00300012802D00228D4
:108AA00018D032E003983346850AC0F3C2008DF82F
:108AB000200003980FA9C0F38314A200384600F0E9
:108AC000DAFA09A8009006AB22460FA9284600F062
:108AD00019FA1AE00398840DC0F3C2008DF8200043
:108AE000082C01D2254600E0082533462A460FA966
:108AF000384600F0C0FA2E44641B09AB06AA29468A
:108B00000FA800F051F9002CEAD1384600F0A4FA81
:108B100015B0F0BD0A4A012902EBC00007D00229B6
:108B200007D0032907D0042907D00020704702206E
:108B30007047042070470079704740797047000003
:108B40003CAF020010B5FFF770FF04210348FFF7A8
:108B500043FF02490120487210BD0000EC200020B4
:108B60002DE9F04F8DB0FEF73FFD18B100200DB09C
:108B7000BDE8F08F7A4C4FF0000BC4F818B4BFF387
:108B80004F8F60680290A568D846284004EB8000AB
:108B900008E021680298814201D86160E6E7284038
:108BA00004EB80000C3002A9FFF7BDF80028F0D1DB
:108BB00005AA029901EA050304EB8303491CDB685B
:108BC00042F82030401C02910228F2D3059800F0B0
:108BD0000300022802D001284ED0A9E005985022B7
:108BE000810D8946B2EB905F00D850210E4666F3A6
:108BF0009F50059008315B4800F0DFF9070079D0FD
:108C000000F024FA4346082205A9384600F039FA54
:108C1000029908F1080A2940681A8000001D86425E
:108C200023D94F4D0C3530B1C2B204EB8101301A5B
:108C300090460C3104E02946F2B2002590462846C1
:108C4000C6B25346384600F01CFA0AEB08032DB1B1
:108C5000324629464FEA070000F013FA029909F15B
:108C6000030001EB900002903BE004EB81015346CE
:108C7000324638460C31EFE70598C0F383100628DA
:108C800000D30620059960F38911C1F38310801C7D
:108C900005918100334800F090F9070048D000F0BA
:108CA000D5F94346082205A9384600F0EAF908F14B
:108CB000080800260FE00298434600EA0501401C20
:108CC00004EB81010290042238460C3100F0D9F9FE
:108CD00008F10408761C0598C0F38310B042EAD866
:108CE00047B1D4F81054D4F8180468B1384600F0ED
:108CF000B3F92FE01CE0687A012804D12A682846DD
:108D00003946126890476D68002DF4D1384600F05E
:108D1000A3F98DF800B06846FEF7A8F8D4F8180457
:108D200008B9029860609DF80000FEF7C3F811E0F2
:108D3000D4F8104404E021682046896888476468B4
:108D4000002CF8D108480221008801EB004007A15F
:108D500000F016F8FEF748FC80F0010007E700007D
:108D6000982A0020C4AF0200842100204261636B76
:108D7000656E647320666C7573686564000000003E
:108D800000231A4601F08EB908B5012300926A4605
:108D900001F088F908BD1CB5CDE9002302236A461D
:108DA00001F080F91CBD00002DE9F0470E46804619
:108DB0001C46924608293ED894F80C900020207357
:108DC0001946104600F06CFF0025B54206D218F88F
:108DD00005201AA12046FFF7DFFB03E019A120467A
:108DE000FFF7DAFB6D1C082DEFD317A12046FFF724
:108DF000D3FB0025B54210D218F80570FDF702FB31
:108E00000068C05D10F03E0F01D03A4600E02E220F
:108E10000EA12046FFF7C0FB03E00DA12046FFF79F
:108E2000BBFB6D1C082DE5D301222146504600F006
:108E300019FF84F80C90BDE8F0870000202530323F
:108E400078000000202020007C0000002563000046
:108E500020000000104810B5FF2181600021016052
:108E60004160C0F81814C0F8141480F820140B489E
:108E700000F0F0F800280DD109480A490A4B401AC1
:108E8000C108002003E000BF23F82000401C8842F6
:108E9000FAD3002010BD0000982A0020C4AF0200C1
:108EA000C4AF02003CAF0200502100200248034939
:108EB000401AC00870470000C4AF02003CAF020077
:108EC00013B56846FFF794F908B100201CBD0248AD
:108ED000009950F831001CBD3CAF020070B5084845
:108EE0000125D0F8104480F8205405E0657221680F
:108EF0002046496888476468002CF7D170BD00009F
:108F0000982A00202DE9FF4781460C9D00200C4641
:108F10002F7B2873984616462946184600F0C0FE57
:108F2000072E42D2DFE806F004090F161F2A36008A
:108F300049462846FFF730FB37E049462846226875
:108F4000FFF72AFB31E0D4E9002349462846FFF722
:108F500023FB2AE0A0680090D4E900234946284674
:108F6000FFF71AFB21E0D4E90201CDE90001D4E9C1
:108F7000002349462846FFF70FFB16E004F10800DE
:108F800007C88DE80700D4E9002349462846FFF7C3
:108F900003FB0AE004F108000FC88DE80F00D4E9D4
:108FA000002349462846FFF7F7FA002229464046A3
:108FB00000F058FE2F73BDE8FF872DE9F041858A48
:108FC00080462D1F4819C01CB0FBF5F0C6B24046C4
:108FD000FFF784F9041E19D0002020710120607170
:108FE000E58000272546761EC4F800800BE0404649
:108FF000FFF774F960B16179491C61712860054619
:109000007F1CC0F80080B742F1D32046BDE8F08154
:10901000204600F002F80020F8E72DE9F0414579FC
:1090200001466B1E002201E00968521C9A42FBD3E4
:109030000F680146002605E038460C68FFF770F916
:109040002146761CAE42F7D3BDE8F0810121001D18
:10905000FFF722B9FFF77CB910B504460121001DC6
:10906000FFF736F910F0FF0F04D12046BDE810409D
:10907000FFF7D3BF10BD38B501240094FFF77CF88B
:1090800038BD38B500240094FFF776F838BD0000ED
:10909000064910B500204870091D0860BFF35F8FB6
:1090A0000349044800F022FA002010BDE02000200F
:1090B00050A50200CC28002008B500208DF8000043
:1090C0006846FDF7D3FEF1EE100A20F09F00E1EEB6
:1090D000100ABFF35F8F08494020C1F880029DF855
:1090E0000000FDF7E7FE00F0CFF908B141DF08BD51
:1090F00020BF40BF20BF08BD04E000E020B103490D
:1091000009680160002070470E20704730A70200F8
:10911000FEB502460E460846FFF7F0FF00286CD168
:10912000002400940194012506208DF80020ADF85C
:10913000040002948DF8025069462020326869DFED
:109140002E4F48B100F016FA3988024605EB01436C
:109150002B491846FFF718FE00948DF801408DF852
:109160000250019402948DF8035069464020326801
:1091700069DF40B100F0FEF902463888214905EB6D
:109180000040FFF701FE00940A208DF800000194D2
:10919000029469460120326869DF40B100F0EAF9C3
:1091A00002463888184905EB0040FFF7EDFDF8202E
:1091B0000090019402946946A120326869DF40B1B1
:1091C00000F0D8F902463888104905EB0040FFF757
:1091D000DBFD0094019402948DF800406946A020C4
:1091E000326869DF40B100F0C5F9024638880849A5
:1091F00005EB0040FFF7C8FD0020FEBD8C210020DC
:10920000D0AD020018AE020030AD02007CAD02000D
:10921000DCAC02002DE9F0410446D0F8008060DFAC
:109220002168194D074641451CD92888022606EBBE
:10923000004016A1FFF7A4FD2888424606EB004037
:109240001EA12368FFF7A7FDF006D0F80C012168E6
:10925000800200F10050421A288825A106EB004048
:10926000FFF792FD012467B1384600F083F902460A
:1092700028882AA104EB0040FFF786FD3846BDE8A8
:10928000F0812E480470F9E78C210020496E737537
:109290006666696369656E742052414D20616C6C2D
:1092A0006F636174656420666F7220746865205313
:1092B0006F66744465766963652E00004368616E6D
:1092C0006765207468652052414D20737461727423
:1092D000206C6F636174696F6E2066726F6D2030F1
:1092E00078257820746F20307825782E00000000D3
:1092F0004D6178696D756D2052414D2073697A65B5
:1093000020666F72206170706C69636174696F6E42
:1093100020697320307825782E00000073645F6226
:109320006C655F656E61626C652829207265747575
:10933000726E65642025732E000000004B21002012
:1093400030B5144891B00078002820D05FF0340583
:10935000ADF8405010A903A861DF30B1052816D040
:1093600011B0BDE83040FDF7E3BC03AC0A496846E4
:1093700000F0BCF807E000BFD0E90021204690478C
:10938000684600F0CAF802980028E1D0F4E711B06E
:1093900030BD00004B21002034A70200F8B5134C6B
:1093A0002078C0B10120A07000F0D2FD112814D0A7
:1093B000022000F0E5FD00258DF800506846FDF71D
:1093C00055FD11DF064625709DF80000FDF772FD82
:1093D0002EB13046F8BD0820F8BD0020F8BDA570BC
:1093E00000F018FE032000F0CBFDF6E74821002036
:1093F0007CB5194C207808B108207CBD0120A070F4
:10940000002000F0A5FD112819D0002000F0B8FDC3
:1094100012480026006801908DF800606846FDF74C
:1094200025FD0F4901A810DF05000AD0002020709B
:109430009DF80000FDF73EFD2DB128467CBD0020C3
:109440007CBD0120F3E7A670667000F0FFFD0120EF
:1094500000F096FDF3E7000048210020C8A60200B6
:10946000B56C02000EB50749684600F03FF805E00C
:10947000D0E900108847684600F04FF802980028AD
:10948000F6D10EBDE4A60200014800787047000046
:10949000482100200548817819B1007818B1FFF7FC
:1094A0007DBF08207047FFF7A3BF000048210020C0
:1094B0001FB568464BDF30B1052814D004B0BDE8B5
:1094C0001040FDF735BC084901A800F00FF806E090
:1094D000D0E900210098904701A800F01EF80398F9
:1094E0000028E6D0F4E71FBD50A70200016009681C
:1094F0004160AFF3008010B5D0E900215368994274
:1095000001D1002104E0D1E90034A34202D0194680
:10951000816010BD08314160F0E7816800290BD0FF
:10952000026892680A44826041684B689A4203D19B
:1095300008314160FFF7DFBF704700000C4A10B5EB
:1095400002F594730EE0991AC91001EBD17149101C
:1095500002EBC1010C68844201D90B4602E005D23E
:1095600001F108029A42EED3002010BD486810BDF8
:1095700070A5020000B5FFF7E1FF002800D1014807
:1095800000BD00005CA5020008480068012110F041
:10959000010F08D14FF0E020E02280F80024C0F84D
:1095A0008012C0F8001102480160704700E100E03D
:1095B000180500400649024600200B790BB18520B2
:1095C00070470A6001220A7100224A717047000048
:1095D0008020002004490120086004480168C1F38C
:1095E00000410029FAD170470C00004018040040E7
:1095F000002802D0014980010847704711A50200E8
:109600002DE9F0410E46804600F014FB204D002865
:10961000404616D0FEF752F8284490F858008009CA
:10962000032802D001280AD003E04046FFF78EF954
:1096300028B103214046BDE8F041FFF753B90221AC
:10964000F8E700F003FB002820D04046FEF736F88C
:109650000446104F4FF4807007EB840100EB840048
:10966000D1F8102580B242F00102C1F81025FFF7B1
:10967000A1F9002E0AD04046FEF720F855F8200048
:10968000002803D00120A040C7F80403BDE8F08102
:1096900088260020006000402DE9FC41DFF8C080F2
:1096A000044608EB0400002790F930001346C01769
:1096B0000E46401C01D008274FE0B0781946C0F391
:1096C00040022046FDF7D6FF0546401C44D0B07846
:1096D00041071CD4C0070DD068460094FFF728F955
:1096E000009900EB8100D0F8001721F00201C0F8CA
:1096F000001707E000217378204600910A46019187
:10970000FFF7D7F8164920466431FEF741FEB078DE
:10971000800718D51348317800EB8500D0F8102564
:10972000114B1A40C0F810254FF47C524FF44033CF
:1097300002EA042203EA01410A43D0F810150A4361
:10974000C0F8102509E008EB0500327810F8581F22
:1097500041EA8211017000E004273846BDE8FC812F
:109760008826002000600040FFC0FCFF10B5FFF716
:10977000EDF8002800D0012010BD000070B5194D93
:1097800095F86A0008B1082070BD0020411E2A1813
:10979000401CC0B282F830103028F8D30024204694
:1097A000FDF75AFF641CE4B20C2CF8D30D490024D9
:1097B000E0204C66A1F868400B4981F800040126BE
:1097C0004020891FC1F88002C1F800014FF4BE702B
:1097D000FFF7F0F80549F007C1F8040385F86A605F
:1097E000204670BD8826002006E000E000600040B2
:1097F000034890F86A00002800D00120704700005C
:10980000882600202DE9F84F05460C460888B5F853
:10981000CA12884259D195F8C602DFF8F8A000EBC9
:109820008001C1EB801005EB400160884FF0030917
:109830004FF00008F0BBE6880879A21DF3B250FA99
:1098400086F6062E01D8034400E006230B7100269D
:109850001CE000BF00EBC00306EB860702EB4707E6
:1098600001EB4303D7F802C0C3F80AC0D7F806C01B
:10987000C3F80EC07F895F82A3F81480A3F8168016
:10988000A3F81880401CA3F81A80761C0B79834239
:10989000E0D895F8C62200EBC00002EB8203C3EBD0
:1098A000821205EB420231F81000128990420ED26A
:1098B000087900E00BE0062809D085F8C502218868
:1098C0002846FDF703FF01000AD1BDE8F88F85F8AF
:1098D000C582228869462846FEF716F801000BD09B
:1098E00085F8C78222882846FEF7E8F88AF80090B3
:1098F0002188AAF80210E8E79DF800000028E4D0CB
:10990000228801212846FEF791F82188284600F098
:1099100053F9DAE7D422002070B58D88027900EB84
:10992000C5042273C97BA41D012902D0022904D1D8
:1099300001E0008800E04088208021886088814222
:109940000FD92846A5DF0126A0B1112814D0FFF7B2
:1099500011FE02460A480BA1008806EB0040FFF703
:1099600013FAA179E079814208D92846BDE8704010
:10997000FDF766BF6671F4E72671F2E770BD00007F
:109980005421002073645F626C655F676174746367
:109990005F65786368616E67655F6D74755F72653A
:1099A000717565737428292072657475726E6564AB
:1099B0002025732E00000000F8B505460C460888E7
:1099C000B5F8CA1288425DD195F8C602A61D00EB13
:1099D0008001C1EB801005EB400395F8C50261885A
:1099E00000EBC00003EB40000A3039B329E000BFB0
:1099F00001EB410206EB42029788B7F5245F0CD0D9
:109A00006FF4245C17EB0C070AD0012F02D0072F4C
:109A10000BD108E05288428107E05288828104E03D
:109A20005288C28101E05288028242892AB1828929
:109A30001AB1C2890AB1028A1AB9491C32888A420B
:109A4000D6D800268DF8006095F8C5021979401C1B
:109A5000884203D101208DF8000018E085F8C50286
:109A6000228869462846FDF74FFF01000BD085F894
:109A7000C76222882846FEF721F80A4803210170B0
:109A800021884180F8BD9DF800000028FAD0228886
:109A900001212846FDF7CAFF2188284600F08CF8EE
:109AA000F8BD0000D42200207CB506468D88C88809
:109AB00006EBC504A41D172800D217202188814277
:109AC00000D8084660800020207121882846B5DF34
:109AD00050B1FFF74FFD02460E480121008801EB0F
:109AE00000400DA1FFF750F96079002810D13069CE
:109AF00000280DD01449D1E90201CDE90001ADF8EB
:109B000002506088ADF804003269694630469047DB
:109B10007CBD00005421002073645F626C655F6748
:109B2000617474735F65786368616E67655F6D7497
:109B3000755F7265706C7928292072657475726E14
:109B400065642025732E0000CCA4020070B5054684
:109B50000C4690F8C602228800EB8001C1EB801011
:109B600005EB4001B5F8CA02824222D1608848B1B3
:109B700000212846FDF75AFF21882846BDE870409D
:109B800000F01AB8A2680A60E068C1F806002188EF
:109B90002846FDF79BFD01000BD0002085F8C70289
:109BA00022882846FDF78AFF024803210170218898
:109BB000418070BDD42200202DE9F041044690F888
:109BC000C9020E46401C1949C0B284F8C902C968CE
:109BD0000327174D4FF0000E884224D284F8C5E2C7
:109BE00094F8C602401CC0B200EB8001C1EB8011AA
:109BF00004EB410284F8C602A5F1180101EB8000D4
:109C000001210068106082F804E030469BDF01000B
:109C100007D084F8C7E232462046FDF74FFF2F7089
:109C20006E80BDE8F08184F8C7E2F8E76820002084
:109C3000D42200200449084490F93000082801DBB0
:109C400001207047002070478826002004490844FE
:109C500090F93000082801D2012070470020704799
:109C60008826002010B50C46017A052908D0407AD4
:109C700038B1084808A102682046FEF78DFC00E0D4
:109C80001AB106A12046FEF787FC2046BDE8104029
:109C9000FEF78FBC24210020257300000D0A000070
:109CA00038B5C3880D46044633B114A0009015A200
:109CB00016A12846FEF770FC217A05291CD0607A8F
:109CC00048B1A088FEF726FF164951F8202016A1BA
:109CD0002846FEF761FCA0880021FFF7F1F8034653
:109CE0001049207A143951F8202001B02846BDE8E7
:109CF00030400EA1FEF750BC38BD00001B5B306D3C
:109D0000000000001B5B313B33316D0025734C6F4D
:109D100067732064726F707065642028256429253C
:109D2000730D0A0024210020257300003C25733E9A
:109D30002025733A20000000034802490068FEF71E
:109D40006FBA0000DC20002028A502002DE9F041B8
:109D5000234C0025234E207A012730B92248311D9B
:109D60000068FEF768FA306038B10220207231686E
:109D7000087928B101281ED116E06560BDE8F081A0
:109D8000D1E90503C01A4FF48052904200D3104627
:109D9000B7EB900F01D2820800E001220869C96880
:109DA0001844194429DF03E0D1E90301084428DFFE
:109DB00058B1112812D003213068FDF7F5FE257245
:109DC0006560BDE8F041FFF7B7BF207C0028D5D122
:109DD000BDE8F04100210220FEF700BD2772CDE76B
:109DE000B8280020D820002028A5020070B50C4B10
:109DF00000210A4ADC680DE002EB81058678AD7827
:109E0000B54206D132F821500688B54201D15868D2
:109E100070BD491CA142EFD3002070BDBC220020C0
:109E20006820002000B58FB020216846FCF707FBB2
:109E30001E208DF80000FF208DF8010052208DF8C3
:109E4000020045208DF8030050208DF804004F20BB
:109E50008DF8050010481F21C0F800D0818018211E
:109E600008A8FCF7ECFA01208DF835000020052148
:109E70008DF82010ADF82C0009908DF834001020DA
:109E800005490A9008AAA1F5387072DF002801D0B0
:109E9000FCF74EFF0FB000BD5020002070B501262A
:109EA00070044FF0E0210025C1F88001084C4010FB
:109EB000C4F84803C4F8080366602F20FFF798FB36
:109EC000A660044C2F20A560FFF792FBA57070BD23
:109ED00000100140B020002010B58BDF0649074874
:109EE0008ADF08B1FCF724FF0120FDF7E9FABDE89D
:109EF00010400020FDF7ECBA741D002038A40200C9
:109F000038B50021012548B101280CD0032809D11A
:109F1000FFF73AFBBDE83840FEF726BB4FF0E020E4
:109F2000C0F8805138BD8DF800106846FCF79EFFE0
:109F3000064C207808B9FEF7FBFAE068401CE060A8
:109F4000A5709DF80000FCF7B5FF38BD7426002011
:109F50003EB5044609496846FFF7C8FA08E000BF65
:109F6000D0E900212046904730B16846FFF7D5FA86
:109F700002980028F4D13EBD11203EBDCCA60200BF
:109F80003EB5044608496846FFF7B0FA07E000BF4F
:109F9000D0E90021204690476846FFF7BEFA0298B4
:109FA0000028F5D13EBD0000D8A602002DE9F04101
:109FB0001400884618D000250E4F032608EB050133
:109FC00022460020FCF7E0FB0544241A40B938780B
:109FD000002809D008494FF47A408847761E05D0FA
:109FE00001203870002CE9D1BDE8F08100203870E4
:109FF000FAE70000E8200020B1A60200002805D101
:10A000000349012048700020FDF782BB7047000023
:10A010007426002010B51620FCF778FD48B10A48D8
:10A0200082684FF4800152B1016821F4800101601F
:10A0300010BDBDE8104042F20100FCF779BE4FF0C0
:10A04000E020C0F8801110BD2028002010B5162097
:10A05000FCF75CFDA0B1114890F800044009082805
:10A0600011D280B101280ED004280CD00C4882688F
:10A070004FF480016AB1016841F48001016010BDB4
:10A0800042F2010001E042F20200BDE81040FCF79C
:10A090004FBE4FF0E020C0F8001110BD16E000E008
:10A0A000202800202DE9F84F204D9246894606468B
:10A0B0009846012269461846AF68FDF73DFA58B345
:10A0C000009800210446801C09E000BF00EA070355
:10A0D0005AF8212005EB8303401C491CDA604145F6
:10A0E000F4D34FEA164AFDF735FD4AEA0041601CF9
:10A0F000384005EB80003C4005EB8402C160D0682D
:10A1000066F3C50068F3891069F39F2020F003000F
:10A11000401C20F00400D06095F8200402E000BF4D
:10A12000FEF71EFD0028FBD1BDE8F88F982A00201D
:10A130002DE9F84F1D4C00256846D4E901A6FDF72E
:10A1400013FD002738B30023009A61681CE0D1F8A2
:10A1500000C00846944503D9ACEB02020A6015E042
:10A16000A2EB0C0263440760D0F80CC0C1698146C1
:10A17000BCF1000F08D006EB030828F07F48C0E9C7
:10A18000018CC9F81C5005460029E0D128466160C1
:10A19000FDF78EFE03E02846FDF78AFE10B150461B
:10A1A000FDF7D8FAE770BDE8F88F0000B020002076
:10A1B0000D4B10B5596831B102680C68A24204D841
:10A1C000A21A0A60C161586010BD0B4603E00B463D
:10A1D000C969121B21B10C689442F8D3A41A0C600F
:10A1E0000260C161D86110BDB02000202DE9F041AE
:10A1F000144E77683D462C4603E0844204D0254641
:10A20000E469002CF9D11BE0D4B1A5420BD1F86967
:10A21000706040B90C49012088600021B160F07085
:10A220002F20FFF7E5F92168E069E86110B10268C5
:10A23000114401607068874202D00120BDE8F081BE
:10A240000020FBE7B0200020001001407CB506464E
:10A2500000240D468DF800406846FCF707FE01A873
:10A2600000F0D0F870B10570094946609DF804000F
:10A2700048709DF80000FCF71DFE1420FCF728FA3A
:10A2800020467CBD04249DF80000FCF713FEF7E790
:10A29000142700202DE9F041194D6C68002C2CD0BA
:10A2A000184800270068A968B846401A20F07F4681
:10A2B0002068B0420CD82146361A0744E469087C6D
:10A2C00020B181F81080886949698847002CEFD156
:10A2D00029786878814206D1401CC0B26870022893
:10A2E00001D185F80180064869780C3040F821706A
:10A2F000BDE8F0411420FCF7EBB9BDE8F0810000A7
:10A30000B02000200415014010B50F4CD4E9001016
:10A31000884211D000EB80020C4800EB82018B7860
:10A320005BB130F822000831A3DF002804D1207986
:10A33000401C00F00700606010BD30F822008988E2
:10A340000022A1DFF1E7000078200020D4250020C2
:10A350002DE9F05F8346DDE90A4A994690460D46AD
:10A360000846012703E000BFB0FBF8F07F1C404522
:10A37000FAD2B94500D94F465FEACA7012D18CB102
:10A380005FEA8A7002D5B9F1000F01D0202607E0FC
:10A39000302605E031465846641EFDF715F90CB12C
:10A3A000A742F7D35FF00106B9F1010F02D9A9F175
:10A3B000010903E0B5FBF6F0404502D306FB08F6C1
:10A3C000F2E7DFF83C9000BFB5FBF6F000FB165556
:10A3D00019F800105846FDF7F7F8B6FBF8F6002E0E
:10A3E000F2D15FEACA7009D0002C07D0A74205D28B
:10A3F00020215846641EFDF7E7F8F5E7BDE8F09F19
:10A4000016A502000A494A788B78521CD2B29342B0
:10A4100000D100220B78934201D1002070470270D6
:10A42000487800EB400001EBC000001D70470000C1
:10A4300014270020942100200401A00050000000F7
:10A440000000000000000D0E0F100B0C181900008A
:10A4500001000000000000000000000000000000FB
:10A4600000000000000000000000000000000000EC
:10A4700000000000000000000000000000000000DC
:10A4800000000000000000000000000000000000CC
:10A4900000000000000000000000000000000000BC
:10A4A00000000000000000000000000000000000AC
:10A4B000000000000000000000000000000000009C
:10A4C000000000000000000000000000770A00000B
:10A4D00000000000770A0000000000007ADA0000A7
:10A4E0000000000023D1BCEA5F782315DEEF1212D2
:10A4F00000000000000000500003005003000000B6
:10A50000F426002000000000000000000000000011
:10A510000338FDD870473031323334353637383967
:10A520004142434445460000C42000200010000082
:10A530000400000001000000000000000000000016
:10A54000000000000000000000000000000000000B
:10A5500038A5020050A5020004000000556E6B6E85
:10A560006F776E206572726F7220636F6465000092
:10A570000000000000AC020001000000ACAA0200D4
:10A5800002000000A0A802000300000020AB0200AF
:10A590000400000074AB02000500000054AA020091
:10A5A00006000000F0A90200070000005CAB0200FA
:10A5B0000800000068AA020009000000CCAA0200FE
:10A5C0000A000000E8AB02000B00000088A80200AF
:10A5D0000C00000080AA02000D00000050AC020038
:10A5E0000E0000004CAB02000F00000088AB020020
:10A5F00010000000BCAB02001100000064AC0200BF
:10A600001200000038AC020013000000D4AB0200BE
:10A610008000000008AA02008100000044A9020096
:10A620008200000004A9020083000000E4A80200E8
:10A630008400000020A90200850000002CAA02006E
:10A640008600000034AB020090000000D0A9020098
:10A6500091000000C4A802009200000094AA020029
:10A66000008200009CAB020001820000E8AA020008
:10A670000282000004AB02000084000060A9020016
:10A68000018400000CAC020002840000A8A90200B2
:10A690000384000084A90200318A02002F8A02008C
:10A6A000298A0200000000000000000000000000F5
:10A6B0000338FDD8704700000CB0020014B002004F
:10A6C000000000000000000001000007B8A6020022
:10A6D000C8A6020008000000F0A6020000A70200C1
:10A6E0000800000000A7020010A7020008000000F8
:10A6F00034B0020044B0020000000000000000007E
:10A7000024B0020034B0020000000000000000008D
:10A71000DCAF0200E4AF0200E4AF0200FCAF0200D5
:10A72000FCAF020004B0020004B002000CB0020052
:10A73000701D002010A7020030A7020008000000D2
:10A7400014B0020024B0020000000000000000006D
:10A7500040A7020050A7020008000000004040404F
:10A7600040404040404041414141414040404040E4
:10A770004040404040404040404040404005020290
:10A78000020202020202020202020202022020204F
:10A7900020202020202020020202020202029090AB
:10A7A00090909090101010101010101010101010A9
:10A7B00010101010101010100202020202028888FD
:10A7C0008888888808080808080808080808080809
:10A7D00008080808080808080202020240000000F1
:10A7E0005DA7020073645F626C655F6761705F64A0
:10A7F0006174615F6C656E6774685F7570646174C5
:10A8000065282920287265717565737429206F6E1B
:10A8100020636F6E6E656374696F6E203078257883
:10A820002072657475726E65642025732E000000B9
:10A830005468652072657175657374656420636F13
:10A840006D62696E6174696F6E206F662054582066
:10A85000616E64205258207061636B6574206C6572
:10A860006E6774687320697320746F6F206C6F6EED
:10A8700067206279202575206D6963726F73656347
:10A880006F6E64732E0000004E52465F4552524F69
:10A89000525F494E56414C49445F44415441000087
:10A8A0004E52465F4552524F525F534F46544445B5
:10A8B000564943455F4E4F545F454E41424C4544D7
:10A8C000000000004E52465F4552524F525F4645CF
:10A8D00041545552455F4E4F545F454E41424C45A1
:10A8E000440000004E52465F4552524F525F4D5554
:10A8F0005445585F554E4C4F434B5F4641494C457C
:10A90000440000004E52465F4552524F525F4D5533
:10A910005445585F4C4F434B5F4641494C454400BA
:10A920004E52465F4552524F525F4D555445585F07
:10A93000434F4E445F494E49545F4641494C45445C
:10A94000000000004E52465F4552524F525F4D5537
:10A950005445585F494E49545F4641494C4544006F
:10A960004E52465F4552524F525F424C455F4950EE
:10A9700053505F52585F504B545F5452554E4341B1
:10A98000544544004E52465F4552524F525F424C2E
:10A99000455F495053505F504545525F52454A45C7
:10A9A00043544544000000004E52465F4552524F0A
:10A9B000525F424C455F495053505F4C494E4B5F8C
:10A9C000444953434F4E4E45435445440000000014
:10A9D0004E52465F4552524F525F4150495F4E4F73
:10A9E000545F494D504C454D454E54454400000080
:10A9F0004E52465F4552524F525F4E4F545F535531
:10AA000050504F52544544004E52465F4552524FAB
:10AA1000525F4D4F44554C455F4E4F545F494E4930
:10AA20005449414C495A4544000000004E52465F8B
:10AA30004552524F525F4D4F44554C455F414C5229
:10AA4000454144595F494E495449414C495A45444E
:10AA5000000000004E52465F4552524F525F4E4F2B
:10AA6000545F464F554E44004E52465F4552524F3A
:10AA7000525F494E56414C49445F5354415445003E
:10AA80004E52465F4552524F525F444154415F53CC
:10AA9000495A45004E52465F4552524F525F494F08
:10AAA0005F50454E44494E47000000004E52465FFD
:10AAB0004552524F525F5356435F48414E444C45B6
:10AAC000525F4D495353494E470000004E52465F76
:10AAD0004552524F525F494E56414C49445F4C4596
:10AAE0004E475448000000004E52465F4552524FB8
:10AAF000525F4452565F5457495F4552525F414E30
:10AB000041434B004E52465F4552524F525F4452B2
:10AB1000565F5457495F4552525F444E41434B0084
:10AB20004E52465F4552524F525F494E5445524E27
:10AB3000414C00004E52465F4552524F525F5354B3
:10AB40004F524147455F46554C4C00004E52465FC0
:10AB50004552524F525F4E554C4C00004E52465F8C
:10AB60004552524F525F494E56414C49445F504105
:10AB700052414D004E52465F4552524F525F4E4F2A
:10AB80005F4D454D000000004E52465F4552524F0A
:10AB9000525F464F5242494444454E004E52465F32
:10ABA0004552524F525F4452565F5457495F455287
:10ABB000525F4F56455252554E0000004E52465F6E
:10ABC0004552524F525F494E56414C49445F4144B1
:10ABD000445200004E52465F4552524F525F52451A
:10ABE000534F5552434553004E52465F4552524FC4
:10ABF000525F494E56414C49445F464C41475300D1
:10AC00004E52465F53554343455353004E52465FA1
:10AC10004552524F525F424C455F495053505F433B
:10AC200048414E4E454C5F414C52454144595F4569
:10AC300058495354530000004E52465F4552524FFC
:10AC4000525F434F4E4E5F434F554E54000000003D
:10AC50004E52465F4552524F525F54494D454F55F3
:10AC6000540000004E52465F4552524F525F4255CB
:10AC7000535900007761726E696E67006465627592
:10AC8000670000001B5B313B33306D001B5B306D98
:10AC9000000000001B5B313B33316D001B5B313B1F
:10ACA00033326D001B5B313B33336D001B5B313B3B
:10ACB00033346D001B5B313B33356D001B5B313B27
:10ACC00033366D001B5B313B33376D00696E666F49
:10ACD000000000006572726F7200000073645F62B2
:10ACE0006C655F6366675F7365742829207265749D
:10ACF00075726E6564202573207768656E206174B7
:10AD000074656D7074696E6720746F20736574204C
:10AD1000424C455F47415454535F4346475F534558
:10AD200052564943455F4348414E4745442E000033
:10AD300073645F626C655F6366675F73657428291F
:10AD40002072657475726E6564202573207768655E
:10AD50006E20617474656D7074696E6720746F2005
:10AD600073657420424C455F434F4D4D4F4E5F43DA
:10AD700046475F56535F555549442E0073645F62E2
:10AD80006C655F6366675F736574282920726574FC
:10AD900075726E6564202573207768656E20617416
:10ADA00074656D7074696E6720746F2073657420AC
:10ADB000424C455F47415454535F4346475F4154BB
:10ADC00054525F5441425F53495A452E00000000DF
:10ADD00073645F626C655F6366675F73657428297F
:10ADE0002072657475726E656420257320776865BE
:10ADF0006E20617474656D7074696E6720746F2065
:10AE000073657420424C455F434F4E4E5F43464747
:10AE10005F4741502E00000073645F626C655F63A2
:10AE200066675F73657428292072657475726E6534
:10AE300064202573207768656E20617474656D7079
:10AE400074696E6720746F2073657420424C455F8F
:10AE50004741505F4346475F524F4C455F434F5514
:10AE60004E542E00626C655F64625F6469736300B8
:10AE70006E72665F626C655F6761747400000000EB
:10AE8000626C655F6C62735F63000000636C6F638C
:10AE90006B000000434C4F434B0000004750494FAC
:10AEA00054450000505253005541525400000000D8
:10AEB00055415254450000006E72665F6673746FB0
:10AEC000726167650000000061746669666F2E6DCF
:10AED0005F6669666F0000007077725F6D676D7402
:10AEE0000000000062616C6C6F632E6C6F675F6DB9
:10AEF000656D706F6F6C0000617070006E72665FE0
:10AF0000736468006E72665F7364685F626C65008C
:10AF10006E72665F7364685F736F630044B00200B3
:10AF2000701D002024040000986402009CB0020000
:10AF300094210020B42F0000FE6A020064AE0200DB
:10AF40000000030370AE02000000030380AE0200A5
:10AF5000000003038CAE02000000000094AE02006B
:10AF6000000000009CAE020000000000A4AE020041
:10AF700000000000A8AE020000000000B0AE020019
:10AF800000000000B8AE020000000303C8AE0200DB
:10AF900000000003D8AE020000000000E4AE020092
:10AFA00000000003F8AE020000000303FCAE020044
:10AFB0000000030304AF02000000030310AF02000F
:10AFC0000000030300210020F820002000210020C1
:10AFD000D829002080210020180000004D710200B7
:10AFE00000000000C9830200C4210020456F020058
:10AFF000841D0020DD7002000000000015730200B7
:10B00000B4210020FD6F020000000000A5870200AF
:10B0100000000000FD9F020000000000DD8702002C
:10B02000000000004193020000000000B194020003
:10B0300000000000019F020000000000BD87020028
:10B040000000000032FF13172233201F120B1203DF
:10B0500004FFFD750201FF01CD15FFFFF821037FFD
:10B06000201F1A78840114042598A60214D4AC0277
:10B070001A74041ACC041A7C041A8C041A84041A54
:10B0800094041A9C041AA4041AAC041AB4041ABC3A
:0CB09000041AC40451044490D0030000D2
:040000050002620192
:00000001FF
