:020000040002F8
:1060000070480020C1630200C9630200CB63020034
:10601000CD630200CF630200D163020000000000E4
:10602000000000000000000000000000D363020038
:10603000D563020000000000D7630200D9630200AC
:106040007D670200DB630200DD690200DB630200A2
:10605000DB630200DB63020065650200DB630200B4
:10606000DB630200DB630200DB630200DB63020030
:10607000DB630200DB630200DB630200DB63020020
:10608000DB630200D5670200DB630200DB63020012
:10609000F9670200DB630200FD670200DB630200B8
:1060A000DB630200DB630200DB630200DB630200F0
:1060B000DB630200DB630200000000000000000060
:1060C000DB630200DB630200DB630200DB630200D0
:1060D000DB630200DB630200DB630200DB630200C0
:1060E000DB630200DB630200DB63020000000000F0
:1060F00000000000DB63020000000000DB63020020
:10610000000000000000000000000000000000008F
:10611000000000000000000000000000000000007F
:10612000000000000000000000000000000000006F
:10613000000000000000000000000000000000005F
:10614000000000000000000000000000000000004F
:10615000000000000000000000000000000000003F
:10616000000000000000000000000000000000002F
:10617000000000000000000000000000000000001F
:10618000000000000000000000000000000000000F
:1061900000000000000000000000000000000000FF
:1061A00000000000000000000000000000000000EF
:1061B00000000000000000000000000000000000DF
:1061C00000000000000000000000000000000000CF
:1061D00000000000000000000000000000000000BF
:1061E00000000000000000000000000000000000AF
:1061F000000000000000000000000000000000009F
:10620000DFF80CD000F070F9004800479D7D0200D7
:106210007048002030B450E8012F93B2C489234461
:106220008489A34228BF1B1B0489A34202BFBFF37A
:106230002F8F002007E0C3EA020340E80134002C5E
:10624000E9D14FF001000A6030BC704750E8012FDF
:10625000C2EA024240E801210029F7D1704730B478
:1062600050E8022F1FFAA2F3C488A34202BFBFF373
:106270002F8F00200DE0C48923448489A34228BFC6
:106280001B1BC2EA034340E80234002CE8D14FF064
:1062900001000A6030BC704750E8022FC2EA224277
:1062A00040E802210029F7D17047034653E8022F46
:1062B000D988B2EB324F4FF0000017BF92B241EADB
:1062C000014142EA014104E05A68B2EB324F08BF93
:1062D000012043E80212002AE8D1704730B4044696
:1062E00054E8000F0D4644E80053002BF8D1156028
:1062F00030BC704730B4044654E8000F40EA010552
:1063000044E80053002BF7D1156030BC704730B41F
:10631000044654E8000F00EA010544E80053002B4E
:10632000F7D1156030BC704730B4044654E8000F14
:1063300080EA010544E80053002BF7D1156030BC1A
:10634000704730B4044654E8000F00EB010544E800
:106350000053002BF7D1156030BC704730B40446B1
:1063600054E8000FA0EB010544E80053002BF7D1DF
:10637000156030BC704770B404464FF0000054E81C
:10638000006F0D68AE4207BF44E80023012044E8D7
:1063900000630E60002B1CBF0020F0E770BC70474C
:1063A00030B4044654E8000F88422CBF451A054615
:1063B00044E80053002BF5D1156030BC7047000055
:1063C0000648804706480047FEE7FEE7FEE7FEE78F
:1063D000FEE7FEE7FEE7FEE7FEE7FEE701680200F4
:1063E000016202002DE9F05F0546002092469B46BF
:1063F00088460646814640241BE0284641464746DB
:10640000224600F060F853465A46C01A914110D314
:1064100011461846224600F016F82D1A67EB0108BF
:106420004F4622460120002100F00DF817EB00092D
:106430004E41201EA4F10104DFDC484631462A46C5
:106440004346BDE8F09F202A04DB203A00FA02F11F
:10645000002070479140C2F1200320FA03F3194352
:106460009040704740EA01039B0703D009E008C948
:10647000121F08C0042AFAD203E011F8013B00F809
:10648000013B521EF9D27047D2B201E000F8012B55
:10649000491EFBD270470022F6E710B513460A46A4
:1064A00004461946FFF7F0FF204610BD30B50446FC
:1064B0000020034600E05B1C934203D2E05CCD5C0D
:1064C000401BF8D030BD202A04DB203A21FA02F02C
:1064D0000021704721FA02F3D040C2F1200291401E
:1064E0000843194670470000064C074D06E0E06877
:1064F00040F0010394E8070098471034AC42F6D30B
:10650000FFF782FE309402005094020070B58C18A0
:1065100010F8015B15F0070301D110F8013B2A11B7
:1065200006D110F8012B03E010F8016B01F8016BA4
:106530005B1EF9D12B0705D40023521E0DD401F8A0
:10654000013BFAE710F8013BCB1A921C03E013F869
:10655000015B01F8015B521EF9D5A142D8D300209E
:1065600070BD00002DE9F04F00268DB0DFF8A0814E
:10657000B14604964FF480750124374605962846A7
:1065800001F0EEFE38B1D8F80403204203D02846CB
:1065900001F0DCFE26432D1D64007F1CADB2082FE8
:1065A000EDD34FF4BE74204601F0DAFE48B1204628
:1065B00001F0CCFE46F0004604AA0221002001F0C2
:1065C000AFFE544C16F0FF0F15D0012700253742BF
:1065D0000DD008EB8501D1F81005D1F81015C0F3E6
:1065E000052054F82520C1F3014102B190477F00F6
:1065F0006D1C082DEBD3002E7EDA0020CDF82890FC
:10660000411E0DF1100B07AACDF82C9042F8201076
:10661000401C91460228F9D300252E46A11911F8F5
:10662000607F91F9000027F0C008401C40D007A906
:10663000404601F061FC40B34FEA971A404601F032
:1066400077F854F820701FB1BAF1030F03D006E0B9
:10665000BAF1030F2CD10AA9404601F055FC02A85B
:10666000CDF8088001F030FE029900EB8100D0F8EF
:10667000000704A9C0F301400290404601F03CFC31
:106680000028029802D0022802D011E003280FD17E
:10669000BAF1030F08D10298022833D002214046F4
:1066A00001F0ECFD6D1CEDB217B151464046B84704
:1066B000761C042EB2D3002D21D001AA0221002085
:1066C00001F02EFE00205A460DF1040152F8206020
:1066D00051F82030B34217D000200AAE4FEA090328
:1066E00051F8207042F8207056F8207043F820705E
:1066F000401C0228F4D300E001E0002D8CD10DB045
:10670000BDE8F08F0321CAE7401C0228DED3F6E77C
:10671000006000400C26002000F01F020121914083
:106720004009800000F1E020C0F88012704700F0BE
:106730001F02012191404009800000F1E020C0F8D3
:106740000011704700F01F020121914040098000B4
:1067500000F1E020C0F8001270474907090E002838
:1067600006DA00F00F0000F1E02080F8141D7047F9
:1067700000F1E02080F800147047000070B54FF47D
:106780008076304601F096FC114CB50560B130467C
:1067900001F097FC0120C5F80803607920B90120B9
:1067A00060712168002088474FF48276304601F0FE
:1067B00081FC00280AD0304601F083FC0220C5F895
:1067C00008032168BDE870400120084770BD000043
:1067D0009020002007480021C0F84011C0F8441163
:1067E000C0F84811C0F84C11C0F80011C0F80411ED
:1067F00002F096BC0010014002F0E0BB01F0D6BEF2
:1068000030B54FF0805000228300D0F83011C3F82B
:106810000C21C3F81021624B1A60624B1B68624C5A
:106820002360604B1B1D1B68241D23605D4B0833D8
:106830001B68241D23605B4B0C331B68241D2360E5
:10684000584B10331B68241D2360564B14331B68B0
:10685000241D2360534B18331B68534C2034236092
:10686000504B1C331B68241D23604E4B20331B6888
:10687000241D23604B4B24331B68241D2360494B8C
:1068800028331B68241D2360464B2C331B68241DB2
:106890002360444B30331B68434C40342360414BEE
:1068A00034331B68241D23603E4B38331B68241D82
:1068B00023603C4B3C331B68241D2360394B403321
:1068C0001B68241D23600124082902D1D0F834312B
:1068D00013B1082904D006E0354B3449196005E0AE
:1068E000D0F8343113B1082904D006E0314BFB2134
:1068F000196005E0D0F8343113B1082908D00EE052
:1069000090F858322C48016863F30301016002E0FB
:10691000D0F834311BB929494FF400700860284879
:106920000168C90702D06FF00101016025480168C4
:1069300041F470010160BFF34F8FBFF36F8F4FF0D1
:106940001021D1F80002002803DBD1F8040200284E
:1069500022DA1D4B1C601D480468002CFCD0122458
:10696000C1F800420568002DFCD0C1F8044201685E
:106970000029FCD01A6001680029FCD0BFF34F8FBA
:1069800010487C380168124A01F4E061114301604B
:10699000BFF34F8F00BFFDE70F490E48086030BDC1
:1069A000380500400404001020C500404881030061
:1069B0008C56004018F50040E40E0040409602401E
:1069C0000004004088ED00E004E5014000E40140DF
:1069D0000400FA050090D003E82000200148006878
:1069E00000470000982000200FB4084B10B504A900
:1069F00002AA039800F02EF8044602A9002000F035
:106A00005AFA204610BC5DF814FB0000B76E020075
:106A100002E008C8121F08C1002AFAD17047704767
:106A2000002001E001C1121F002AFBD170470000C5
:106A30000121202803DA81400548014003E0402875
:106A400002DA2038814009B10120704700207047E8
:106A5000FC06FFBD2DE9FF4F8DB00F460546002611
:106A600006E025280BD0DDE90F1290476D1C761C3F
:106A700028780028F5D111B03046BDE8F08F002409
:106A8000A246A1460122EC4900E0044315F8013F6B
:106A9000203B02FA03F00842F7D128782A2810D0C8
:106AA0006FF02F022878A0F13001092914D80AEBE1
:106AB0008A0102EB410144F0020400EB010A6D1C63
:106AC000F0E701CF5FEA000A03D544F40054CAF1AD
:106AD000000A44F002046D1C28782E2817D115F8FE
:106AE000010F44F004042A280ED06FF02F022878FA
:106AF000A0F1300109290AD809EB890102EB410113
:106B000000EB01096D1CF2E757F8049B6D1C287817
:106B10006C280FD006DC4C2817D068280DD06A28C6
:106B200014D104E0742810D07A280FD10DE044F479
:106B300000140AE044F4801401E044F4401469783D
:106B4000814202D104F580146D1C6D1C2A786E2AD6
:106B50001FD00CDC632A31D004DC002A8BD0582AE9
:106B600011D1A3E0642A68D0692A0CD165E0732AA8
:106B70002ED004DC6F2A73D0702A04D19BE0752AD2
:106B80006FD0782A6ED01046DDE90F129047761C40
:106B900050E1C4F30250022806D0032809D004288B
:106BA00001CF09D0066045E101CFF117C0E90061CE
:106BB00040E101CF06803DE106703BE117F8040B90
:106BC0008DF8000000208DF80100EB46012003E065
:106BD00057F804BB4FF0FF3061074FF0000102D4BB
:106BE0000DE008F10101884649450FDA8045F8DBE0
:106BF0001BF808100029F4D108E008F101018846CB
:106C00008142FADB1BF808100029F6D1DDE90F23D9
:106C1000AAEB08008146214600F036F9304400EB2B
:106C2000080604E0DDE90F121BF8010B9047B8F1EC
:106C30000108F7D221464846F7E00A21C4F302537F
:106C40004FF0000B0891022B04D001CFC117032B8A
:106C500009D00AE0FF1D27F00707F7E8020108E066
:106C600032E01FE020E000B2C117042B01D140B296
:106C7000C117031E71F1000307DA4FF0000CD0EBCF
:106C80000C006CEB01012D2302E0230504D52B231E
:106C90008DF82430012303E0E30701D02023F7E738
:106CA000984658E00A2110E010210EE010204FF025
:106CB000000B08900CE010214FF0000B44F004048E
:106CC0004FF00809089103E008214FF0000B0891EC
:106CD000C4F30253022B04D001CF0021032B06D0B2
:106CE00006E0FF1D27F00707F7E8020103E080B286
:106CF000042B00D1C0B24FF0000823072BD5702A17
:106D000007D0DDF820C08CF0100C5CEA0B0C05D02D
:106D10000EE040238DF82430012308E050EA0103FF
:106D200006D030238DF824308DF825200223984694
:106D3000DDF820C08CF0080C5CEA0B0C0BD150EA9B
:106D4000010301D1630706D530238DF824304FF0BD
:106D50000108A9F10109582A04D038A20B9208AA07
:106D60000A920BE03AA2F9E75B46089AFFF73AFB72
:106D70000B9B9B5C0A9A521E0A92137050EA010206
:106D8000F2D10A98ADEB000000F1200B600702D5AC
:106D900024F4803401E04FF00109D94502DDA9EB6C
:106DA0000B0000E0002000EB0B0141440890AAEB2F
:106DB000010AE00306D4DDE90F232146504600F026
:106DC00063F806444FF0000908E009A911F809002A
:106DD000DDE90F12904709F10109761CC145F4DB8A
:106DE000E0030CD5DDE90F232146504600F04CF8B6
:106DF000064404E0DDE90F1230209047761C089924
:106E0000481E08900029F5DC08E00A980A990078E5
:106E1000491C0A91DDE90F129047761CBBF1000175
:106E2000ABF1010BF1DC21465046DDE90F2300F008
:106E300019F806446D1C1BE6092801003031323375
:106E400034353637383961626364656600000000A6
:106E50003031323334353637383941424344454690
:106E6000000000002DE9F041044600251E461746AB
:106E7000880404D405E039462020B0476D1C641E08
:106E8000F9D52846BDE8F0812DE9F04104460025FA
:106E90001E469046C80301D5302700E0202788040D
:106EA00004D505E041463846B0476D1C641EF9D54F
:106EB0002846BDE8F0810A68531C0B6010707047CB
:106EC00010B501220221002000F0C8FB08B10728FC
:106ED00010D107220221012000F0C0FB08B10728D1
:106EE00008D100210A22084600F0B8FB08B10728A3
:106EF00000D1002010BD000004480121007873DF9C
:106F0000002801D000F058B8704700003C20002055
:106F1000F8B515460C460646052A01D20720F8BDED
:106F200001F098FC18B901F05BFC0028F7D1124978
:106F300000224E600C708D60C1E90422C1E9062276
:106F40000E4D0DE006EBC4002968009181788DF8A4
:106F5000011000780A4A694601F0D0FB0028DED112
:106F6000641EE4B2EED2BDE8F84004480021054AB0
:106F7000001D00F02DB80000A0200020409302006A
:106F8000BD7B02006979020072B609480068C0073B
:106F900000D000BEBFF34F8F0548E4380168054AB2
:106FA00001F4E06111430160BFF34F8F00BFFDE7C3
:106FB000F0ED00E00400FA050EB500210091CDE9E6
:106FC00001106A4644F20100FFF7DEFF0EBD00002B
:106FD000084B9B7823B12AB120B10068037C1BB118
:106FE00008207047072070470023037441744261F2
:106FF000184670479826002070B501F017FF10481A
:1070000000240B21047044700E4D817014206C60BC
:107010002C706C70FFF780FB07211420FFF79DFB9D
:107020001420FFF784FB0848046007211120FFF7B4
:1070300094FB0548001F0068A860002070BD000098
:1070400098260020C0200020081501402DE9FC47AB
:10705000DFF8789099F8023073B368B3052902D24B
:107060000720BDE8FC87436933B3437C012B25D05F
:10707000002704460025884616468DF800506846CD
:1070800000F038F801A802F0E1F8C8B10121017060
:107090000F4944600968C0E90218C0E904769DF808
:1070A000040089F801009DF8000000F047F8142062
:1070B000FFF748FB2846D4E70820D2E70F46D8E779
:1070C00004259DF8000000F039F8F3E79826002029
:1070D000041501400649897839B130B1416921B1BF
:1070E00000210174022101F0F7BF08207047000061
:1070F0009826002030B5EFF3108172B60D4A9468DF
:10710000012324B10370002900D162B630BD936021
:107110004FF0E023D3F88051074C25401560C3F8A9
:107120008041D3F8844154605A17C3F88421002267
:107130000270E8E7A4270020FC06FFBD0B498A681F
:10714000002A11D000280FD1EFF3108072B60B681F
:107150004FF0E022C2F800314B68C2F8043100223F
:107160008A60002800D162B670470000A427002082
:1071700070B540B10C4D297839B1044601F0C8FD15
:1071800028B1002070BD0E2070BD082070BDE868D9
:10719000062807D20549226801EB8001401C0A60DD
:1071A000E860EEE7042070BD782000204022002037
:1071B00040B1054900220123CA600B70C1E90102F8
:1071C000104670470E2070477820002070B50400EC
:1071D0002DD000292BD020480078002827D02088E7
:1071E0000D46112815D0302804D0322807D0332876
:1071F0001ED109E0211D284601F082FC18E0211D66
:10720000284601F07BFB13E0211D284601F000FC1D
:107210000EE0A088B5F8CA12884209D1002085F88E
:10722000C70285F8C8024FF6FF70A5F8CA0270BD04
:1072300095F8C8020028FAD020883028F7D34F28C4
:10724000F5D8A088B5F8CA128842F0D12846BDE822
:10725000704000F03BBC00007820002010B50146D3
:10726000001D09881B2912D01D290BD0262924D1E5
:107270008BDF124912488ADF00281ED0BDE810407B
:10728000FFF79ABEBDE81040001D01F0EDBA00798D
:10729000012812D1094C241F6078052805D301F07C
:1072A00053FDFFF729FE002006E008B901F09CFC21
:1072B000FFF722FE6078401C607010BD4020002067
:1072C0007C92020010B51A4C0188606810290ED01B
:1072D00011292BD1401E606028D1FFF7F1FD002855
:1072E00024D02168002921D0BDE810400847D0B93A
:1072F00000210122084600F0B1F908B107280FD19A
:1073000007220221012000F0A9F908B1072807D1BE
:1073100004220221002000F0A1F920B1072802D0A8
:10732000216801B188476068401C606010BD0000A2
:10733000702000202DE9F04F0746858802883D48DF
:10734000012197B08346102A09D0112A49D01A2A60
:107350006CD1387AB1EB101F45D2012244E0354C94
:10736000083CA068C0430B9061680BA800F0B8FD12
:107370000B990CA800F07EFA2C220CA96846FFF7A6
:1073800071F80026E946A04610E000BF09EB460070
:107390005FF00004B0F804A008EB84005146001D23
:1073A00000F07EFD641C1D2CF6D3761C0098B042C4
:1073B000ECD8142D05D317B00420BDE8F04FFFF72B
:1073C000FBBD2946584600F081FD294608F104001E
:1073D00000F07CFDF87B012828D016482946001DC6
:1073E00015E029461AE000220221B1EB101F01D25C
:1073F000012600E000260F49083901F11000041DA4
:10740000294682B100F062FD36B12946204617B008
:10741000BDE8F04F00F05ABD2946204617B0BDE840
:10742000F04F00F03DBD00F03BFDF5E717B0BDE8C3
:10743000F08F0000D021002030B5134D040085B03E
:107440002DCD8DE82D001DD0E1B10868D0B1002010
:107450006080A080E0804FF6FF7020800868A06008
:1074600004F10C01684662DF002809D1207B8DF809
:10747000120041F22350ADF8100004A8FFF778FE87
:1074800005B030BD0E20FBE7289302000EB50029A1
:1074900021D000281FD00288112A25D0382A1BD0DD
:1074A000392A18D10A4609888388994213D141891B
:1074B000938899420FD1C18901290CD102218DF8FD
:1074C00000101188ADF80210007C8DF8040093685C
:1074D0006946104698470EBD098880888142FAD1D6
:1074E000BDE80E4001F056BE0A8880888242F2D183
:1074F0004FF6FF700880002048808880C8800EBD4D
:1075000070B518B30288A2F57F43FF3B1CD0104C26
:10751000104D236803EB83025B1C03F00703236019
:1075200005EB8202C38853810123D381141D1461AA
:1075300000249481022414721171008810809370C9
:1075400001F028FE002070BD082070BD0E2070BD27
:1075500088200020582500203EB50A78002A40D116
:107560008A88A2F5A853233B3BD18A79037B9A42B0
:1075700037D101228DF800204A88ADF80220002280
:1075800018E000BF02EBC20301EB430333F80E4FD8
:1075900004F6DC24B4F5005405D0012C09D11B8974
:1075A000ADF8083005E01C89ADF806405B89ADF800
:1075B0000430521C0B7A9342E4D80188A1F57F4233
:1075C000FF3A0BD0C18849B9818839B9418829B9B6
:1075D0000199C0F80210BDF80810C18082686946A0
:1075E00090473EBD2DE9FC410646C0074FF000051F
:1075F0000ED0104F00240122385D00950023114663
:10760000019500F009FE641C042CF4D300F01CF872
:10761000B0070DD5074E0024361D0022305D032330
:1076200000951146019500F0F7FD641C042CF4D37D
:10763000BDE8FC818A9202000249085C012100F049
:107640005CBE00008A92020010B500242046FFF7BD
:10765000F3FF641C042CF9D310BD000070B50023A7
:10766000042810D20D4D00EB4004012A02D101295B
:107670000CD00022094E00EB4000304461B10129DA
:1076800006D0022906D00723184670BD0E30C2B2BC
:107690002A55F9E74270F7E78270F5E7BA21002032
:1076A00010B50B280AD10848FFF72AFF002809D097
:1076B000A0F54051023905D0082803D0BDE810409C
:1076C000FFF77ABC10BD0000EC20002005494FF008
:1076D000FF32082841F8202002D3084480F85820BF
:1076E000704700000C260020F0B54FF0FF3512B1B6
:1076F0000023082601E008230C260C4C05E000BFFF
:1077000054F823707F1C04D05B1CB342F8D3284686
:10771000F0BD26185DB286F8305044F82310002AD8
:10772000F5D1E11881F85800F1E700000C2600209F
:107730000249084490F93000704700000C260020F0
:1077400008B5024690F8C6020B4600EB8001C1EB7B
:10775000801002EB400092F8C52242B1521ED2B214
:1077600002EBC20100EB4102518A491C00E0C188D2
:10777000ADF800100089ADF80200694618469DDF9B
:1077800008BD000070B5084C050009D01034216810
:10779000002907D008682060496828468847F6E72E
:1077A0000834F4E770BD0000F8250020054A0121E7
:1077B00020B1012805D19170FFF7E4BF517000207E
:1077C000FAE77047F82500202DE9F05F2648416868
:1077D000F1B3DFF898B00E688146DBF800408768A7
:1077E0008078E11B21F07F45ED1CB0B9DFF8808087
:1077F0004FF48030C8F84403C8F804031120FEF7A2
:107800008BFF1120FEF793FF4FF0010AC8F800A08C
:107810002F2000F06BFF89F802A0B54200D2354658
:10782000124BE8193C3320F07F401860DBF8001061
:107830005A46091B21F07F41001B20F07F40C91CE4
:1078400081420FD9106818602F2000F04FFF00E030
:1078500004E0BDE8F05F1120FEF774BFBDE8F05F03
:1078600001F0E4BABDE8F09FC020002004150140FB
:107870000010014073B58CB00646002000900D98B2
:1078800080B100246D4621460DA800F014FB30B1F4
:10789000009805EB400084800098401C0090641C18
:1078A000142CF0D32C2269463046FEF7DBFD0EB0D7
:1078B00070BD1FB500220092ADF800100192ADF826
:1078C00002100292039202AA694690DF04B010BD32
:1078D00001460148FFF740BEEC2000202DE9F843A7
:1078E000054690F8C6020F4600EB8001C1EB801000
:1078F00005EB400695F8C542914604EBC40006EB43
:1079000040013279601C0A31904226D16B46002238
:10791000284600F095F918B310E0401EA04201D1AE
:10792000002004E004EBC40006EB40001C3080465D
:1079300002466B46284600F083F930B100203870CB
:10794000694648469EDFBDE8F88395F8C502414682
:10795000401C641C85F8C502E4B23079A042DCD832
:10796000012038700020EEE72DE9F0470025DFF810
:107970008C803CE06068002100EBC5060120327875
:107980009146FEF760FDD4E9062300EA020701EA0A
:10799000030C57EA0C0728D082438B434846C4E9BE
:1079A000062300F015FF327882469146012000211F
:1079B000FEF749FDD4E9042300EA020401EA0307C3
:1079C0004A4650460021FEF73EFD44404F403C43AE
:1079D0000BD17078012801D0012100E000217268EC
:1079E00081EA0A010AB1484690476D1CEDB298F849
:1079F000000044468542BDD3BDE8F087A0200020AA
:107A00002DE9F047894690F8C612904601EB8102B5
:107A1000C2EB811100EB4107384601F079F906000D
:107A20002FD0194CA06806282BD2184D762205EBD2
:107A3000C0103946A0F80280001DFEF713FD002794
:107A4000B9F1000F04D0A06805EBC010077004E086
:107A5000A168022005EBC1110870A06805EBC011F8
:107A6000401CCE67A060E16888420AD1002604E08D
:107A700005EBC610C16F8847761CE0688642F7D3D5
:107A8000A760BDE8F0870000782000205822002081
:107A900070B50E4690F8C612154601EB8102C2EB96
:107AA0008111A0B000EB410001F032F9040009D0CF
:107AB0007C2205496846FEF7D5FCADF802506846C1
:107AC0000196A04720B070BD9492020070B50E469A
:107AD00004464FF43371FEF7DEFC11480025A4F88C
:107AE000CA62856084F8C9520E4884F8C65284F888
:107AF000C552006820602246012130469BDF0121EB
:107B0000112806D0002809D184F8C71284F8C85279
:107B100003E084F8C71284F8C812002070BD00008A
:107B200078200020402200200E4910B50A784C78B9
:107B30000023A24212D0521CD2B20A70022A00D1F3
:107B40000B70084A0B780C3252F8232002608868C8
:107B5000104420F07F408860012010BD03600020A9
:107B600010BD0000C020002030B50446006887B07A
:107B70000D46806800281FD018216846FEF78BFC50
:107B80000195A0680590207910B1012810D107E077
:107B900001208DF8000020690290E068039005E064
:107BA00002208DF80000E0680003029060690490F4
:107BB000206881686846884707B030BD2DE9F041EC
:107BC0008046024601200021FEF73DFC1A4F054683
:107BD0000E467868FFF77EFA00280CD1174CD4E9DE
:107BE000062110462A4001EA06031A4305D0A8439D
:107BF000B143C4E90601BDE8F081404600F0E8FD6C
:107C000030B1D4E9040128433143C4E9040105E05B
:107C1000D4E90410A943B043C4E90410D4E906012F
:107C200028433143C4E90601A1687868BDE8F04102
:107C30000022FFF70BBA000040930200A0200020B2
:107C400010B509892AB1D088491C814218D1002079
:107C500010BD90F8C62202EB8204C4EB821200EB46
:107C6000420212899142F2D0491C198090F8C61242
:107C700001EB8102C2EB811100EB4100008902E0BF
:107C80001980D088401E5880012010BD70471721F0
:107C9000018041800021017141711B218171C171FD
:107CA000704700002DE9F047394E002780463D46D9
:107CB000DFF8E090D6F804A057E003D00446D0F8EF
:107CC0001C8035E099F8002002EB4201521CD2B230
:107CD00089F8002009EBC10199F80230091D9A4288
:107CE00001D189F8005048680A780446012A12D068
:107CF000022A02D0032A3BD108E001F0BDF900B10D
:107D00000127257434E00574C06900E0706800281C
:107D1000F9D170602CE0207C50BB88686060C86836
:107D2000A0600869E0604869A061F07800B1656012
:107D30006268B168184B501A20F07F40984202D216
:107D4000A168084406E0881AA16820F07F408142BB
:107D500002D9081A206000E0256065600120A56056
:107D600020742046E56101F069F9B8F10000A4D162
:107D700099F8001099F801008142A3D117B97168F0
:107D8000514502D00120BDE8F0870020FBE700004C
:107D9000C020002098260020FFFF7F0008B5FFF7D5
:107DA0002BF908B1FFF708F90120FFF71BFC40F29F
:107DB000666201212B48FFF7ABF808B1FFF7FCF82A
:107DC00000F0D6FA08B1FFF7F7F800F0B5FB08B1FC
:107DD000FFF7F2F8002469460120009400F008FB48
:107DE00008B1FFF7E9F8684600F044FB08B1FFF777
:107DF000E3F81C4D04220C3D0120297877DF042292
:107E00002978012077DF0021174800F087F808B1B2
:107E1000FFF7D2F81548FFF7CBF908B1FFF7CCF818
:107E200013480090104869461038FFF705FB08B169
:107E3000FFF7C2F80C4A002014326FF07F0300BF36
:107E4000C0EBC0011144401C0C608C808B71042875
:107E5000F6DB00F0C9FEFFF74FF800BF00F09CFA18
:107E6000FCE7000048200020FC200020D178020020
:107E70008D7C020010B50A8849888A4203D1FEF73A
:107E80000BFA012010BD002010BD70B50C46054650
:107E9000FEF7E5F9002802D061882868084470BD23
:107EA00001F01F0301229A40D243490900EB8100EF
:107EB000114600F015B84A0950F8220001F01F02DF
:107EC00001219140084000D00120704701F01F03BC
:107ED00001229A40490900EB8100114600F006B8E2
:107EE00008B56A46FEF713FA009808BD08B56A4659
:107EF000FEF700FA009808BDC20800F00703012051
:107F0000895C98400840704710B5C20800F007032C
:107F1000885C01249C402043885410BD10B560B19A
:107F20000161172120F8021B20F8021B1B2100F819
:107F3000021BFFF7ACFE002010BD0E2010BD00009C
:107F40002DE9F047B0F804A08EB00C465FEA0A09AC
:107F500057D10188564E0127002524297BD006DC05
:107F6000102909D0112929D0232926D199E03A29AD
:107F700028D0552921D147E021792173C07BA61D46
:107F8000012802D0022804D101E0208800E06088A6
:107F9000308031887088814208D94846A5DF10B109
:107FA000112802D002E0777100E03771B179F079E1
:107FB00081426BD94846FFF77CFC67E0A01DFFF7C4
:107FC00066FE63E02246408934F8061F814200D8ED
:107FD00008466080172800D217206080106970B1B1
:107FE000607960B1D6E90001CDE90001ADF80290F9
:107FF0006088ADF8040013696946104698476571BA
:1080000025710EB0BDE8F087C08804F10608172876
:1080100000D21720B8F80010814200D80846A8F80E
:10802000020088F804502846B8F80010B5DF98F828
:10803000050058BB206948B3D6E90201CDE900012B
:10804000ADF80290B8F80200ADF804002046694689
:1080500022691AE0FFE7011D2C226846FEF702FAAA
:10806000BDF80000BDF8042004EBC0014A7322698A
:1080700062B1D6E90423CDE90B23ADF82E00487B8D
:108080008DF83000226920460BA99047A07A00287D
:10809000B7D0E1885046A5DF0028B2D1A572E772BB
:1080A000AFE7017A207B884284D2014682E7000054
:1080B0001093020000F180400068002800D00120E9
:1080C000704708B500F18040002101600068009011
:1080D00008BD000070B50B4C207808B185250FE075
:1080E0000020A06060602061E060074800F0E0FAD6
:1080F000054600F06DFA08B900F0C4FA01202070BE
:10810000284670BDF8250020AD77020038B500255F
:108110008DF800506846FEF7EDFF074CE068401E02
:10812000E060E06810B900F0D3FAA5709DF8000097
:10813000FFF704F838BD0000F825002004480121AD
:108140004174007A08B10020704701207047000098
:108150004C280020012801D0032808D1044900221E
:1081600001284A7400D00020087400F081BD7047D7
:108170004C28002070B50246022801D0032A45D1C0
:10818000234C207A002841D0012833D0022831D155
:1081900020480023022A006802D0032A2AD11BE0CB
:1081A000E360017911B1012924D10DE0D0E9056521
:1081B000711B4FF48056B14200D33146294481618E
:1081C0004569A9420ED015E00169491C0161426967
:1081D00091420FD1237213E0E168491CE160082944
:1081E00008D9E3602372022A0AD00D21FFF7BCFCF4
:1081F00000F034FD607C28B1BDE8704000F0EEB9BD
:108200000021F3E7BDE8704000F032BD70BD000012
:108210004C280020D42000202DE9FF411C46DDE938
:108220000A7815460E46684600F040F846EA4501D1
:1082300041EA840141EA072242EA0841009A00EB40
:108240008200C0F80017BDE8FF812DE9FF411C4600
:10825000DDE90A7815460E46684600F035F846EA2C
:10826000450141EA840141EA072242EA0841009AB5
:1082700000EB8200C0F80017BDE8FF8113B50C4683
:10828000684600F021F8009900EB8101D1F8002741
:1082900022F44032C1F80027009900EB8100D0F8A9
:1082A000001741EA0441C0F800171CBD01682029ED
:1082B00002D24FF0A040704701F01F010160014859
:1082C00070470000000300500168202902D24FF0DF
:1082D000A040704701F01F01016001487047000095
:1082E0000003005001B56846FFF7EEFFD0F8100517
:1082F0000099C84000F0010008BD38B50124009085
:10830000684631B1FFF7D2FF00998C40C0F80845AC
:1083100038BDFFF7CBFF00998C40C0F80C4538BD45
:108320001CB5094C0144D4E90034CDE900346C4655
:1083300006E000BF54F82030D3F81035401C08C2C6
:108340008142F7D81CBD000038930200034908B5EC
:108350000844002101600068009008BD00600040F2
:1083600002494058012800D00020704700600040BA
:10837000064910B500204870091D0860BFF35F8FE3
:108380000349044800F056F9002010BDDC2000200D
:10839000809302006028002008B500208DF80000BE
:1083A0006846FEF7A7FEF1EE100A20F09F00E1EE0E
:1083B000100ABFF35F8F08494020C1F880029DF882
:1083C0000000FEF7BBFE00F003F908B141DF08BD75
:1083D00020BF40BF20BF08BD04E000E020B103493A
:1083E00009680160002070470E2070470494020065
:1083F000FEB502460C460846FFF7F0FF002838D1CC
:10840000002500950195012606208DF80020ADF885
:10841000040002958DF8026069462020226869DF19
:1084200000958DF801508DF80260019502958DF848
:10843000036069464020226869DF00950A208DF8B4
:1084400000000195029569460120226869DFF82045
:108450000090019502956946A120226869DF009588
:10846000019502958DF800506946A020226869DFC9
:108470000020FEBD60DF002802D1024A01211170F8
:1084800070470000E720002030B5144891B0007814
:10849000002820D05FF03405ADF8405010A903A8A3
:1084A00061DF30B1052816D011B0BDE83040FEF7CD
:1084B00083BD03AC0A49684600F0BCF807E000BF82
:1084C000D0E9002120469047684600F0CAF802989B
:1084D0000028E1D0F4E711B030BD0000E720002013
:1084E00008940200F8B5134C2078C0B10120A070A8
:1084F00000F0E2FC112814D0022000F0F5FC002569
:108500008DF800506846FEF7F5FD11DF0646257030
:108510009DF80000FEF712FE2EB13046F8BD08208F
:10852000F8BD0020F8BDA57000F000FD032000F0AC
:10853000DBFCF6E7E42000207CB5194C207808B17C
:1085400008207CBD0120A070002000F0B5FC11289F
:1085500019D0002000F0C8FC1248002600680190E5
:108560008DF800606846FEF7C5FD0F4901A810DFD1
:1085700005000AD0002020709DF80000FEF7DEFD07
:108580002DB128467CBD00207CBD0120F3E7A670FC
:10859000667000F0E7FC012000F0A6FCF3E70000A5
:1085A000E42000209C930200896F02000EB5074969
:1085B000684600F03FF805E0D0E9001088476846BB
:1085C00000F04FF802980028F6D10EBDB8930200D3
:1085D0000148007870470000E420002005488178B9
:1085E00019B1007818B1FFF77DBF08207047FFF779
:1085F000A3BF0000E42000201FB568464BDF30B168
:10860000052814D004B0BDE81040FEF7D5BC0849D9
:1086100001A800F00FF806E0D0E90021009890478B
:1086200001A800F01EF803980028E6D0F4E71FBD6B
:1086300024940200016009684160AFF3008010B526
:10864000D0E900215368994201D1002104E0D1E929
:108650000034A34202D01946816010BD0831416048
:10866000F0E7816800290BD0026892680A448260B2
:1086700041684B689A4203D108314160FFF7DFBF80
:108680007047000008480068012110F0010F08D170
:108690004FF0E020E02280F80024C0F88012C0F8FB
:1086A000001102480160704700E100E01805004039
:1086B0000649024600200B790BB1852070470A60FD
:1086C00001220A7100224A717047000090200020A8
:1086D00004490120086004480168C1F300410029F1
:1086E000FAD170470C00004018040040002802D066
:1086F0000149800108477047519302002DE9FC4170
:10870000DFF8C080044608EB0400002790F9300031
:108710001346C0170E46401C01D008274FE0B07822
:108720001946C0F340022046FEF7DEFF0546401C16
:1087300044D0B07841071CD4C0070DD068460094DF
:10874000FFF7C2FD009900EB8100D0F8001721F07F
:108750000201C0F8001707E000217378204600915D
:108760000A460191FFF771FD164920466431FFF773
:10877000CBFBB078800718D51348317800EB850023
:10878000D0F81025114B1A40C0F810254FF47C5238
:108790004FF4403302EA042203EA01410A43D0F8CD
:1087A00010150A43C0F8102509E008EB05003278DF
:1087B00010F8581F41EA8211017000E00427384682
:1087C000BDE8FC810C26002000600040FFC0FCFFDB
:1087D00010B5FFF787FD002800D0012010BD000074
:1087E00070B5194D95F86A0008B1082070BD0020D9
:1087F000411E2A18401CC0B282F830103028F8D32D
:1088000000242046FEF762FF641CE4B20C2CF8D36F
:108810000D490024E0204C66A1F868400B4981F81E
:10882000000401264020891FC1F88002C1F8000120
:108830004FF4BE70FFF78AFD0549F007C1F8040345
:1088400085F86A60204670BD0C26002006E000E036
:1088500000600040034890F86A00002800D0012022
:10886000704700000C26002030B50446D0F80210F6
:10887000A269D0F8060089B09278522A01D0542A11
:1088800004D1A28B062A05D01F2A03D0124900204A
:108890008ADF1BE0C1F30722C1F30743C5B203928D
:1088A000090E0095CDE90113C0F30723C0F3074279
:1088B0000AA104A8FEF798F894F9132054F8020FBF
:1088C000616800F08BFC044900208ADF002801D099
:1088D000FEF772FB09B030BD402000202530325831
:1088E0003A253032583A253032583A253032583A03
:1088F000253032583A253032580000002DE9F84F23
:1089000005460C460888B5F8CA12884259D195F830
:10891000C602DFF8F8A000EB8001C1EB801005EB88
:10892000400160884FF003094FF00008F0BBE68873
:108930000879A21DF3B250FA86F6062E01D8034438
:1089400000E006230B7100261CE000BF00EBC00313
:1089500006EB860702EB470701EB4303D7F802C09B
:10896000C3F80AC0D7F806C0C3F80EC07F895F827B
:10897000A3F81480A3F81680A3F81880401CA3F86D
:108980001A80761C0B798342E0D895F8C62200EB5A
:10899000C00002EB8203C3EB821205EB420231F806
:1089A0001000128990420ED2087900E00BE00628F0
:1089B00009D085F8C50221882846FEF7C1FE0100CE
:1089C0000AD1BDE8F88F85F8C58222886946284615
:1089D000FEF784FF01000BD085F8C7822288284665
:1089E000FFF756F88AF800902188AAF80210E8E705
:1089F0009DF800000028E4D0228801212846FEF7D7
:108A0000FFFF2188284600F0B1F8DAE7582200205D
:108A1000F8B505460C460888B5F8CA1288425DD1FB
:108A200095F8C602A61D00EB8001C1EB801005EB96
:108A3000400395F8C502618800EBC00003EB4000DD
:108A40000A3039B329E000BF01EB410206EB4202D4
:108A50009788B7F5245F0CD06FF4245C17EB0C07F4
:108A60000AD0012F02D0072F0BD108E05288428193
:108A700007E05288828104E05288C28101E0528876
:108A8000028242892AB182891AB1C2890AB1028A54
:108A90001AB9491C32888A42D6D800268DF800605F
:108AA00095F8C5021979401C884203D101208DF840
:108AB000000018E085F8C502228869462846FEF7BE
:108AC0000DFF01000BD085F8C76222882846FEF70B
:108AD000DFFF0A480321017021884180F8BD9DF81D
:108AE00000000028FAD0228801212846FEF788FFDE
:108AF0002188284600F03AF8F8BD000058220020EE
:108B000070B505460C4690F8C602228800EB80013D
:108B1000C1EB801005EB4001B5F8CA02824222D1B8
:108B2000608848B100212846FEF76AFF2188284660
:108B3000BDE8704000F01AB8A2680A60E068C1F8A9
:108B4000060021882846FEF7FBFD01000BD000201F
:108B500085F8C70222882846FEF79AFF02480321BB
:108B600001702188418070BD582200202DE9F0411C
:108B7000044690F8C9020E46401C1949C0B284F858
:108B8000C902C9680327174D4FF0000E884224D24E
:108B900084F8C5E294F8C602401CC0B200EB800124
:108BA000C1EB801104EB410284F8C602A5F1180163
:108BB00001EB800001210068106082F804E030467B
:108BC0009BDF010007D084F8C7E232462046FEF75B
:108BD0005FFF2F706E80BDE8F08184F8C7E2F8E790
:108BE000782000205822002010B588B02021684647
:108BF000FDF751FC05248DF8004009208DF8010097
:108C000054208DF8020052208DF8030041208DF889
:108C1000040058208DF805000E480621C0F800D049
:108C2000818018210C48FDF736FC0B4801210246D3
:108C300041758181047000214160017520218160AE
:108C40000449A1F1140072DF002801D0FEF7B4F945
:108C500008B010BD502000202C21002003480249FC
:108C60000068FFF707B90000D820002058930200E1
:108C70002DE9F041234C0025234E207A012730B9FD
:108C80002248311D0068FFF700F9306038B102203A
:108C900020723168087928B101281ED116E065607C
:108CA000BDE8F081D1E90503C01A4FF4805290422B
:108CB00000D31046B7EB900F01D2820800E00122EA
:108CC0000869C9681844194429DF03E0D1E90301A0
:108CD000084428DF58B1112812D003213068FEF76C
:108CE00043FF25726560BDE8F041FFF7B7BF207C08
:108CF0000028D5D1BDE8F04100210220FFF73ABAA3
:108D00002772CDE74C280020D42000205893020081
:108D100070B50C4B00210A4ADC680DE002EB8105BE
:108D20008678AD78B54206D132F821500688B54232
:108D300001D1586870BD491CA142EFD3002070BD1D
:108D4000402200207820002000B589B0202168460C
:108D5000FDF7A1FB1E208DF8000023208DF80100F7
:108D600052208DF802002F481F2250F8241FCDF802
:108D700003108188ADF8071081798DF80910D0F8BB
:108D80000710CDF80A10B0F80B10ADF80E10417BAB
:108D90008DF81010D0F80E10CDF81110418AADF8F2
:108DA0001510017D8DF81710D0F815100691B0F848
:108DB0001910ADF81C10C07E8DF81E0019486946C8
:108DC0005830FDF74FFB17491748583101601F21F4
:108DD0008180144818217830FDF75DFB114801218E
:108DE000783002464175642181810521017000219E
:108DF00041600175202181600B49A1F1240072DFDF
:108E000008B1FEF7D9F8074900206FF07F0224313E
:108E1000C0EBC0030B44401C9A710428F8DB09B076
:108E200000BD0000EC2000206020002070B501266D
:108E300070044FF0E0210025C1F88001084C40107B
:108E4000C4F84803C4F8080366602F20FFF74EFCFF
:108E5000A660044C2F20A560FFF748FCA57070BDEC
:108E600000100140C020002038B50021012548B184
:108E700001280CD0032809D1FFF704FCBDE83840D5
:108E8000FFF744B94FF0E020C0F8805138BD8DF8AD
:108E900000106846FEF72EF9064C207808B9FFF757
:108EA00019F9E068401CE060A5709DF80000FEF72D
:108EB00045F938BDF82500203EB504460949684605
:108EC000FFF7B8FB08E000BFD0E90021204690473B
:108ED00030B16846FFF7C5FB02980028F4D13EBDCB
:108EE00011203EBDA09302003EB5044608496846E5
:108EF000FFF7A0FB07E000BFD0E900212046904724
:108F00006846FFF7AEFB02980028F5D13EBD000091
:108F1000AC930200002805D10349012048700020CD
:108F2000FEF730BC70470000F825002010B5162071
:108F3000FDF77EFD48B10A4882684FF4800152B1C6
:108F4000016821F48001016010BDBDE8104042F2CB
:108F50000100FEF731B84FF0E020C0F8801110BDDD
:108F6000A427002010B51620FDF762FDA0B111481E
:108F700090F800044009082811D280B101280ED0D1
:108F800004280CD00C4882684FF480016AB1016853
:108F900041F48001016010BD42F2010001E042F2A3
:108FA0000200BDE81040FEF707B84FF0E020C0F81F
:108FB000001110BD16E000E0A42700202DE9F84FB5
:108FC0001D4C00256846D4E901A6FEF7ADFD00273B
:108FD00038B30023009A61681CE0D1F800C008464D
:108FE000944503D9ACEB02020A6015E0A2EB0C0237
:108FF00063440760D0F80CC0C1698146BCF1000F22
:1090000008D006EB030828F07F48C0E9018CC9F8B6
:109010001C5005460029E0D128466160FEF742FE5B
:1090200003E02846FEF73EFE10B15046FEF7CCFBAB
:10903000E770BDE8F88F0000C02000200D4B10B590
:10904000596831B102680C68A24204D8A21A0A60B9
:10905000C161586010BD0B4603E00B46C969121B85
:1090600021B10C689442F8D3A41A0C600260C1616B
:10907000D86110BDC02000202DE9F041144E776862
:109080003D462C4603E0844204D02546E469002C8A
:10909000F9D11BE0D4B1A5420BD1F869706040B999
:1090A0000C49012088600021B160F0702F20FFF78B
:1090B0001DFB2168E069E86110B10268114401609C
:1090C0007068874202D00120BDE8F0810020FBE7F4
:1090D000C0200020001001407CB5064600240D464B
:1090E0008DF800406846FEF705F801A800F0AEF8DC
:1090F00070B10570094946609DF8040048709DF8FC
:109100000000FEF71BF81420FDF71CFB20467CBD79
:1091100004249DF80000FEF711F8F7E798260020D8
:109120002DE9F041194D6C68002C2CD0184800270F
:109130000068A968B846401A20F07F462068B0420F
:109140000CD82146361A0744E469087C20B181F81E
:109150001080886949698847002CEFD129786878A0
:10916000814206D1401CC0B26870022801D185F846
:109170000180064869780C3040F82170BDE8F04164
:109180001420FDF7DFBABDE8F0810000C020002008
:109190000415014010B50F4CD4E90010884211D0DD
:1091A00000EB80020C4800EB82018B785BB130F859
:1091B00022000831A3DF002804D12079401C00F0F0
:1091C0000700606010BD30F8220089880022A1DF0E
:1091D000F1E7000088200020582500202DE9F74104
:1091E00083B00020184E1746009005460DF10C087C
:1091F000CDF80400C5EBC50081190C46062208F124
:109200000100FDF753F958B1204606226946FDF7E3
:109210004DF970B16D1C042DECDB06B0BDE8F0819A
:10922000C5EBC500304490F90600B842F5DAA771E5
:10923000F3E7C5EBC5003044DDF80D100160BDF863
:1092400011108180F3E70000102100200A494A78BC
:109250008B78521CD2B2934200D100220B789342F9
:1092600001D1002070470270487800EB400001EB0C
:10927000C000001D70470000982600200401100067
:10928000500005000000000000000D0E0F100B0C38
:10929000181900000100000000000000000000009C
:1092A00000000000000000000000000000000000BE
:1092B00000000000000000000000000000000000AE
:1092C000000000000000000000000000000000009E
:1092D000000000000000000000000000000000008E
:1092E000000000000000000000000000000000007E
:1092F000000000000000000000000000000000006E
:10930000000000000000000000000000000000005D
:10931000770A000000000000770A0000000000004B
:109320007ADA00000000000023D1BCEA5F78231540
:10933000DEEF121200000000000000500003005099
:10934000030000007826002000000000000000005C
:109350000338FDD870470000B0270020001000003F
:1093600004000000010000000000000000000000F8
:1093700000000000000000000000000000000000ED
:1093800068930200809302000400000080940200B1
:1093900088940200000000000000000001000007A7
:1093A0008C9302009C93020008000000C49302000A
:1093B000D493020008000000D4930200E49302005A
:1093C00008000000A8940200B89402000000000009
:1093D0000000000098940200A89402000000000021
:1093E00000000000509402005894020058940200BB
:1093F0007094020070940200789402007894020045
:1094000080940200701D0020E49302000494020086
:1094100008000000889402009894020000000000F8
:1094200000000000149402002494020008000000D0
:10943000B8940200701D00207C0300000C6502003F
:10944000E0940200EC20002084270000206A020043
:109450003573020000000000417F0200FC20002064
:10946000CD710200701D0020C572020000000000D6
:109470008D740200EC2000205D72020000000000EC
:109480003D81020000000000158F02000000000076
:1094900075810200000000008984020000000000C5
:1094A000F985020000000000698E02000000000043
:1094B000558102000000000001FF01FF01CC34FFD4
:1094C000FFFF139B2133201F120B120314A17602FE
:1094D0005A7C1081DA44100179040090D003000016
:040000050002620192
:00000001FF
